:1000000000800020B50F0000AD0F0000AD0F000014
:1000100080B51448144B21E05C689968DD688C4217
:100020000CD0002205E0A6180832D6E9008941E983
:1000300002898C460831AA42F5D101E004EB050C97
:100040001C696146002204E008320026002741E9CD
:1000500002670831A242F7D1143301380028DBD1FE
:1000600002F012FA010000007025000048F2C813E7
:10007000C1F6FF731A780AB901201870704700BFE3
:1000800048F20810C1F6FF7008B503682BB140F2C2
:100090000003C0F2000303B1984708BD80B584B0E7
:1000A00000AF4FF00003BB604FF00103FB7362B67B
:1000B00002E000BF00E000BF00F0D8FBFB7B012B9B
:1000C000F7D1BB6803F10103BB60BB680A2BF2DD0B
:1000D0004FF00003FB73EFE780B584B000AF7860AA
:1000E0007A687B68DB7803F10403DBB210461946BB
:1000F00000F034F80346FB734FF00003184607F195
:100100001007BD4680BD00BF80B582B002AF40F28F
:100110004D13C0F200034FF0010200924FF00400B3
:1001200044F24021C0F20F011A464FF0020300F0E2
:10013000FDFD4FF000031846BD4680BD80B400AF02
:100140004FF000031846BD4680BC704780B500AF35
:100150004FF0010000F03EFD80BD00BF80B582B0D1
:1001600000AF78600B46FB7048F2CE33C1F6FF73E8
:100170001B781A46FB78134403F10103B3F5807F23
:1001800002DD4FF0FE0340E048F21413C1F6FF73A6
:100190001B68FA781A7048F21413C1F6FF731B68D3
:1001A00003F10102FB78104679681A4601F010FF4E
:1001B00048F21413C1F6FF731A68FB7803F10103C8
:1001C0001A4448F21413C1F6FF731A6048F2CE3392
:1001D000C1F6FF731A78FB781344DBB203F1010315
:1001E000DAB248F2CE33C1F6FF731A7048F2CD335B
:1001F000C1F6FF731B7803F10103DAB248F2CD3385
:10020000C1F6FF731A704FF00003184607F1080794
:10021000BD4680BD90B583B000AF48E048F20C13F6
:10022000C1F6FF731B6803F1010248F21013C1F617
:10023000FF731B689A4207D148F2CF33C1F6FF73B0
:100240004FF0FF321A703EE048F20C13C1F6FF7314
:100250001B6803F1010248F20C13C1F6FF731A6028
:1002600048F20C13C1F6FF731A68734B9A4208D117
:1002700048F20C13C1F6FF7348F2CC12C1F6FF72BC
:100280001A6048F20C13C1F6FF731C6800F06EFA96
:100290000346237048F2CC33C1F6FF731B7803F199
:1002A0000103DAB248F2CC33C1F6FF731A7000F0E2
:1002B00051FA0346002B06D048F2CF33C1F6FF7344
:1002C0001B78002BAAD048F2CD33C1F6FF731B7800
:1002D000002B68D048F2CF33C1F6FF731B78002B98
:1002E00061D148F21813C1F6FF731B681B78FB71CC
:1002F00048F21813C1F6FF731A68FB791A4448F2E2
:100300001413C1F6FF731B689A4207D948F2CF3322
:10031000C1F6FF736FF002021A7044E048F218133E
:10032000C1F6FF731B6803F10102FB791046194601
:1003300000F03AFA03461A4648F2CF33C1F6FF738B
:100340001A7048F2CF33C1F6FF731B78002B2AD105
:1003500048F21813C1F6FF731A68FB7903F1010321
:100360001A4448F21813C1F6FF731A60FB796FEA5A
:100370000303DAB248F2CE33C1F6FF731B7813449D
:10038000DAB248F2CE33C1F6FF731A7048F2CD33B9
:10039000C1F6FF731B7803F1FF33DAB248F2CD33B5
:1003A000C1F6FF731A7048F2CF33C1F6FF731B78A2
:1003B000FD2B1CD0FF2B34D148F21013C1F6FF7374
:1003C00048F2CC12C1F6FF721A6048F21013C1F65F
:1003D000FF731A6848F20C13C1F6FF731A6048F2F3
:1003E000CC33C1F6FF734FF000021A7019E048F2E7
:1003F0001813C1F6FF7348F2CC22C1F6FF721A60DF
:1004000048F21813C1F6FF731A6848F21413C1F6C4
:10041000FF731A6048F2CD33C1F6FF734FF000024C
:100420001A7048F2CF33C1F6FF731B78184607F1F4
:100430000C07BD4690BD00BFCC82FF1F80B483B0C7
:1004400000AF0346FB71FB79A3F1FC03032B0DD82E
:1004500001A252F823F000BF6F0400006F040000F7
:100460006B0400006904000000E000BFFEE700BF6D
:1004700007F10C07BD4680BC704700BF80B500AFD8
:1004800048F2D030C1F6FF704FF000014FF0640227
:1004900001F066FE4FF00003184680BD80B586B0BF
:1004A00000AFF860B9607A603B604FF00003FB7505
:1004B00003E0FB7D03F10103FB75F97D48F2D032C7
:1004C000C1F6FF720B464FEA83030B444FEA8303E6
:1004D00013441B68002B02D0FB7D042BE9D9FB7D64
:1004E000042B42D8F97D48F2D032C1F6FF720B4698
:1004F0004FEA83030B444FEA83031344FA681A60FC
:10050000FA7D13464FEA830313444FEA830248F20D
:10051000D033C1F6FF73134403F104031846B968DE
:100520004FF0080201F074FFF97D48F2D032C1F6B5
:10053000FF720B464FEA83030B444FEA83031344D5
:1005400003F110037A681A60F97D48F2D032C1F6DF
:10055000FF720B464FEA83030B444FEA83031344B5
:1005600003F10C033A681A6002E04FF00103FB75D7
:10057000FB7D184607F11807BD4680BD80B582B0E7
:1005800000AF4FF00003FB713AE0F97948F2D03246
:10059000C1F6FF720B464FEA83030B444FEA830315
:1005A00013441B681B683B60F97948F2D032C1F6EE
:1005B000FF720B464FEA83030B444FEA8303134455
:1005C00003F110031A683B689A4211D8F97948F28E
:1005D000D032C1F6FF720B464FEA83030B444FEA59
:1005E0008303134403F10C031A683B689A4203D255
:1005F0004FF0FE00FFF722FFFB7903F10103FB71CF
:10060000F97948F2D032C1F6FF720B464FEA830304
:100610000B444FEA830313441B68002B02D0FB7981
:10062000042BB2D94FF00003184607F10807BD4666
:1006300080BD00BF80B400AF48F23543C1F6FF7300
:100640001B7803F10103DAB248F23543C1F6FF73B8
:100650001A70BD4680BC704780B500AF48F2364383
:10066000C1F6FF734FF000021A7048F23443C1F62E
:10067000FF734FF000021A7000F0AAFD80BD00BFAA
:1006800080B584B000AF4FF00403BB604FF00403AB
:100690007B60BB687B6848F23543C1F6FF731B780B
:1006A0001A4648F23843C1F6FF731A6048F23643DF
:1006B000C1F6FF731B781A4648F23C43C1F6FF733C
:1006C0001A6048F23840C1F6FF7042F20C51C0F295
:1006D00000014FF000024FF00A03FFF7DFFE034670
:1006E000BB7348F23C40C1F6FF7042F21451C0F2B5
:1006F00000014FF000024FF00A03FFF7CFFE034660
:10070000FB7348F23543C1F6FF734FF000021A70D5
:1007100000F0BCFC01F01AF800F0C0FF40F23560B8
:10072000C0F2000001F02AF840F25960C0F2000067
:1007300000F0CCFF01F04AF800F0F0FF00F048FDB7
:1007400000F0B2FD4FF00003184607F11007BD4658
:1007500080BD00BF80B400AF48F23543C1F6FF73DF
:100760001B781846BD4680BC704700BF80B582B07C
:1007700000AF00F039FD00F043FD0346FB7148F285
:100780003543C1F6FF731B7803F1FF33DAB248F249
:100790003543C1F6FF731A7000F01AFDFB79184655
:1007A00007F10807BD4680BD80B582B000AF786014
:1007B0000B46FB7000F018FD48F23443C1F6FF739E
:1007C0004FF001021A7048F23643C1F6FF731A78EF
:1007D000FB781344DAB248F23643C1F6FF731A705D
:1007E000FB787868194600F0C7FD48F23443C1F63B
:1007F000FF734FF000021A704FF00003184607F124
:100800000807BD4680BD00BF80B584B000AF7860EA
:100810004FF0FF33FB734FF00003BB601DE048F265
:100820004043C1F6FF731A6813464FEAC303C2EB95
:1008300003034FEA830248F21C13C1F6FF7313440B
:100840001846796801F0F6FC0346002B01D1BB681D
:10085000FB73BB6803F10103BB60BB68052BDED9EA
:10086000FB7B184607F11007BD4680BD80B582B0FE
:1008700000AF4FF00003FB7148F24043C1F6FF7335
:10088000196848F21C12C1F6FF720B464FEAC30307
:10089000C1EB03034FEA8303134403F108031B78FE
:1008A000A3F102030E2B00F2458101A252F823F0BE
:1008B000ED080000350B0000490A0000350B000070
:1008C000350B0000350B0000770A0000350B0000E7
:1008D000350B0000350B0000350B0000350B000018
:1008E000350B0000350B0000010B000048F24043BF
:1008F000C1F6FF73196848F21C12C1F6FF720B466D
:100900004FEAC303C1EB03034FEA8303134403F12C
:1009100010031B79002B2FD048F24043C1F6FF7320
:100920001A6813464FEAC303C2EB03034FEA83037B
:1009300003F1100248F21C13C1F6FF73134403F1D4
:1009400004031846FFF760FF0346BB71B97948F20C
:100950001C12C1F6FF720B464FEAC303C1EB03033F
:100960004FEA8303134403F108031B78022B07D0DB
:100970004FF00103FB7104E04FF00103FB7100E055
:1009800000BFFB79012B40F0D28048F24043C1F612
:10099000FF73196848F21C12C1F6FF720B464FEA4A
:1009A000C303C1EB03034FEA8303134403F10C03B6
:1009B0001B68002B31D048F24043C1F6FF73196821
:1009C00048F21C12C1F6FF720B464FEAC303C1EB9B
:1009D00003034FEA8303134403F10C031B68984796
:1009E00003467B717B79002B40F0A38048F24043A3
:1009F000C1F6FF73196848F21C12C1F6FF720B466C
:100A00004FEAC303C1EB03034FEA8303134403F12B
:100A100008034FF004021A708CE048F24043C1F61C
:100A2000FF73196848F21C12C1F6FF720B464FEAB9
:100A3000C303C1EB03034FEA8303134403F1080329
:100A40004FF004021A7075E048F24043C1F6FF739C
:100A5000196848F21C12C1F6FF720B464FEAC30335
:100A6000C1EB03034FEA8303134403F108034FF080
:100A700008021A705EE048F24043C1F6FF7319683D
:100A800048F21C12C1F6FF720B464FEAC303C1EBDA
:100A900003034FEA8303134403F110031B68002B85
:100AA00017D048F24043C1F6FF73196848F21C1290
:100AB000C1F6FF720B464FEAC303C1EB03034FEAD3
:100AC0008303134403F110031B68984703467B71AB
:100AD00030E048F24043C1F6FF73196848F21C1237
:100AE000C1F6FF720B464FEAC303C1EB03034FEAA3
:100AF0008303134403F108034FF020021A7019E036
:100B000048F24043C1F6FF73196848F21C12C1F65F
:100B1000FF720B464FEAC303C1EB03034FEA8303A3
:100B2000134403F108034FF008021A7002E000BFFB
:100B300000E000BF48F24043C1F6FF731B6803F1B9
:100B4000010248F24043C1F6FF731A6048F2404385
:100B5000C1F6FF731B68062B06D948F24043C1F665
:100B6000FF734FF000021A6007F10807BD4680BD11
:100B700080B485B000AF78604FF00003BB737B6832
:100B80009A787B68DB781344DAB27B681B7913446C
:100B9000BB734FF00003FB730AE0FA7B7B681344DE
:100BA0005A79BB7B1344BB73FB7B03F10103FB73DB
:100BB000FA7B7B68DB7803F1FF339A42EDDBBB7B8A
:100BC0006FEA0303BB73BB7B184607F11407BD46EE
:100BD00080BC704780B586B000AF0346FB7107F15B
:100BE00008034FF000021A6003F104034FF0000203
:100BF0001A6003F104034FF000021A6003F10403CA
:100C00004FF000021A8003F102034FF0FF333B72F2
:100C10004FF0FF337B72FB79BB724FF001033B73E4
:100C200007F108031846FFF7A3FF03467B7507F19A
:100C300008031846FFF750FA0346FB7507F118073B
:100C4000BD4680BD80B500AF48F66803C1F6FF73AE
:100C50001B7883F00103DAB248F66803C1F6FF732C
:100C60001A7048F66803C1F6FF731B78184600F047
:100C70007DFE80BD80B582B002AF4FF001030093CE
:100C80004FF0000044F24021C0F20F0140F645420F
:100C9000C0F200024FF0020300F048F84FF00003EA
:100CA0001846BD4680BD00BF80B400AF48F66C0357
:100CB000C1F6FF734FF001021A70BD4680BC704749
:100CC00080B500AF48F61413C1F6FF734FF0000271
:100CD0001A6048F61413C1F6FF731A6848F6101329
:100CE000C1F6FF731A6048F67000C1F6FF704FF04E
:100CF00000014FF0A00201F033FA00F023FC40F6AF
:100D0000A940C0F2000000F069FE00F04FFE4CF672
:100D10000020C3F69A3000F077FC00F043FC00F0AE
:100D20006DFD4FF00003184680BD00BF80B485B054
:100D300000AFB9607A600246FA73FB70FA7B48F63E
:100D40007003C1F6FF734FEA021213444FF0000222
:100D50001A60FA7B48F67003C1F6FF734FEA02127D
:100D6000134403F10403BA681A60FA7B48F670036F
:100D7000C1F6FF734FEA420202F10102796843F8BB
:100D80003210FB7B48F67002C1F6FF724FEA430354
:100D900003F101034FEAC3031344FA781A71FB7B92
:100DA00048F67002C1F6FF724FEA430303F10103F4
:100DB0004FEAC30313443A7E5A7107F11407BD4644
:100DC00080BC704780B582B000AF00F049FC03469C
:100DD0006FEA030248F61013C1F6FF731A6048F277
:100DE000C413C1F6FF731B78002B13D048F6101301
:100DF000C1F6FF731A6848F61413C1F6FF731A6040
:100E000048F2C413C1F6FF734FF000021A704FF09E
:100E10000003C5E048F66C03C1F6FF731B78012B95
:100E200019D148F61013C1F6FF731A6848F6141367
:100E3000C1F6FF731B68C3EB02024CF60023C3F636
:100E40009A3313447B6048F66C03C1F6FF734FF08E
:100E500000021A700CE048F61013C1F6FF731A680E
:100E600048F61413C1F6FF731B68C3EB02037B60E3
:100E700048F61013C1F6FF731A6848F61413C1F64A
:100E8000FF731A604FF00003FB7083E0FB7848F6B5
:100E90007002C1F6FF724FEA430303F101034FEA08
:100EA000C30313445B79012B70D1F978FA7848F6C3
:100EB0007003C1F6FF734FEA021213441A687B688D
:100EC0001A4448F67003C1F6FF734FEA01110B4450
:100ED0001A60FA7848F67003C1F6FF734FEA0212FF
:100EE00013441A68F97848F67003C1F6FF734FEAA5
:100EF00001110B4403F104031B689A4246D3FA78AC
:100F000048F67003C1F6FF734FEA420202F1010294
:100F100053F83230002B0CD0FA7848F67003C1F643
:100F2000FF734FEA420202F1010253F83230984750
:100F300003E04FF0FD00FFF781FAFB7848F67002FE
:100F4000C1F6FF724FEA430303F101034FEAC30303
:100F500013441B79022B0ED0FB7848F67002C1F6C1
:100F6000FF724FEA430303F101034FEAC303134443
:100F70004FF000025A71FA7848F67003C1F6FF7319
:100F80004FEA021213444FF000021A60FB7803F19B
:100F90000103FB70FB78092B7FF678AF4FF000035D
:100FA000184607F10807BD4680BD00BF80B400AFFA
:100FB000FEE700BF054B1C7844F001041C70044B95
:100FC0001A78D2B2034B1A70FFF722F8E8460040B5
:100FD000F8460040BC76004080B582B000AF4EF6C7
:100FE0000C53CEF2000340F20042C0F2FA521A60F3
:100FF0004EF61453CEF200034EF61452CEF2000217
:10100000126842F400721A604FF000037B6019E02E
:1010100079687B68032B07D87A6840F20003C0F236
:10102000000353F8223003E040F6AD73C0F2000332
:1010300048F20002C1F6FF7242F821307B6803F1EA
:1010400001037B607B682F2BE2D947F2BC63C4F2BB
:1010500000031B78DAB248F66013C1F6FF731A700A
:101060004EF60853CEF2000348F20002C1F6FF72BA
:101070001A6000F07BFE48F20013C1F6FF734FF0D8
:1010800000021A6007F10807BD4680BD80B500AFB9
:1010900048F61813C1F6FF731B78002B08D100F037
:1010A0000BF848F61813C1F6FF734FF001021A70DF
:1010B00000F044F880BD00BF80B500AF4FF00300E2
:1010C00041F2C131C0F2000100F0FAFB4FF0030021
:1010D0004FF0070100F024FC46F28F43C4F20003F6
:1010E0004FF072021A7046F28C43C4F200034FF0C4
:1010F00020021A704FF0040041F2AD41C0F200012D
:1011000000F0DEFB4FF004004FF0070100F008FC98
:1011100046F22B43C4F200034FF007021A7046F266
:101120003B43C4F200034FF048021A7046F28A4370
:10113000C4F200034FF002021A7080BD80B582B085
:1011400000AF00F0A9FB0346FB7146F29F43C4F2D7
:10115000000346F29F42C4F200021278D2B242F07B
:101160002002D2B21A7046F29C43C4F2000346F247
:101170009C42C4F200021278D2B242F01002D2B203
:101180001A704EF20013CEF200034FF008021A60FC
:1011900046F29A43C4F2000346F29A42C4F20002B5
:1011A0001278D2B242F01002D2B21A704EF200138C
:1011B000CEF200034FF010021A6000F041FBFB7901
:1011C000184600F06DFB07F10807BD4680BD00BF63
:1011D00080B400AF4EF20013CEF200034FF00802CD
:1011E0001A60BD4680BC704780B400AF4EF28013D9
:1011F000CEF200034FF008021A60BD4680BC704773
:1012000080B582B000AFFFF7EFFF48F61B13C1F6C1
:10121000FF731B78BB7148F61C13C1F6FF731B7874
:10122000FB7148F61D13C1F6FF731B78DBB2002B70
:1012300003D1BA79FB799A4226D0BA7948F62013BD
:10124000C1F6FF739B5C7B71BB7903F10103BB713A
:10125000BB791F2B02D94FF00003BB7148F61B135B
:10126000C1F6FF73BA791A7048F61D13C1F6FF7301
:101270001B78DBB2002B0ED048F61D13C1F6FF73AE
:101280004FF000021A7007E046F24F43C4F2000329
:101290001B787B7100E000BFFFF79AFF7B7918464F
:1012A00007F10807BD4680BD80B400AF4EF20013C1
:1012B000CEF200034FF010021A60BD4680BC7047AA
:1012C00080B485B000AF0346FB7148F61A13C1F62F
:1012D000FF731B78BB7348F61913C1F6FF731B78B5
:1012E000FB73BA7BFB7B9A4209D2BA7BFB7B03F18F
:1012F000FF339A4214BF00230123DBB208E0BA7B1C
:10130000FB7BC3EB02031F2B14BF00230123DBB2C3
:10131000002BDAD1FA7BBB7B9A4210D146F26A43AA
:10132000C4F200031B78DBB203F00403002B06D1E8
:1013300046F24A43C4F20003FA791A7016E0BB7B06
:101340001F2B02D94FF00003BB73BA7B48F6401342
:10135000C1F6FF73F9799954BB7B03F10103BB73A9
:1013600048F61A13C1F6FF73BA7B1A7007F1140717
:10137000BD4680BC704700BF80B584B000AF7860C8
:101380000B46FB704FF00003FB7348F61813C1F6D1
:10139000FF731B78002B0ED0FA7B7B6813441B78FD
:1013A0001846FFF78DFFFB7B03F10103FB73FA7B0C
:1013B000FB789A42F0D307F11007BD4680BD00BF0D
:1013C00080B483B000AF4FF00003FB7146F26C4372
:1013D000C4F200031B78BB715EE048F61C13C1F633
:1013E000FF731B78DBB21A4646F24F43C4F2000388
:1013F0001B78D9B248F62013C1F6FF7399544FF009
:101400000103FB71FB79002B40D048F61D13C1F698
:10141000FF731B78DBB2002B06D048F61E13C1F613
:10142000FF734FF001021A7048F61C13C1F6FF73E8
:101430001B78DBB203F10103DAB248F61C13C1F6E4
:10144000FF731A7048F61C13C1F6FF731B78DBB2EA
:101450001F2B06D948F61C13C1F6FF734FF000028C
:101460001A7048F61C13C1F6FF731B78DAB248F6FF
:101470001B13C1F6FF731B78DBB29A4206D148F604
:101480001D13C1F6FF734FF001021A7046F26C4350
:10149000C4F200031B78BB71BB7903F02003002B5F
:1014A0009BD107F10C07BD4680BC704780B400AFEC
:1014B0002EE048F61913C1F6FF731B78DBB21F2B21
:1014C00006D948F61913C1F6FF734FF000021A70DF
:1014D00046F24A43C4F2000348F61912C1F6FF72FD
:1014E0001278D2B2114648F64012C1F6FF72525C31
:1014F000D2B21A7048F61913C1F6FF731B78DBB22B
:1015000003F10103DAB248F61913C1F6FF731A703A
:1015100048F61913C1F6FF731B78DAB248F61A13AE
:10152000C1F6FF731B789A4209D046F26A43C4F2AF
:1015300000031B78DBB203F00403002BB9D0BD46D7
:1015400080BC704780B582B000AF4CF6FF10C3F688
:101550009A3000F059F84CF6FF10C3F69A3000F0BC
:101560006FF800F099F90346FB7146F29753C4F205
:10157000000346F29752C4F200021278D2B242F04F
:101580001002D2B21A70FB79184600F089F900F007
:1015900077F84FF0010000F01BF807F10807BD468F
:1015A00080BD00BF80B400AF46F27453C4F20003A4
:1015B00046F27452C4F200021278D2B26FEA42626A
:1015C0006FEA5262D2B21A70BD4680BC704700BF4B
:1015D00080B483B000AF0346FB7146F28753C4F278
:1015E0000003FA791A7007F10C07BD4680BC7047FA
:1015F00080B400AF46F26753C4F200031B78DBB23D
:101600001846BD4680BC704780B483B000AF786098
:1016100046F22453C4F200037A681A6007F10C07FB
:10162000BD4680BC704700BF80B400AF46F2445353
:10163000C4F200031B681846BD4680BC704700BF5B
:1016400080B483B000AF786046F20453C4F2000364
:101650007A681A6007F10C07BD4680BC704700BF6E
:1016600080B400AF46F20453C4F200031B6846F294
:101670004453C4F200031B681846BD4680BC704743
:1016800080B500AF01E0FFF7CFFFFFF7B1FF0346E2
:1016900003F00803002BF6D180BD00BF80B500AF7A
:1016A00000F048F841F2C160C0F2000000F00EF80E
:1016B0004FF0070000F01EF800F030F880BD00BFCA
:1016C00080B400AFBD4680BC704700BF80B485B019
:1016D00000AF78604EF60853CEF200031B68FB6043
:1016E000FB6803F148037A681A6007F11407BD46E6
:1016F00080BC704780B483B000AF0346FB714EF2EC
:101700000243CEF20003FA794FEA4212D2B21A70C3
:1017100007F10C07BD4680BC704700BF80B400AF26
:101720004EF20013CEF200034FF004021A60BD46E1
:1017300080BC704780B400AF4EF28013CEF200033D
:101740004FF004021A60BD4680BC704780B500AF00
:1017500000F048F841F27170C0F2000000F00EF89D
:101760004FF0070000F01EF800F030F880BD00BF19
:1017700080B400AFBD4680BC704700BF80B485B068
:1017800000AF78604EF60853CEF200031B68FB6092
:10179000FB6803F140037A681A6007F11407BD463D
:1017A00080BC704780B483B000AF0346FB714EF23B
:1017B0000043CEF20003FA794FEA4212D2B21A7015
:1017C00007F10C07BD4680BC704700BF80B400AF76
:1017D0004EF20013CEF200034FF001021A60BD4634
:1017E00080BC704780B400AF4EF28013CEF200038D
:1017F0004FF001021A60BD4680BC704780B400AF54
:1018000044F2A233C4F2000344F2A232C4F2000252
:101810001278D2B242F00102D2B21A7044F2B2335C
:10182000C4F2000344F2B232C4F200021278D2B21F
:1018300042F00102D2B21A70BD4680BC704700BFB0
:1018400080B400AF44F2A233C4F2000344F2A232E7
:10185000C4F200021278D2B242F00202D2B21A707E
:1018600044F2B233C4F2000344F2B232C4F20002D2
:101870001278D2B242F00202D2B21A70BD4680BCD7
:10188000704700BF000000000230800803D000BF96
:1018900001380046FCD17047EFF3108072B67047F4
:1018A00080F31088704700BF80B483B000AF034658
:1018B000FB7101BE07F10C07BD4680BC704700BF3D
:1018C00080B584B000AF03463960FB714EF6085313
:1018D000CEF200031B68FB60FB791F2B03D94FF08E
:1018E0000000FFF7E1FFFB7903F01F0303F1100392
:1018F0004FEA8302FB6813441B68BB60FB7903F06B
:101900001F0303F110034FEA8302FB6813443A6894
:101910001A60BB68184607F11007BD4680BD00BFBE
:1019200080B582B000AF02460B46FA71BB71BB793D
:10193000072B03D94FF00000FFF7B6FFFB791F2BF1
:1019400003D94FF00000FFF7AFFFFB7903F01F034F
:1019500003F1604303F56443BA794FEA4212D2B20D
:101960001A7007F10807BD4680BD00BF80B485B07E
:1019700000AF0346FB7145F22013C4F200031B784D
:10198000DBB223F00103FB7345F22013C4F2000322
:10199000FA7902F00102F97B42EA0102D2B21A702E
:1019A00007F11407BD4680BC704700BF80B500AF8B
:1019B00000F048F841F6D110C0F2000000F00EF837
:1019C0004FF0070000F01EF800F030F880BD00BFB7
:1019D00080B400AFBD4680BC704700BF80B485B006
:1019E00000AF78604EF60853CEF200031B68FB6030
:1019F000FB6803F144037A681A6007F11407BD46D7
:101A000080BC704780B483B000AF0346FB714EF2D8
:101A10000143CEF20003FA794FEA4212D2B21A70B1
:101A200007F10C07BD4680BC704700BF80B400AF13
:101A30004EF20013CEF200034FF002021A60BD46D0
:101A400080BC704780B400AF4EF28013CEF200032A
:101A50004FF002021A60BD4680BC704780B485B06A
:101A600000AF786039607B68BB604FF00003FB60BB
:101A700009E0BA68FB6813444FF000021A70FB6873
:101A800003F10103FB60FA683B689A42F1D307F166
:101A90001407BD4680BC704780B489B000AFF860C1
:101AA000B9607A60FB687B61BB68BB614FF0000383
:101AB000FB610BE07A69FB691344B969FA690A446E
:101AC00012781A70FB6903F10103FB61FA697B6804
:101AD0009A42EFD307F12407BD4680BC704700BF90
:101AE00080B582B000AF7860396078684FF000014F
:101AF0003A6800F035FB07F10807BD4680BD00BF1E
:101B000080B584B000AFF860B9607A60F868B968F1
:101B10007A6800F05DFA07F11007BD4680BD00BF8E
:101B200080B487B000AF786039604FF00003FB608D
:101B30004FF00003BB602CE0BB684FEA83027B6878
:101B400013441B683B613B69FB753B6923F0FF0352
:101B50003B6117E0FB684FEA43023B6813441B7884
:101B60001A463B691344FA684FEA42013A680A444C
:101B700052781A70FB6803F10103FB60FB7D03F1EF
:101B8000FF33FB75FB7D002BE4D1BB6803F1010340
:101B9000BB60BB68182BCFD907F11C07BD4680BCC2
:101BA000704700BF80B500AF44F28003C4F2000369
:101BB0004FF017021A8044F28203C4F200034FF080
:101BC00018021A7044F28403C4F200034FF49C72AA
:101BD0001A8044F28603C4F200034FF018021A7010
:101BE00044F20033C4F200034FF002021A7044F2D0
:101BF0000003C4F200034FF008021A7044F20023FD
:101C0000C4F200034FF003021A7044F2A163C4F25D
:101C1000000340F20812C4F600121278D2B21A7011
:101C200044F22223C4F200034FF008021A8044F267
:101C30002023C4F2000341F251021A8040F6B8306A
:101C4000FFF722FE44F20403C4F200034FF0030244
:101C50001A7044F20503C4F200034FF001021A7037
:101C600044F20403C4F200034FF000021A7044F27D
:101C70000403C4F200034FF007021A7044F2060393
:101C8000C4F200034FF000021A7044F20803C4F2D9
:101C900000034FF048021A7044F20403C4F2000338
:101CA0004FF000021A7044F20103C4F200034FF037
:101CB00002021A7044F2A233C4F2000344F2A232C8
:101CC000C4F200021278D2B242F00302D2B21A7009
:101CD00080BD00BF80B400AF44F2AA33C4F2000359
:101CE0004FF444721A8045F62003C4F200034FF00B
:101CF0001E021A7045F62403C4F200034FF01E02C0
:101D00001A7045F62803C4F200034FF01E021A7041
:101D100045F62C03C4F200034FF01E021A7045F67C
:101D20000013C4F200036FF03F021A7045F603136C
:101D3000C4F200034FF00C021A7045F60813C4F207
:101D400000036FF03F021A7045F60B13C4F2000354
:101D50004FF00C021A7045F67603C4F200034FF000
:101D600044021A70BD4680BC704700BF80B582B087
:101D700000AF72B644F60003C4F200034FF0000255
:101D80001A70FFF70FFF44F60003C4F200036FF070
:101D90007F021A7047F21003C4F200034FF00002F2
:101DA0001A7047F22003C4F200034FF000021A70C9
:101DB00045F67C03C4F200034FF001021A7044F2AE
:101DC000E863C4F2000344F2E862C4F2000212784D
:101DD000D2B242F00102D2B21A704FF00003FB708F
:101DE0002FE0FA7813464FEA430313444FEA4303C4
:101DF0001A4642F21C53C0F2000313447B607B6816
:101E00001A7859784FEA012141EA020299784FEA9B
:101E1000014141EA0202DB784FEA036343EA02032D
:101E20001A467B6819795B794FEA032343EA010379
:101E30009BB210461946FFF753FEFB7803F10103EE
:101E4000FB70FB78072BCCD94FF0904040F2640137
:101E5000C4F60001FFF764FE45F20020C4F2000062
:101E600040F28441C4F600014FF00702FFF714FE70
:101E700045F20820C4F200004FF00701FFF7EEFD25
:101E800045F21020C4F200004FF00701FFF7E6FD15
:101E900045F21820C4F200004FF00701FFF7DEFD05
:101EA00045F22020C4F200004FF00701FFF7D6FDF5
:101EB00045F22820C4F200004FF00701FFF7CEFDE5
:101EC00045F23020C4F200004FF00701FFF7C6FDD5
:101ED00045F26020C4F200004FF00601FFF7BEFD9E
:101EE00045F27820C4F200004FF00701FFF7B6FD7D
:101EF00045F20303C4F2010345F20302C4F20102F6
:101F00001278D2B242F00202D2B21A7045F2130332
:101F1000C4F2010345F21302C4F201021278D2B2F4
:101F200042F00202D2B21A7044F2A033C4F20003AB
:101F300044F2A032C4F200021278D2B242F040025F
:101F4000D2B21A7044F2C233C4F2000344F2C23275
:101F5000C4F200021278D2B242F01002D2B21A7069
:101F600045F20010C4F2000040F27041C4F60001D6
:101F70004FF00A02FFF7C4FD45F22210C4F2000040
:101F800040F27C41C4F600014FF00802FFF7B8FDB3
:101F9000FFF7A0FE44F2B030C4F2000044F2A031DA
:101FA000C4F200014FF00C02FFF7AAFD44F2B03377
:101FB000C4F2000344F2B032C4F200021278D2B28A
:101FC00002F0FD021A7007F10807BD4680BD00BF90
:101FD000032A2DE9F0070BD83AB1002311F803C00A
:101FE00000F803C001339342F8D1BDE8F007704711
:101FF00082180C46034603E014F8011C03F8011C88
:1020000003F003061946A44601330134002EF3D130
:102010001CF00304634608BFC1EB020C68D06542A4
:10202000C4F1040A0CEB050733464FEACA0A5CF810
:1020300005604FEAC408551A08E057F8044F2646D1
:1020400004FA0AF449EA0404CC5004335C18032D62
:1020500026FA08F9A5F104050CEB0306EDDC0023D4
:1020600002E0F15CE154013319199142F9D3BCE764
:1020700053F8404C41F8404C53F83C4C41F83C4C30
:1020800053F8384C41F8384C53F8344C41F8344C40
:1020900053F8304C41F8304C53F82C4C41F82C4C50
:1020A00053F8284C41F8284C53F8244C41F8244C60
:1020B00053F8204C41F8204C53F81C4C41F81C4C70
:1020C00053F8184C41F8184C53F8144C41F8144C80
:1020D00053F8104C41F8104C53F80C4C41F80C4C90
:1020E00053F8084C41F8084C53F8044C41F8044CA0
:1020F0001C460D4640334031BCF13F0FACF1400C63
:10210000B6DC21462B46541B0FE051F8105C43F817
:10211000105C51F80C5C43F80C5C51F8085C43F817
:10212000085C51F8045C43F8045C0F2C0D469C4697
:1021300001F1100103F11003A4F11004E5DCCCEB74
:102140000201002303E0EC584CF8034004335E190D
:10215000032903EB0C04A1F10401F4DC7FE700BFC9
:10216000032AC9B230B407D822B10023C1540133C5
:102170009342FBD130BC704700EB020C034601E0F8
:1021800003F8011C03F003041A460133002CF7D1B5
:102190004FF00133C2EB0C0403FB01F31FE042F8E4
:1021A000403C42F83C3C42F8383C42F8343C42F86F
:1021B000303C42F82C3C42F8283C42F8243C42F89F
:1021C000203C42F81C3C42F8183C42F8143C42F8CF
:1021D000103C42F80C3C42F8083C42F8043C1546DE
:1021E00040323F2CA4F14004D9DC2A46C5EB0C0454
:1021F00007E042F8103C42F80C3C42F8083C42F838
:10220000043C154610320F2CA4F11004F1DC2A46D0
:10221000C5EB0C0501E042F8043C14460432032DE2
:10222000A5F10405F7DC01E004F8011B6445FBD3CC
:10223000A0E700BF80EA010212F0030F3AD110F0CC
:10224000030220F0030021F0030150F804CB08BF83
:1022500051F8043B0DD082F003024FEAC2026FF046
:102260007F4323FA02F251F8043B4CEA020C43EAA2
:10227000020300BFACF101329C4501BF22EA0C020F
:1022800012F0803F50F804CB51F8043BF2D04FEAF3
:102290000C604FEA1C2C012828BFB0EB036F08BF6D
:1022A0001B0AF4D003F0FF034FEA1060A0EB030019
:1022B000704700BF10F0030F0AD010F8012B11F87F
:1022C000013B012A28BF9A42F4D0A2EB03007047D9
:1022D0004DF8045D4DF8044D4FF0010242EA022230
:1022E00042EA024201F0030C21F0030150F8044BD2
:1022F00051F8045BBCF1020F26D04BD824F07F4C80
:10230000BCEB152FA4EB020323EA04030DD113EA5F
:10231000C21308BF51F8045B0AD18CEA040CBCEB71
:10232000056F0CD150F8044BE8E74FEA15255CE047
:1023300033F07F4352D10D784FEA146C55E04FEAE9
:10234000146C05F0FF0550E04FEA044CA4EB0203C7
:102350004FEA1C4C23EA0403BCEB154F17D113EAD8
:10236000C21308BF51F8045B07D18CEA040CBCEB24
:10237000054F08D150F8044BE6E71B042ED10D8819
:102380004FEA144C31E04FEA05454FEA144C4FEA4E
:1023900015452AE004F0FF0CBCEB156FA4EB02031B
:1023A00023EA04030DD113EAC21308BF51F8045BFA
:1023B0000AD18CEA040CBCEB052F0AD150F8044B6F
:1023C000E8E74FEA156510E014F0FF0F06D051F86A
:1023D000045B4FEA142C25F07F4506E04FF0000027
:1023E0005DF8044B5DF8045B70470CF0FF0205F0EC
:1023F000FF00012828BF904204BF4FEA1C2C2D0A81
:10240000F3D0A2EB00005DF8044B5DF8045B70476D
:1024100041EA000313F0030F14BF00230123032A32
:1024200094BF002303F0010330B4002B2AD00446EC
:102430000B68A3F1013C2CEA030C1CF0803F05D192
:10244000043A0431032A44F8043BF1D82346BAB1D4
:102450000D781C46013A04F8015B55B102337AB19C
:1024600011F8015F1C46013A03F8015C0133002DAD
:10247000F5D12AB100231946E15401339342FBD12F
:1024800030BC70470346E2E708B500F017F807488C
:1024900000B10068064901B109680022FDF7FEFDA0
:1024A000044B0BB1AFF30080FEE700BF000000005B
:1024B0000000000000000000FEE7000070B542F2DE
:1024C000585642F25855C0F20006C0F20005761B7D
:1024D000B61006D0002455F8243001349847A6429F
:1024E000F9D842F2585542F26056C0F20005C0F2E7
:1024F0000006761B00F02AF8B61006D0002455F826
:0C250000243001349847A642F9D870BD81
:10250C005278436F756E74005478436F756E740017
:10251C00105100401000305100404000C0510040AC
:10252C001000F05100401000000001400010001499
:10253C000140000800400140000A004C014000022C
:10254C00F8B500BFF8BC08BC9E467047810000007F
:10255C00D90F0000F8B500BFF8BC08BC9E46704708
:10256C006D00000000000000882500000881FF1F9E
:0C257C00C0000000A007000000000000EC
:1025880000000000CC81FF1FCC81FF1FCC82FF1F01
:10259800CC82FF1F455252000000000002000000DC
:1025A8007D0400007D050000000000000000000020
:1025B80048414C00000000000201000081060000B4
:1025C800000000000000000000000000544D520010
:1025D8000000000002010000C10C0000C50D000051
:1025E800000000000000000042504C000000000005
:1025F80002020000000000001502000048414C00E3
:102608000000000042414C000000000002020000EF
:10261800090100003D01000042504C00000000008C
:10262800545354000000000002020000750C000022
:1026380000000000544D520000000000010000009E
:0400000300000FB535
:00000001FF
