:1000000000800020251A00001D1A00001D1A0000A3
:1000100080B51448144B21E05C689968DD688C4217
:100020000CD0002205E0A6180832D6E9008941E983
:1000300002898C460831AA42F5D101E004EB050C97
:100040001C696146002204E008320026002741E9CD
:1000500002670831A242F7D1143301380028DBD1FE
:1000600002F04AFF01000000E02F000048F2E01318
:10007000C1F6FF731A780AB901201870704700BFE3
:1000800048F20810C1F6FF7008B503682BB140F2C2
:100090000003C0F2000303B1984708BD80B584B0E7
:1000A00000AF4FF00003BB604FF00103FB7362B67B
:1000B00002E000BF00E000BF00F0E2FAFB7B012B92
:1000C000F7D1BB6803F10103BB60BB680A2BF2DD0B
:1000D0004FF00003FB73EFE780B400AF4FF0000375
:1000E0001846BD4680BC704780B400AF4FF0000397
:1000F0001846BD4680BC704780B500AF48F2E4109A
:10010000C1F6FF704FF4807100F01EFE03461A46E0
:1001100048F2E433C1F6FF731A7048F2E420C1F6E6
:10012000FF704FF4807100F00FFE03461A4648F24C
:10013000E533C1F6FF731A704FF00003184680BD17
:1001400080B584B000AF78600B46FB7048F2E533B1
:10015000C1F6FF731A78FB78104679681A4601F0E9
:10016000D9F80346FB73FB7B184607F11007BD4621
:1001700080BD00BF80B58AB000AF12E000F004FA85
:10018000034687F8273048F2E433C1F6FF731A7844
:1001900097F827301046194600F09CFE034687F872
:1001A000253000F0E5F90346002BE7D148F2E533AE
:1001B000C1F6FF731B78184601F0F0F90346002BD7
:1001C0001BD048F2E533C1F6FF73197807F104023A
:1001D00007F12403084611461A4601F051F9034677
:1001E00087F8253097F8243007F1040210461946A5
:1001F00000F0E4F9034687F8263097F826301846D1
:1002000007F12807BD4680BD80B582B000AF48F237
:10021000E633C1F6FF731B78002B09D048F20C10AF
:10022000C1F6FF704FF00501FFF78AFF0346FB712F
:1002300007F10807BD4680BD80B483B000AF034618
:10024000FB71FB79A3F1FC03032B0CD801A252F83C
:1002500023F000BF67020000670200006702000091
:1002600065020000FEE707F10C07BD4680BC704741
:1002700080B500AF48F2E830C1F6FF704FF00001E2
:100280004FF0500202F0A4FC48F23840C1F6FF7073
:100290004FF000014FF0500202F09AFC4FF00003C3
:1002A000184680BD80B586B000AFF860B960FA71BD
:1002B000BB714FF00003FB7503E0FB7D03F101030D
:1002C000FB75FA7D48F2E833C1F6FF734FEA02127C
:1002D00013441B68002B02D0FB7D042BEDD9FB7D62
:1002E000042B36D8FA7D48F2E833C1F6FF734FEAA3
:1002F00002121344FA681A60FB7D4FEA031248F2B7
:10030000E833C1F6FF73134403F104031846B968D8
:100310004FF0080202F0B4FDFB7D48F2E832C1F66E
:10032000FF724FEA430303F101034FEAC30313448F
:10033000FA795A71FB7D48F2E832C1F6FF724FEA52
:10034000430303F101034FEAC3031344BA791A715B
:1003500002E04FF00103FB75FB7D184607F118071B
:10036000BD4680BD80B582B000AF4FF000033B7149
:1003700032E03A7948F2E833C1F6FF734FEA0212ED
:1003800013441B681B787B713B7948F2E832C1F655
:10039000FF724FEA430303F101034FEAC30313441F
:1003A0005B797A799A420FD33B7948F2E832C1F609
:1003B000FF724FEA430303F101034FEAC3031344FF
:1003C0001B797A799A4203D94FF0FE00FFF734FF88
:1003D0003B7903F101033B713A7948F2E833C1F606
:1003E000FF734FEA021213441B68002B37D03B798E
:1003F000042BBED934E03A7948F23843C1F6FF7392
:100400004FEA021213441B681B88FB803B7948F2B9
:100410003842C1F6FF724FEA430303F101034FEA8A
:10042000C3031344DB88FA889A420FD33B7948F21E
:100430003842C1F6FF724FEA430303F101034FEA6A
:10044000C30313449B88FA889A4203D94FF0FE00F5
:10045000FFF7F2FE3B7903F101033B7100E000BFBF
:100460003A7948F23843C1F6FF734FEA0212134457
:100470001B68002B02D03B79042BBCD94FF0000342
:10048000184607F10807BD4680BD00BF80B400AF25
:1004900048F28943C1F6FF731B7803F10103DAB216
:1004A00048F28943C1F6FF731A70BD4680BC70479D
:1004B00080B500AF48F28A43C1F6FF734FF00002E7
:1004C0001A7048F28843C1F6FF734FF000021A70A9
:1004D00001F0B6FB80BD00BF80B582B000AF48F22E
:1004E0008940C1F6FF7042F67C71C0F200014FF006
:1004F00000024FF02003FFF7D5FE0346BB7148F220
:100500008A40C1F6FF7042F68471C0F200014FF0DC
:1005100000024FF02003FFF7C5FE0346FB7148F2CF
:100520008943C1F6FF734FF000021A7001F0E6FA3A
:1005300001F044FE01F0EAFD40F28D40C0F20000FF
:1005400001F054FE40F2B140C0F2000001F0F6FDAF
:1005500001F074FE01F01AFE01F072FB01F0DCFB09
:100560004FF00003184607F10807BD4680BD00BFE5
:1005700080B400AF48F28943C1F6FF731B78184678
:10058000BD4680BC704700BF80B582B000AF01F0AF
:100590006FFB0346FB7148F28943C1F6FF731B787A
:1005A00003F1FF33DAB248F28943C1F6FF731A70E0
:1005B000FB79184607F10807BD4680BD80B582B0BB
:1005C00000AF78600B46FB7001F046FB48F28843B1
:1005D000C1F6FF734FF001021A7048F28A43C1F668
:1005E000FF731A78FB781344DAB248F28A43C1F6F3
:1005F000FF731A70FB787868194601F0F5FB48F232
:100600008843C1F6FF734FF000021A704FF00003E9
:10061000184607F10807BD4680BD00BF80B584B00D
:1006200000AF78604FF0FF33FB734FF00003BB6007
:100630001DE048F28C43C1F6FF731A6813464FEA77
:10064000C303C2EB03034FEA830248F21413C1F65B
:10065000FF7313441846796802F024FB0346002B0D
:1006600001D1BB68FB73BB6803F10103BB60BB68CE
:10067000062BDED9FB7B184607F11007BD4680BD6F
:1006800080B582B000AF4FF00003FB7148F28C439D
:10069000C1F6FF73196848F21412C1F6FF720B46D7
:1006A0004FEAC303C1EB03034FEA8303134403F18F
:1006B00008031B78A3F102030E2B00F2458101A26F
:1006C00052F823F001070000490900005D0800000E
:1006D0004909000049090000490900008B08000091
:1006E00049090000490900004909000049090000C2
:1006F00049090000490900004909000015090000E6
:1007000048F28C43C1F6FF73196848F21412C1F61F
:10071000FF720B464FEAC303C1EB03034FEA8303A7
:10072000134403F110031B79002B2FD048F28C43A4
:10073000C1F6FF731A6813464FEAC303C2EB030303
:100740004FEA830303F1100248F21413C1F6FF735A
:10075000134403F104031846FFF760FF0346BB711F
:10076000B97948F21412C1F6FF720B464FEAC3037F
:10077000C1EB03034FEA8303134403F108031B781F
:10078000022B07D04FF00103FB7104E04FF001038F
:10079000FB7100E000BFFB79012B40F0D28048F2F2
:1007A0008C43C1F6FF73196848F21412C1F6FF7248
:1007B0000B464FEAC303C1EB03034FEA8303134421
:1007C00003F10C031B68002B31D048F28C43C1F6B7
:1007D000FF73196848F21412C1F6FF720B464FEA14
:1007E000C303C1EB03034FEA8303134403F10C0378
:1007F0001B68984703467B717B79002B40F0A380F0
:1008000048F28C43C1F6FF73196848F21412C1F61E
:10081000FF720B464FEAC303C1EB03034FEA8303A6
:10082000134403F108034FF004021A708CE048F2FD
:100830008C43C1F6FF73196848F21412C1F6FF72B7
:100840000B464FEAC303C1EB03034FEA8303134490
:1008500003F108034FF004021A7075E048F28C436C
:10086000C1F6FF73196848F21412C1F6FF720B4605
:100870004FEAC303C1EB03034FEA8303134403F1BD
:1008800008034FF008021A705EE048F28C43C1F68C
:10089000FF73196848F21412C1F6FF720B464FEA53
:1008A000C303C1EB03034FEA8303134403F11003B3
:1008B0001B68002B17D048F28C43C1F6FF731968F0
:1008C00048F21412C1F6FF720B464FEAC303C1EBA4
:1008D00003034FEA8303134403F110031B68984793
:1008E00003467B7130E048F28C43C1F6FF73196810
:1008F00048F21412C1F6FF720B464FEAC303C1EB74
:1009000003034FEA8303134403F108034FF020026B
:100910001A7019E048F28C43C1F6FF73196848F267
:100920001412C1F6FF720B464FEAC303C1EB030377
:100930004FEA8303134403F108034FF008021A70CF
:1009400002E000BF00E000BF48F28C43C1F6FF7335
:100950001B6803F1010248F28C43C1F6FF731A6071
:1009600048F28C43C1F6FF731B68072B06D948F287
:100970008C43C1F6FF734FF000021A6007F10807BD
:10098000BD4680BD80B500AF48F69403C1F6FF7345
:100990001B7883F00103DAB248F69403C1F6FF73C3
:1009A0001A7048F69403C1F6FF731B78184601F0DD
:1009B00015FD80BD80B582B002AF4FF001030093FA
:1009C0004FF0000044F24021C0F20F0140F68512C2
:1009D000C0F200024FF0020300F066F84FF001038E
:1009E00000934FF0010044F24021C0F20F0140F2A9
:1009F0000922C0F200024FF0020300F055F84FF058
:100A000000031846BD4680BD80B483B000AF4FF0F0
:100A10000003FB71FB79184607F10C07BD4680BC4B
:100A2000704700BF80B400AF48F69803C1F6FF736B
:100A30004FF001021A70BD4680BC704780B500AF10
:100A400048F60013C1F6FF734FF000021A6048F633
:100A50000013C1F6FF731A6848F6FC03C1F6FF7372
:100A60001A6048F69C00C1F6FF704FF000014FF08D
:100A7000600202F0ADF801F09DFA40F62520C0F2C8
:100A8000000001F0E3FC01F0C9FC4CF60020C3F6C5
:100A90009A3001F0F1FA01F0BDFA01F0E7FB4FF0F6
:100AA0000003184680BD00BF80B485B000AFB960B8
:100AB0007A600246FA73FB70FA7B48F69C03C1F633
:100AC000FF734FEA021213444FF000021A60FA7BE0
:100AD00048F69C03C1F6FF734FEA0212134403F178
:100AE0000403BA681A60FA7B48F69C03C1F6FF73E8
:100AF0004FEA420202F10102796843F83210FB7BAF
:100B000048F69C02C1F6FF724FEA430303F101036A
:100B10004FEAC3031344FA781A71FB7B48F69C0230
:100B2000C1F6FF724FEA430303F101034FEAC30327
:100B300013443A7E5A7107F11407BD4680BC7047D2
:100B400080B582B000AF01F0C3FA03466FEA03023A
:100B500048F6FC03C1F6FF731A6048F2D813C1F6D9
:100B6000FF731B78002B13D048F6FC03C1F6FF730C
:100B70001A6848F60013C1F6FF731A6048F2D813DA
:100B8000C1F6FF734FF000021A704FF00003C5E08A
:100B900048F69803C1F6FF731B78012B19D148F66C
:100BA000FC03C1F6FF731A6848F60013C1F6FF7321
:100BB0001B68C3EB02024CF60023C3F69A331344BE
:100BC0007B6048F69803C1F6FF734FF000021A707D
:100BD0000CE048F6FC03C1F6FF731A6848F60013F0
:100BE000C1F6FF731B68C3EB02037B6048F6FC038E
:100BF000C1F6FF731A6848F60013C1F6FF731A6056
:100C00004FF00003FB7083E0FB7848F69C02C1F6CE
:100C1000FF724FEA430303F101034FEAC303134496
:100C20005B79012B70D1F978FA7848F69C03C1F60C
:100C3000FF734FEA021213441A687B681A4448F69D
:100C40009C03C1F6FF734FEA01110B441A60FA7856
:100C500048F69C03C1F6FF734FEA021213441A6868
:100C6000F97848F69C03C1F6FF734FEA01110B4473
:100C700003F104031B689A4246D3FA7848F69C03B2
:100C8000C1F6FF734FEA420202F1010253F832301B
:100C9000002B0CD0FA7848F69C03C1F6FF734FEA9C
:100CA000420202F1010253F83230984703E04FF05C
:100CB000FD00FFF7C1FAFB7848F69C02C1F6FF720F
:100CC0004FEA430303F101034FEAC30313441B79C3
:100CD000022B0ED0FB7848F69C02C1F6FF724FEA59
:100CE000430303F101034FEAC30313444FF000022F
:100CF0005A71FA7848F69C03C1F6FF734FEA021264
:100D000013444FF000021A60FB7803F10103FB70FB
:100D1000FB78052B7FF678AF4FF00003184607F1FC
:100D20000807BD4680BD00BF80B500AF48F604107F
:100D3000C1F6FF704FF000014FF0280201F048FFAC
:100D40004FF00003184680BD80B584B000AF7860D6
:100D50000B467B804FF00003FB737B68002B00F099
:100D6000AE807B88012B40F2AA809DE0F97B48F69B
:100D70000412C1F6FF720B464FEA83030B444FEA9D
:100D80008303134403F104031B68002B40F08880A5
:100D9000F97B48F60412C1F6FF720B464FEA830353
:100DA0000B444FEA8303134403F104037A681A6087
:100DB000F97B48F60412C1F6FF720B464FEA830333
:100DC0000B444FEA8303134403F108037A881A8023
:100DD000F97B48F60412C1F6FF720B464FEA830313
:100DE0000B444FEA8303134403F108034FF000025E
:100DF0005A80F97B48F60412C1F6FF720B464FEA9F
:100E000083030B444FEA8303134403F108034FF0B9
:100E100000029A80F97B48F60412C1F6FF720B4675
:100E20004FEA83030B444FEA8303134403F108039F
:100E30004FF000029A71F97B48F60412C1F6FF7276
:100E40000B464FEA83030B444FEA8303134403F139
:100E500010034FF000021A80F97B48F60412C1F625
:100E6000FF720B464FEA83030B444FEA830313449C
:100E700003F104031868F97B48F60412C1F6FF7207
:100E80000B464FEA83030B444FEA8303134403F1F9
:100E900008031B884FF000011A4601F099FE07E095
:100EA000FB7B03F10103FB73FB7B012B7FF65EAF42
:100EB000FB7B022B07D16FF00203FB7304E06FF0A2
:100EC0000103FB7300E000BFFB7B184607F110072E
:100ED000BD4680BD80B584B000AF02460B46FA71B6
:100EE000BB71F97948F60412C1F6FF720B464FEA5E
:100EF00083030B444FEA8303134403F10803588828
:100F0000F97948F60412C1F6FF720B464FEA8303E3
:100F10000B444FEA8303134403F108039B88984270
:100F20002CD1F97948F60412C1F6FF720B464FEA4C
:100F300083030B444FEA8303134403F108039B79B3
:100F4000002B14D1F97948F60412C1F6FF720B4652
:100F50004FEA83030B444FEA8303134403F108036E
:100F60004FF001029A714FF00003FB730CE0FB7924
:100F7000184600F0EFFB0346FB7305E0FB791846CB
:100F800000F0E8FB0346FB73FB7B002B20D1F979D3
:100F900048F60412C1F6FF720B464FEA83030B4476
:100FA0004FEA8303134403F104031868F97948F600
:100FB0000412C1F6FF720B464FEA83030B444FEA5B
:100FC0008303134403F108035B880344BA791A705E
:100FD000FB7B184607F11007BD4680BD80B584B085
:100FE00000AF03463960FB71F97948F60412C1F687
:100FF000FF720B464FEA83030B444FEA830313440B
:1010000003F108039888F97948F60412C1F6FF72D3
:101010000B464FEA83030B444FEA8303134403F167
:1010200008035B88984229D1F97948F60412C1F681
:10103000FF720B464FEA83030B444FEA83031344CA
:1010400003F108039B79012B14D1F97948F60412B6
:10105000C1F6FF720B464FEA83030B444FEA83034A
:10106000134403F108034FF000029A714FF000039C
:10107000FB7306E04FF00103FB7302E04FF0000347
:10108000FB73FB7B002B71D1F97948F60412C1F692
:10109000FF720B464FEA83030B444FEA830313446A
:1010A00003F104031868F97948F60412C1F6FF72D7
:1010B0000B464FEA83030B444FEA8303134403F1C7
:1010C00008035B8803441A783B681A70F97948F67C
:1010D0000412C1F6FF720B464FEA83030B444FEA3A
:1010E0008303134403F104031868F97948F60412E2
:1010F000C1F6FF720B464FEA83030B444FEA8303AA
:10110000134403F108035B8803444FF000021A7094
:10111000F97948F60412C1F6FF720B464FEA8303D1
:101120000B444FEA8303134403F108039888F979C9
:1011300048F60412C1F6FF720B464FEA83030B44D4
:101140004FEA8303134403F108035B8898420DD0F0
:10115000FB79184600F06EFB0346002B03D14FF0DD
:101160000003FB7302E04FF0FF33FB73FB7B184679
:1011700007F11007BD4680BD80B584B000AF0346BF
:101180003960FB71F97948F60412C1F6FF720B461B
:101190004FEA83030B444FEA8303134403F108032C
:1011A0009888F97948F60412C1F6FF720B464FEAA7
:1011B00083030B444FEA8303134403F108035B8862
:1011C000984229D1F97948F60412C1F6FF720B460C
:1011D0004FEA83030B444FEA8303134403F10803EC
:1011E0009B79012B14D1F97948F60412C1F6FF72EC
:1011F0000B464FEA83030B444FEA8303134403F186
:1012000008034FF000029A714FF00003FB7306E0F1
:101210004FF00103FB7302E04FF00003FB73FB7B15
:10122000002B71D1F97948F60412C1F6FF720B4612
:101230004FEA83030B444FEA8303134403F104038F
:101240001868F97948F60412C1F6FF720B464FEAA6
:1012500083030B444FEA8303134403F108039B8881
:1012600003441A783B681A70F97948F60412C1F6FB
:10127000FF720B464FEA83030B444FEA8303134488
:1012800003F104031868F97948F60412C1F6FF72F5
:101290000B464FEA83030B444FEA8303134403F1E5
:1012A00008039B8803444FF000021A70F97948F64E
:1012B0000412C1F6FF720B464FEA83030B444FEA58
:1012C0008303134403F108039888F97948F604125C
:1012D000C1F6FF720B464FEA83030B444FEA8303C8
:1012E000134403F108035B8898420DD0FB7918463C
:1012F00000F028FB0346002B03D14FF00003FB73E3
:1013000002E04FF0FF33FB73FB7B184607F1100739
:10131000BD4680BD80B588B000AFB96013460246B7
:10132000FA73FB714FF00003BB61FB7B184600F0C2
:1013300051F90346FB83F97B48F60412C1F6FF72AC
:101340000B464FEA83030B444FEA8303134403F134
:1013500008031B881A46FB8BC3EB0202FB7903F1DF
:1013600002039A4202DA4FF0010383E0FA7BFB7931
:1013700010461946FFF7AEFD0346002B76D10FE06D
:10138000BA69BB6813441B78FA7B10461946FFF70D
:10139000A1FD0346002B08D1BB6903F10103BB612A
:1013A000FA79BB699A42EBDC00E000BFFA79BB69CD
:1013B0009A4257D1FA7BFB7910461946FFF78AFD0E
:1013C0000346002B37D1FA7B48F60411C1F6FF71B2
:1013D00013464FEA830313444FEA83030B4403F19C
:1013E00010031B8803F1010398B248F60411C1F6FB
:1013F000FF7113464FEA830313444FEA83030B4400
:1014000003F1100302461A804FF00003FB7530E031
:10141000FA7B07F1160310461946FFF7DFFD034676
:10142000012B04D14FF0FF33FB7500BF21E0BB69F6
:1014300003F1FF33BB61BB69002BE9DA19E0FA7BEA
:1014400007F1160310461946FFF7C8FD0346012BA6
:1014500004D14FF0FF33FB7500BF0AE0BB6903F115
:10146000FF33BB61BB69002BE9DA02E04FF00103F7
:10147000FB75FB7D184607F12007BD4680BD00BF08
:1014800080B586B000AF0346B9607A60FB734FF059
:1014900000037B61FB7B18467968FFF76DFE03460E
:1014A000002B75D17B681B78002B68D017E07A6918
:1014B000BB681344FA7B10461946FFF75DFE0346EE
:1014C000002B04D17B6903F101037B6107E07B689A
:1014D0004FF000021A704FF0FF33FB7405E07B6899
:1014E0001B781A467B699A42E1DC7B681B781A46B6
:1014F0007B699A423BD1FA7B07F1120310461946E9
:10150000FFF73AFE0346002B41D17B681A78BB7C7B
:101510009A4224D1FA7B48F60411C1F6FF711346B2
:101520004FEA830313444FEA83030B4403F1100390
:101530001B8803F1FF3398B248F60411C1F6FF711E
:1015400013464FEA830313444FEA83030B4403F12A
:10155000100302461A804FF00003FB7418E07B680A
:101560004FF000021A704FF0FF33FB7410E07B68FD
:101570004FF000021A704FF0FF33FB7408E07B68F5
:101580004FF000021A706FF00303FB7400E000BF1D
:10159000FB7C184607F11807BD4680BD80B483B0B8
:1015A00000AF0346FB71F97948F60412C1F6FF72E9
:1015B0000B464FEA83030B444FEA8303134403F1C2
:1015C00010031B88DBB2184607F10C07BD4680BC30
:1015D000704700BF80B485B000AF0346FB71F97956
:1015E00048F60412C1F6FF720B464FEA83030B4420
:1015F0004FEA8303134403F108035888F97948F646
:101600000412C1F6FF720B464FEA83030B444FEA04
:101610008303134403F108039B88984203D14FF0DE
:101620000003FB7379E0F97948F60412C1F6FF7202
:101630000B464FEA83030B444FEA8303134403F141
:1016400008035888F97948F60412C1F6FF720B4670
:101650004FEA83030B444FEA8303134403F1080367
:101660009B88984223D9F97948F60412C1F6FF7293
:101670000B464FEA83030B444FEA8303134403F101
:1016800008035B88D8B2F97948F60412C1F6FF72F4
:101690000B464FEA83030B444FEA8303134403F1E1
:1016A00008039B88DBB2C3EB0003FB7335E0F979D9
:1016B00048F60412C1F6FF720B464FEA83030B444F
:1016C0004FEA8303134403F108035B88D8B2F97926
:1016D00048F60412C1F6FF720B464FEA83030B442F
:1016E0004FEA8303134403F108031B885FFA83FC6A
:1016F000F97948F60412C1F6FF720B464FEA8303EC
:101700000B444FEA8303134403F108039B88DBB2C5
:10171000C3EB0C03DBB20344FB73F97948F6041204
:10172000C1F6FF720B464FEA83030B444FEA830373
:10173000134403F108039B79012B03D1FB7B03F1D5
:101740000103FB73FB7B184607F11407BD4680BC01
:10175000704700BF80B485B000AF0346FB71F979D4
:1017600048F60412C1F6FF720B464FEA83030B449E
:101770004FEA8303134403F108035B8803F1010379
:10178000FB81F889F97948F60412C1F6FF720B461D
:101790004FEA83030B444FEA8303134403F1080326
:1017A0001B8803F1FF33984202DD4FF00003FB81F9
:1017B000F97948F60412C1F6FF720B464FEA83032B
:1017C0000B444FEA8303134403F108039B88FA890F
:1017D0009A4214D1F97948F60412C1F6FF720B4609
:1017E0004FEA83030B444FEA8303134403F10803D6
:1017F0009B88012B03D14FF001037B7312E0F97931
:1018000048F60412C1F6FF720B464FEA83030B44FD
:101810004FEA8303134403F10803FA895A804FF017
:1018200000037B737B7B184607F11407BD4680BC21
:10183000704700BF80B485B000AF0346FB71F979F3
:1018400048F60412C1F6FF720B464FEA83030B44BD
:101850004FEA8303134403F108035888F97948F6E3
:101860000412C1F6FF720B464FEA83030B444FEAA2
:101870008303134403F108039B88984203D14FF07C
:101880000103FB7357E0F97948F60412C1F6FF72C1
:101890000B464FEA83030B444FEA8303134403F1DF
:1018A00008035B88002B22D1F979F87948F60412F5
:1018B000C1F6FF7203464FEA830303444FEA8303F2
:1018C000134403F108031B8803F1FF3398B248F671
:1018D0000412C1F6FF720B464FEA83030B444FEA32
:1018E0008303134403F1080302465A8020E0FA7987
:1018F00048F60411C1F6FF7113464FEA83031344FF
:101900004FEA83030B4403F108035B8803F1FF33C1
:1019100098B248F60411C1F6FF7113464FEA8303EB
:1019200013444FEA83030B4403F1080302465A8031
:101930004FF00003FB73FB7B184607F11407BD460D
:1019400080BC704780B485B000AF0346FB714FF098
:1019500001037B73F97948F60412C1F6FF720B4656
:101960004FEA83030B444FEA8303134403F1080354
:101970009B8803F10103FB81F97948F60412C1F653
:10198000FF720B464FEA83030B444FEA8303134471
:1019900003F108039888F97948F60412C1F6FF723A
:1019A0000B464FEA83030B444FEA8303134403F1CE
:1019B00008035B88984229D0F889F97948F604121F
:1019C000C1F6FF720B464FEA83030B444FEA8303D1
:1019D000134403F108031B8803F1FF33984202DD2F
:1019E0004FF00003FB81F97948F60412C1F6FF724B
:1019F0000B464FEA83030B444FEA8303134403F17E
:101A00000803FA899A804FF000037B737B7B1846AA
:101A100007F11407BD4680BC704700BF80B400AF1B
:101A2000FEE700BF054B1C7844F001041C70044B1A
:101A30001A78D2B2034B1A70FEF7EAFAE846004071
:101A4000F8460040BC76004080B582B000AF4EF64C
:101A50000C53CEF2000340F20042C0F2FA521A6078
:101A60004EF61453CEF200034EF61452CEF200029C
:101A7000126842F400721A604FF000037B6019E0B4
:101A800079687B68032B07D87A6840F20003C0F2BC
:101A9000000353F8223003E041F61D23C0F2000397
:101AA00048F20002C1F6FF7242F821307B6803F170
:101AB00001037B607B682F2BE2D947F2BC63C4F241
:101AC00000031B78DAB248F67413C1F6FF731A707C
:101AD0004EF60853CEF2000348F20002C1F6FF7240
:101AE0001A6000F07BFE48F20013C1F6FF734FF05E
:101AF00000021A6007F10807BD4680BD80B500AF3F
:101B000048F62C13C1F6FF731B78002B08D100F0A8
:101B10000BF848F62C13C1F6FF734FF001021A7050
:101B200000F044F880BD00BF80B500AF4FF0030067
:101B300041F63161C0F2000100F0FAFB4FF0030002
:101B40004FF0070100F024FC46F28F43C4F200037B
:101B50004FF072021A7046F28C43C4F200034FF049
:101B600020021A704FF0040041F61D71C0F200010E
:101B700000F0DEFB4FF004004FF0070100F008FC1E
:101B800046F22B43C4F200034FF007021A7046F2EC
:101B90003B43C4F200034FF048021A7046F28A43F6
:101BA000C4F200034FF002021A7080BD80B582B00B
:101BB00000AF00F0A9FB0346FB7146F29F43C4F25D
:101BC000000346F29F42C4F200021278D2B242F001
:101BD0002002D2B21A7046F29C43C4F2000346F2CD
:101BE0009C42C4F200021278D2B242F01002D2B289
:101BF0001A704EF20013CEF200034FF008021A6082
:101C000046F29A43C4F2000346F29A42C4F200023A
:101C10001278D2B242F01002D2B21A704EF2001311
:101C2000CEF200034FF010021A6000F041FBFB7986
:101C3000184600F06DFB07F10807BD4680BD00BFE8
:101C400080B400AF4EF20013CEF200034FF0080252
:101C50001A60BD4680BC704780B400AF4EF280135E
:101C6000CEF200034FF008021A60BD4680BC7047F8
:101C700080B582B000AFFFF7EFFF48F62F13C1F633
:101C8000FF731B78BB7148F63013C1F6FF731B78E6
:101C9000FB7148F63113C1F6FF731B78DBB2002BE2
:101CA00003D1BA79FB799A4226D0BA7948F634132F
:101CB000C1F6FF739B5C7B71BB7903F10103BB71C0
:101CC000BB791F2B02D94FF00003BB7148F62F13CD
:101CD000C1F6FF73BA791A7048F63113C1F6FF7373
:101CE0001B78DBB2002B0ED048F63113C1F6FF7320
:101CF0004FF000021A7007E046F24F43C4F20003AF
:101D00001B787B7100E000BFFFF79AFF7B791846D4
:101D100007F10807BD4680BD80B400AF4EF2001346
:101D2000CEF200034FF010021A60BD4680BC70472F
:101D300080B485B000AF0346FB7148F62E13C1F6A0
:101D4000FF731B78BB7348F62D13C1F6FF731B7826
:101D5000FB73BA7BFB7B9A4209D2BA7BFB7B03F114
:101D6000FF339A4214BF00230123DBB208E0BA7BA1
:101D7000FB7BC3EB02031F2B14BF00230123DBB249
:101D8000002BDAD1FA7BBB7B9A4210D146F26A4330
:101D9000C4F200031B78DBB203F00403002B06D16E
:101DA00046F24A43C4F20003FA791A7016E0BB7B8C
:101DB0001F2B02D94FF00003BB73BA7B48F65413B4
:101DC000C1F6FF73F9799954BB7B03F10103BB732F
:101DD00048F62E13C1F6FF73BA7B1A7007F1140789
:101DE000BD4680BC704700BF80B584B000AF78604E
:101DF0000B46FB704FF00003FB7348F62C13C1F643
:101E0000FF731B78002B0ED0FA7B7B6813441B7882
:101E10001846FFF78DFFFB7B03F10103FB73FA7B91
:101E2000FB789A42F0D307F11007BD4680BD00BF92
:101E300080B483B000AF4FF00003FB7146F26C43F7
:101E4000C4F200031B78BB715EE048F63013C1F6A4
:101E5000FF731B78DBB21A4646F24F43C4F200030D
:101E60001B78D9B248F63413C1F6FF7399544FF07A
:101E70000103FB71FB79002B40D048F63113C1F60A
:101E8000FF731B78DBB2002B06D048F63213C1F685
:101E9000FF734FF001021A7048F63013C1F6FF735A
:101EA0001B78DBB203F10103DAB248F63013C1F656
:101EB000FF731A7048F63013C1F6FF731B78DBB25C
:101EC0001F2B06D948F63013C1F6FF734FF00002FE
:101ED0001A7048F63013C1F6FF731B78DAB248F671
:101EE0002F13C1F6FF731B78DBB29A4206D148F676
:101EF0003113C1F6FF734FF001021A7046F26C43C2
:101F0000C4F200031B78BB71BB7903F02003002BE4
:101F10009BD107F10C07BD4680BC704780B400AF71
:101F20002EE048F62D13C1F6FF731B78DBB21F2B92
:101F300006D948F62D13C1F6FF734FF000021A7050
:101F400046F24A43C4F2000348F62D12C1F6FF726E
:101F50001278D2B2114648F65412C1F6FF72525CA2
:101F6000D2B21A7048F62D13C1F6FF731B78DBB29C
:101F700003F10103DAB248F62D13C1F6FF731A70AC
:101F800048F62D13C1F6FF731B78DAB248F62E130C
:101F9000C1F6FF731B789A4209D046F26A43C4F235
:101FA00000031B78DBB203F00403002BB9D0BD465D
:101FB00080BC704780B582B000AF4CF6FF10C3F60E
:101FC0009A3000F059F84CF6FF10C3F69A3000F042
:101FD0006FF800F099F90346FB7146F29753C4F28B
:101FE000000346F29752C4F200021278D2B242F0D5
:101FF0001002D2B21A70FB79184600F089F900F08D
:1020000077F84FF0010000F01BF807F10807BD4614
:1020100080BD00BF80B400AF46F27453C4F2000329
:1020200046F27452C4F200021278D2B26FEA4262EF
:102030006FEA5262D2B21A70BD4680BC704700BFD0
:1020400080B483B000AF0346FB7146F28753C4F2FD
:102050000003FA791A7007F10C07BD4680BC70477F
:1020600080B400AF46F26753C4F200031B78DBB2C2
:102070001846BD4680BC704780B483B000AF78601E
:1020800046F22453C4F200037A681A6007F10C0781
:10209000BD4680BC704700BF80B400AF46F24453D9
:1020A000C4F200031B681846BD4680BC704700BFE1
:1020B00080B483B000AF786046F20453C4F20003EA
:1020C0007A681A6007F10C07BD4680BC704700BFF4
:1020D00080B400AF46F20453C4F200031B6846F21A
:1020E0004453C4F200031B681846BD4680BC7047C9
:1020F00080B500AF01E0FFF7CFFFFFF7B1FF034668
:1021000003F00803002BF6D180BD00BF80B500AFFF
:1021100000F048F842F23110C0F2000000F00EF872
:102120004FF0070000F01EF800F030F880BD00BF4F
:1021300080B400AFBD4680BC704700BF80B485B09E
:1021400000AF78604EF60853CEF200031B68FB60C8
:10215000FB6803F148037A681A6007F11407BD466B
:1021600080BC704780B483B000AF0346FB714EF271
:102170000243CEF20003FA794FEA4212D2B21A7049
:1021800007F10C07BD4680BC704700BF80B400AFAC
:102190004EF20013CEF200034FF004021A60BD4667
:1021A00080BC704780B400AF4EF28013CEF20003C3
:1021B0004FF004021A60BD4680BC704780B500AF86
:1021C00000F048F842F2E110C0F2000000F00EF812
:1021D0004FF0070000F01EF800F030F880BD00BF9F
:1021E00080B400AFBD4680BC704700BF80B485B0EE
:1021F00000AF78604EF60853CEF200031B68FB6018
:10220000FB6803F140037A681A6007F11407BD46C2
:1022100080BC704780B483B000AF0346FB714EF2C0
:102220000043CEF20003FA794FEA4212D2B21A709A
:1022300007F10C07BD4680BC704700BF80B400AFFB
:102240004EF20013CEF200034FF001021A60BD46B9
:1022500080BC704780B400AF4EF28013CEF2000312
:102260004FF001021A60BD4680BC704780B400AFD9
:1022700044F2A233C4F2000344F2A232C4F20002D8
:102280001278D2B242F00102D2B21A7044F2B233E2
:10229000C4F2000344F2B232C4F200021278D2B2A5
:1022A00042F00102D2B21A70BD4680BC704700BF36
:1022B00080B400AF44F2A233C4F2000344F2A2326D
:1022C000C4F200021278D2B242F00202D2B21A7004
:1022D00044F2B233C4F2000344F2B232C4F2000258
:1022E0001278D2B242F00202D2B21A70BD4680BC5D
:1022F000704700BF000000000230800803D000BF1C
:1023000001380046FCD17047EFF3108072B6704779
:1023100080F31088704700BF80B483B000AF0346DD
:10232000FB7101BE07F10C07BD4680BC704700BFC2
:1023300080B584B000AF03463960FB714EF6085398
:10234000CEF200031B68FB60FB791F2B03D94FF013
:102350000000FFF7E1FFFB7903F01F0303F1100317
:102360004FEA8302FB6813441B68BB60FB7903F0F0
:102370001F0303F110034FEA8302FB6813443A681A
:102380001A60BB68184607F11007BD4680BD00BF44
:1023900080B582B000AF02460B46FA71BB71BB79C3
:1023A000072B03D94FF00000FFF7B6FFFB791F2B77
:1023B00003D94FF00000FFF7AFFFFB7903F01F03D5
:1023C00003F1604303F56443BA794FEA4212D2B293
:1023D0001A7007F10807BD4680BD00BF80B485B004
:1023E00000AF0346FB7145F22013C4F200031B78D3
:1023F000DBB223F00103FB7345F22013C4F20003A8
:10240000FA7902F00102F97B42EA0102D2B21A70B3
:1024100007F11407BD4680BC704700BF80B500AF10
:1024200000F048F842F24140C0F2000000F00EF81F
:102430004FF0070000F01EF800F030F880BD00BF3C
:1024400080B400AFBD4680BC704700BF80B485B08B
:1024500000AF78604EF60853CEF200031B68FB60B5
:10246000FB6803F144037A681A6007F11407BD465C
:1024700080BC704780B483B000AF0346FB714EF25E
:102480000143CEF20003FA794FEA4212D2B21A7037
:1024900007F10C07BD4680BC704700BF80B400AF99
:1024A0004EF20013CEF200034FF002021A60BD4656
:1024B00080BC704780B400AF4EF28013CEF20003B0
:1024C0004FF002021A60BD4680BC704780B485B0F0
:1024D00000AF786039607B68BB604FF00003FB6041
:1024E00009E0BA68FB6813444FF000021A70FB68F9
:1024F00003F10103FB60FA683B689A42F1D307F1EC
:102500001407BD4680BC704780B489B000AFF86046
:10251000B9607A60FB687B61BB68BB614FF0000308
:10252000FB610BE07A69FB691344B969FA690A44F3
:1025300012781A70FB6903F10103FB61FA697B6889
:102540009A42EFD307F12407BD4680BC704700BF15
:1025500080B582B000AF7860396078684FF00001D4
:102560003A6800F035FB07F10807BD4680BD00BFA3
:1025700080B584B000AFF860B9607A60F868B96877
:102580007A6800F05DFA07F11007BD4680BD00BF14
:1025900080B487B000AF786039604FF00003FB6013
:1025A0004FF00003BB602CE0BB684FEA83027B68FE
:1025B00013441B683B613B69FB753B6923F0FF03D8
:1025C0003B6117E0FB684FEA43023B6813441B780A
:1025D0001A463B691344FA684FEA42013A680A44D2
:1025E00052781A70FB6803F10103FB60FB7D03F175
:1025F000FF33FB75FB7D002BE4D1BB6803F10103C6
:10260000BB60BB68182BCFD907F11C07BD4680BC47
:10261000704700BF80B500AF44F28003C4F20003EE
:102620004FF017021A8044F28203C4F200034FF005
:1026300018021A7044F28403C4F200034FF49C722F
:102640001A8044F28603C4F200034FF018021A7095
:1026500044F20033C4F200034FF002021A7044F255
:102660000003C4F200034FF008021A7044F2002382
:10267000C4F200034FF003021A7044F2A163C4F2E3
:10268000000340F20812C4F600121278D2B21A7097
:1026900044F22223C4F200034FF008021A8044F2ED
:1026A0002023C4F2000341F251021A8040F6B830F0
:1026B000FFF722FE44F20403C4F200034FF00302CA
:1026C0001A7044F20503C4F200034FF001021A70BD
:1026D00044F20403C4F200034FF000021A7044F203
:1026E0000403C4F200034FF007021A7044F2060319
:1026F000C4F200034FF000021A7044F20803C4F25F
:1027000000034FF048021A7044F20403C4F20003BD
:102710004FF000021A7044F20103C4F200034FF0BC
:1027200002021A7044F2A233C4F2000344F2A2324D
:10273000C4F200021278D2B242F00302D2B21A708E
:1027400080BD00BF80B400AF44F2AA33C4F20003DE
:102750004FF444721A8045F62003C4F200034FF090
:102760001E021A7045F62403C4F200034FF01E0245
:102770001A7045F62803C4F200034FF01E021A70C7
:1027800045F62C03C4F200034FF01E021A7045F602
:102790000013C4F200036FF03F021A7045F60313F2
:1027A000C4F200034FF00C021A7045F60813C4F28D
:1027B00000036FF03F021A7045F60B13C4F20003DA
:1027C0004FF00C021A7045F67603C4F200034FF086
:1027D00044021A70BD4680BC704700BF80B582B00D
:1027E00000AF72B644F60003C4F200034FF00002DB
:1027F0001A70FFF70FFF44F60003C4F200036FF0F6
:102800007F021A7047F21003C4F200034FF0000277
:102810001A7047F22003C4F200034FF000021A704E
:1028200045F67C03C4F200034FF001021A7044F233
:10283000E863C4F2000344F2E862C4F200021278D2
:10284000D2B242F00102D2B21A704FF00003FB7014
:102850002FE0FA7813464FEA430313444FEA430349
:102860001A4642F68C73C0F2000313447B607B6807
:102870001A7859784FEA012141EA020299784FEA21
:10288000014141EA0202DB784FEA036343EA0203B3
:102890001A467B6819795B794FEA032343EA0103FF
:1028A0009BB210461946FFF753FEFB7803F1010374
:1028B000FB70FB78072BCCD94FF0904040F26401BD
:1028C000C4F60001FFF764FE45F20020C4F20000E8
:1028D00040F28441C4F600014FF00702FFF714FEF6
:1028E00045F20820C4F200004FF00701FFF7EEFDAB
:1028F00045F21020C4F200004FF00701FFF7E6FD9B
:1029000045F21820C4F200004FF00701FFF7DEFD8A
:1029100045F22020C4F200004FF00701FFF7D6FD7A
:1029200045F22820C4F200004FF00701FFF7CEFD6A
:1029300045F23020C4F200004FF00701FFF7C6FD5A
:1029400045F26020C4F200004FF00601FFF7BEFD23
:1029500045F27820C4F200004FF00701FFF7B6FD02
:1029600045F20303C4F2010345F20302C4F201027B
:102970001278D2B242F00202D2B21A7045F21303B8
:10298000C4F2010345F21302C4F201021278D2B27A
:1029900042F00202D2B21A7044F2A033C4F2000331
:1029A00044F2A032C4F200021278D2B242F04002E5
:1029B000D2B21A7044F2C233C4F2000344F2C232FB
:1029C000C4F200021278D2B242F01002D2B21A70EF
:1029D00045F20010C4F2000040F27041C4F600015C
:1029E0004FF00A02FFF7C4FD45F22210C4F20000C6
:1029F00040F27C41C4F600014FF00802FFF7B8FD39
:102A0000FFF7A0FE44F2B030C4F2000044F2A0315F
:102A1000C4F200014FF00C02FFF7AAFD44F2B033FC
:102A2000C4F2000344F2B032C4F200021278D2B20F
:102A300002F0FD021A7007F10807BD4680BD00BF15
:102A4000032A2DE9F0070BD83AB1002311F803C08F
:102A500000F803C001339342F8D1BDE8F007704796
:102A600082180C46034603E014F8011C03F8011C0D
:102A700003F003061946A44601330134002EF3D1B6
:102A80001CF00304634608BFC1EB020C68D065422A
:102A9000C4F1040A0CEB050733464FEACA0A5CF896
:102AA00005604FEAC408551A08E057F8044F264657
:102AB00004FA0AF449EA0404CC5004335C18032DE8
:102AC00026FA08F9A5F104050CEB0306EDDC00235A
:102AD00002E0F15CE154013319199142F9D3BCE7EA
:102AE00053F8404C41F8404C53F83C4C41F83C4CB6
:102AF00053F8384C41F8384C53F8344C41F8344CC6
:102B000053F8304C41F8304C53F82C4C41F82C4CD5
:102B100053F8284C41F8284C53F8244C41F8244CE5
:102B200053F8204C41F8204C53F81C4C41F81C4CF5
:102B300053F8184C41F8184C53F8144C41F8144C05
:102B400053F8104C41F8104C53F80C4C41F80C4C15
:102B500053F8084C41F8084C53F8044C41F8044C25
:102B60001C460D4640334031BCF13F0FACF1400CE8
:102B7000B6DC21462B46541B0FE051F8105C43F89D
:102B8000105C51F80C5C43F80C5C51F8085C43F89D
:102B9000085C51F8045C43F8045C0F2C0D469C461D
:102BA00001F1100103F11003A4F11004E5DCCCEBFA
:102BB0000201002303E0EC584CF8034004335E1993
:102BC000032903EB0C04A1F10401F4DC7FE700BF4F
:102BD000032AC9B230B407D822B10023C15401334B
:102BE0009342FBD130BC704700EB020C034601E07E
:102BF00003F8011C03F003041A460133002CF7D13B
:102C00004FF00133C2EB0C0403FB01F31FE042F869
:102C1000403C42F83C3C42F8383C42F8343C42F8F4
:102C2000303C42F82C3C42F8283C42F8243C42F824
:102C3000203C42F81C3C42F8183C42F8143C42F854
:102C4000103C42F80C3C42F8083C42F8043C154663
:102C500040323F2CA4F14004D9DC2A46C5EB0C04D9
:102C600007E042F8103C42F80C3C42F8083C42F8BD
:102C7000043C154610320F2CA4F11004F1DC2A4656
:102C8000C5EB0C0501E042F8043C14460432032D68
:102C9000A5F10405F7DC01E004F8011B6445FBD352
:102CA000A0E700BF80EA010212F0030F3AD110F052
:102CB000030220F0030021F0030150F804CB08BF09
:102CC00051F8043B0DD082F003024FEAC2026FF0CC
:102CD0007F4323FA02F251F8043B4CEA020C43EA28
:102CE000020300BFACF101329C4501BF22EA0C0295
:102CF00012F0803F50F804CB51F8043BF2D04FEA79
:102D00000C604FEA1C2C012828BFB0EB036F08BFF2
:102D10001B0AF4D003F0FF034FEA1060A0EB03009E
:102D2000704700BF10F0030F0AD010F8012B11F804
:102D3000013B012A28BF9A42F4D0A2EB030070475E
:102D40004DF8045D4DF8044D4FF0010242EA0222B5
:102D500042EA024201F0030C21F0030150F8044B57
:102D600051F8045BBCF1020F26D04BD824F07F4C05
:102D7000BCEB152FA4EB020323EA04030DD113EAE5
:102D8000C21308BF51F8045B0AD18CEA040CBCEBF7
:102D9000056F0CD150F8044BE8E74FEA15255CE0CD
:102DA00033F07F4352D10D784FEA146C55E04FEA6F
:102DB000146C05F0FF0550E04FEA044CA4EB02034D
:102DC0004FEA1C4C23EA0403BCEB154F17D113EA5E
:102DD000C21308BF51F8045B07D18CEA040CBCEBAA
:102DE000054F08D150F8044BE6E71B042ED10D889F
:102DF0004FEA144C31E04FEA05454FEA144C4FEAD4
:102E000015452AE004F0FF0CBCEB156FA4EB0203A0
:102E100023EA04030DD113EAC21308BF51F8045B7F
:102E20000AD18CEA040CBCEB052F0AD150F8044BF4
:102E3000E8E74FEA156510E014F0FF0F06D051F8EF
:102E4000045B4FEA142C25F07F4506E04FF00000AC
:102E50005DF8044B5DF8045B70470CF0FF0205F071
:102E6000FF00012828BF904204BF4FEA1C2C2D0A06
:102E7000F3D0A2EB00005DF8044B5DF8045B7047F3
:102E800041EA000313F0030F14BF00230123032AB8
:102E900094BF002303F0010330B4002B2AD0044672
:102EA0000B68A3F1013C2CEA030C1CF0803F05D118
:102EB000043A0431032A44F8043BF1D82346BAB15A
:102EC0000D781C46013A04F8015B55B102337AB122
:102ED00011F8015F1C46013A03F8015C0133002D33
:102EE000F5D12AB100231946E15401339342FBD1B5
:102EF00030BC70470346E2E708B500F017F8074812
:102F000000B10068064901B109680022FDF7C6F862
:102F1000044B0BB1AFF30080FEE700BF00000000E0
:102F20000000000000000000FEE7000070B542F65F
:102F3000C87642F6C875C0F20006C0F20005761BDE
:102F4000B61006D0002455F8243001349847A64224
:102F5000F9D842F6C87542F6D076C0F20005C0F244
:102F60000006761B00F02AF8B61006D0002455F8AB
:0C2F7000243001349847A642F9D870BD07
:102F7C005278436F756E74005478436F756E74009D
:102F8C00105100401000305100404000C051004032
:102F9C001000F0510040100000000140001000141F
:102FAC000140000800400140000A004C01400002B2
:102FBC00F8B500BFF8BC08BC9E4670478100000005
:102FCC00491A0000F8B500BFF8BC08BC9E46704713
:102FDC006D00000000000000F82F00000881FF1FAA
:0C2FEC00D8000000980700000000000062
:102FF80000000000050607080900000045525200BD
:1030080000000000020000007102000065030000DB
:1030180000000000000000005242460000000000CE
:1030280002010000290D000000000000000000005F
:103038000000000048414C000000000002010000B0
:10304800D90400000000000000000000000000009B
:10305800544D520000000000020100003D0A00002B
:10306800410B0000000000000000000042504C002E
:103078000000000002020000F900000075010000D5
:1030880048414C000000000042414C000000000094
:1030980002020000D9000000E900000042504C0084
:1030A8000000000054535400000000000202000019
:1030B800B5090000090A0000544D52000000000044
:0830C8000100000000000000FF
:0400000300001A25BA
:00000001FF
