:1000000002039C008F828E83E0540100000070F890
:100010002278FFE4F6D8FD020459BB010689828AE2
:1000200083E0225002E722BBFE02E32289828A8318
:10003000E49322BB010689828A83F0225002F722D0
:10004000BBFE01F322BC000BBE0029EF8DF084FF44
:10005000ADF022E4CCF875F008EF2FFFEE33FEECA4
:1000600033FCEE9DEC984005FCEE9DFE0FD5F0E9CB
:10007000E4CEFD22EDF8F5F0EE8420D21CFEADF0CA
:1000800075F008EF2FFFED33FD4007985006D5F0CF
:10009000F222C398FD0FD5F0EA22C5F0F8A3E028BC
:1000A000F0C5F0F8E582158270021583E038F02281
:1000B000EF2BFFEE3AFEED39FDEC38FC22E88FF035
:1000C000A4CC8BF0A42CFCE98EF0A42CFC8AF0EDDF
:1000D000A42CFCEA8EF0A4CDA8F08BF0A42DCC3893
:1000E00025F0FDE98FF0A42CCD35F0FCEB8EF0A4CB
:1000F000FEA9F0EB8FF0A4CFC5F02ECD39FEE43C85
:10010000FCEAA42DCE35F0FDE43CFC2275F0087528
:100110008200EF2FFFEE33FECD33CDCC33CCC58242
:1001200033C5829BED9AEC99E58298400CF582EEFE
:100130009BFEED9AFDEC99FC0FD5F0D6E4CEFBE4E6
:10014000CDFAE4CCF9A88222B800C1B90059BA00AE
:100150002DEC8BF084CFCECDFCE5F0CBF97818EF09
:100160002FFFEE33FEED33FDEC33FCEB33FB10D70A
:1001700003994004EB99FB0FD8E5E4F9FA227818CB
:10018000EF2FFFEE33FEED33FDEC33FCC933C91026
:10019000D7059BE99A4007EC9BFCE99AF90FD8E058
:1001A000E4C9FAE4CCFB2275F010EF2FFFEE33FE2A
:1001B000ED33FDCC33CCC833C810D7079BEC9AE89D
:1001C00099400AED9BFDEC9AFCE899F80FD5F0DA1E
:1001D000E4CDFBE4CCFAE4C8F922EF4BFFEE4AFE93
:1001E000ED49FDEC48FC22E8600FECC313FCED1375
:1001F000FDEE13FEEF13FFD8F122E8600FEFC333DB
:10020000FFEE33FEED33FDEC33FCD8F122E0FCA32E
:10021000E0FDA3E0FEA3E0FF22E0F8A3E0F9A3E005
:10022000FAA3E0FB22ECF0A3EDF0A3EEF0A3EFF0D5
:1002300022E0FBA3E0FAA3E0F922EBF0A3EAF0A3AB
:10024000E9F022D083D082F8E493701274019370A5
:100250000DA3A393F8740193F5828883E473740269
:10026000936860EFA3A3A380DFE5092582F582E50B
:10027000083583F583B508048582092210AF068509
:100280008209F50822858209F508D2AF22EC8EF0AA
:10029000A4CCC5F0CCCDF8EFA4CEC5F02DFDE43C48
:1002A000FCE8A42EC8C5F03DFDE43CFCEFA4FFE54E
:1002B000F028FEE43DFDE43CFC22E709F608DFFA05
:1002C0008046E709F208DFFA803E88828C83E709DE
:1002D000F0A3DFFA8032E309F608DFFA806EE30963
:1002E000F208DFFA806688828C83E309F0A3DFFAE4
:1002F000805A89828A83E0A3F608DFFA804E8982D9
:100300008A83E0A3F208DFFA804280D280FA80C6B6
:1003100080D4805580F28029801080A680EA809A5F
:1003200080A880DA80E280CA802988848C858982CE
:100330008A83E493A30586F0A30586DFF5DEF380C8
:100340000B89828A83E493A3F608DFF9ECFAA9F01B
:10035000EDFB2288848C8589828A83E0A30586F060
:10036000A30586DFF6DEF480E389828A83E493A323
:10037000F208DFF980D688F0EF60010E4E60CD887C
:10038000F0ED2402B4040050C3F582EB2402B4045F
:100390000050B9232345822390030A737593007894
:1003A000007583467582E8E04401F0009046ECE079
:1003B000F99046FAE0FAB903225420B40012B800CA
:1003C0001AEA901FFFF07401901FFEF09046F6F0BD
:1003D000901FFEE06005901FFFE0FA90480074C097
:1003E000F07581099076BCE4F0A3F0A3F0A3F0903F
:1003F0007010F0907019F0907020F09076007410EA
:10040000F0907604E4F0A3F0A3F0A3F090780078E5
:1004100000087400F0A37408F0E8B8040274FFA3A5
:10042000F0A37422F0A374BCF0A37476F0A3E4F0FC
:10043000A3E81475F008A4F0A3B804D59070107464
:1004400001F0907014F07E707F181200049070100C
:10045000F0EA900059F002001175081F7509FD12AD
:1004600006140204A0020987E493A3F8E493A340CE
:1004700003F68001F208DFF48029E493A3F854071F
:10048000240CC8C333C4540F4420C8834004F4561A
:10049000800146F6DFE4800B010204081020408052
:1004A000900DB1E47E019360BCA3FF543F30E50999
:1004B000541FFEE493A360010ECF54C025E060A852
:1004C00040B8E493A3FAE493A3F8E493A3C8C582E5
:1004D000C8CAC583CAF0A3C8C582C8CAC583CADF53
:1004E000E9DEE780BE905120E0FFEF5480FFEFF09F
:1004F000905122E0FFEF54F0FF90012CEFF09001BB
:100500002CE0FFEF440FFF905122EFF0905123E0D9
:10051000FFEF54F0FF90012CEFF090012CE0FF90E2
:100520005123EFF0905124E0FFEF54F0FF90012CA5
:10053000EFF090012CE0FF905124EFF0905120E07B
:10054000FFEF54DFFFEFF0905120E0FFEF4440FF5A
:10055000EFF07F007E00120DE4905120E0FFEF44A9
:1005600010FFEFF07F017E00120DE4905121E0FFBB
:1005700090012CEFF0905120E0FFEF54EFFFEFF0EF
:100580007F007E00120DE490012CE0FFEF5408FF85
:1005900090012CEFF0905120E0FFEF4410FFEFF0BE
:1005A0007F017E00120DE4905120E0FFEF54EFFF39
:1005B000EFF090012CE0FFEF7098905120E0FFEFFA
:1005C00054BFFFEFF0905120E0FFEF5480FFEFF0B9
:1005D000905122E0FFEF54F0FFEFF0905123E0FF45
:1005E000EF54F0FF90012CEFF090012CE0FFEF446E
:1005F0000FFF905123EFF0905124E0FFEF54F0FFF4
:1006000090012CEFF090012CE0FFEF440FFF905190
:1006100024EFF0227B007A4679E8120F7DEF440543
:10062000FD7B007A4679E8120F8912081C7B017A5B
:10063000507903120F7DEF4402FD7B017A5079035C
:10064000120F897B017A507913120F7DEF4402FD5E
:100650007B017A507913120F899043A0E0FFEF4499
:1006600040FF9043A0EFF09043C2E0FFEF4410FF43
:100670009043C2EFF07B087A0779C0C003C002C084
:10068000017B007A51790290008C12023AD001D09D
:1006900002D0037F087E00120D7D7B087A0779C89F
:1006A000C003C002C0017B007A51792290008C12F5
:1006B000023AD001D002D0037F087E00120D7D9057
:1006C00044F47401F0904322E0FFEF4408FF9043AC
:1006D00022EFF09046ECE0FFEFC394055006904601
:1006E00089743AF090480074C0F0120727904800CF
:1006F0007480F0120D477B007A4379A0C003C002DA
:10070000C0017B007A4379B090008C12023AD0018C
:10071000D002D0037F0E7E00120D7D9043B0E0FF2B
:10072000EF54FDFFEFF0227B007A4079807D977CCB
:100730003A120F3B9040827419F09043007402F01B
:100740009040007408F09042007403F07B0C7A0132
:100750007908120F7D9046A1EFF07B007A42792252
:100760007D087C00120F3B7B007A4279207D517C12
:1007700010120F3B9000BFE4F07F197E007D007CDB
:10078000009000BB1202259000BB12020DD3EF9423
:1007900000EE9400404E9000BFE0FFEF6403604421
:1007A000904225E0FFEF5401FF7E009000BFE0FE85
:1007B000EE25E0FEEE4FFFEF5403FF9000BFEFF099
:1007C0007FE07E017D007C00120C009000BB1202D5
:1007D0000D7BFF7AFF79FF78FF1200B09000BB120B
:1007E000022580A37B007A4079047D007C01120FF2
:1007F0003B9040047407F0904006E4F09040087489
:1008000048F0904004E4F09040017402F09043A25C
:10081000E0FFEF4401FF9043A2EFF0227F007E0053
:100820007D007C009000D21202259076007410F0BA
:100830009070107401F0907019E4F07B027A78796E
:10084000007D507C01120F3D9078027401F0907889
:100850000374A3F07B027A787904C003C002C0015C
:100860007BFF7A0F79EBAC02AD01D001D002D0034F
:10087000120F3D7B027A7879067D087C78120F3D55
:100880007B027A7679047D107C00120F3D7B027A20
:100890007679067D007C00120F3D9070297409F076
:1008A000907039740DF09070697418F090707974CC
:1008B0001AF09070147401F0907018E0FFEF54017A
:1008C000FF7E00EF4E70F1907028E0FFEF5401FFC3
:1008D0007E00EF4E70F1907038E0FFEF5401FF7E24
:1008E00000EF4E70F1907068E0FFEF5401FF7E0062
:1008F000EF4E70F1907078E0FFEF5401FF7E00EF53
:100900004E70F1227F287E007D007C00120A647FF9
:1009100003120C4B7F057E007D007C00120A647F71
:1009200003120C4B7F0F7E007D007C00120A647F57
:1009300003120C4B7F017E007D007C00120A647F55
:1009400002120C4B7F057E007D007C00120A647F42
:1009500006120D117F0E120D117F2C120D117F0842
:10096000120D117F01120D117F0C120D117F031258
:100970000D117F057E007D007C00120A647BFF7AEA
:1009800011793B120C94227E0B7FC6120E3C120E84
:10099000D1120EBCD2AF9044F474FDF07F01120D61
:1009A000117D007F00120ACA7BFF7A0E79A7120B15
:1009B000787D0D7F00120ACA120FBA120E117D0047
:1009C0007F01120ACA120FC0120E117D067F01129A
:1009D0000ACA7BFF7A0E79B4120B787D037F01126D
:1009E0000ACA120F95120E117D0D7F01120ACA90CC
:1009F0000124E0FF120E1180E222906475E0FFEF07
:100A000054F8FF9000F4EFF09000F4E0FFEF4401A1
:100A1000FF906475EFF0906475E0FFEF54FCFF9079
:100A200000F4EFF09000F4E0FF906475EFF0120F27
:100A3000587F64120F1B7F64120F0B7F0C120EFB8A
:100A4000120FAE7F32120F2B120EE69000F5EFF070
:100A5000906495E0FFEF4410FFEFF09000F5E0FFA9
:100A6000120E792290FFFC1202691202258508837A
:100A700085098212020DD3EF9400EE9480402F90EE
:100A8000005A12020D120C00850883850982C0836A
:100A9000C08212020DEF2400FFEE3480FEED34FF21
:100AA000FDEC34FFFCD082D08312022580BF900081
:100AB0005012020D8508838509821202191200BDA9
:100AC000120C00900004120269229000F6EFF090E0
:100AD00000F7EDF09000F6E0FFEF1202430AED00A0
:100AE0000AFA010B07020B140300000B209000F719
:100AF000E0FFEF2480FF120D11229000F7E0FFEFDE
:100B000024C0FF120D11229000F7E0FFEF2494FFA4
:100B1000120D11229000F7E0FFEF24D4FF120D1107
:100B20002290012DEFF01204E5905120E0FFEF44F8
:100B300020FFEFF0905120E0FFEF54BFFFEFF09067
:100B40005120E0FFEF54F0FFEFF0905120C083C040
:100B500082E0FF90012DE0FEEE4410FEEF4EFFD04C
:100B600082D083EFF07F017E00120DE4905120E0EF
:100B7000FFEF54EFFFEFF0229000A212023A900034
:100B8000A57401F09000A212023112001AFF900029
:100B9000A6EFF09000A6E0FFEF602A9000A6E0FF2D
:100BA000120CDB9000A21202319000A5E0FFE92FA9
:100BB000F9E43AFA12001AFF9000A6EFF09000A5AF
:100BC000E004F080CE22C0E0C083C082C085C08433
:100BD000C086758600C093759300C0D075D000C0E4
:100BE00007906465E0FF900124E004F0D007D0D0C6
:100BF000D093D086D084D085D082D083D0E03232DA
:100C0000EC4D4E700D78FCEF24E950032840FD2296
:100C1000000078C5904800E0C403035403900C47DB
:100C20009325E0240FF404FBEF28FF78FFEE38FE55
:100C3000ED38FDEC38FC50D7EF2BFFEE38FEED38E9
:100C4000FDEC38FC40F2220502030490012EEFF087
:100C5000905120E0FFEF549FFFEFF0905120E0FF14
:100C6000EF54F0FFEFF0905120C083C082E0FF907E
:100C7000012EE0FEEE4410FEEF4EFFD082D083EF57
:100C8000F07F017E00120DE4905120E0FFEF54EF61
:100C9000FFEFF0229000CA12023A1204E57F4012E0
:100CA0000D119000CDE4F09000CDE0FFEFC3944033
:100CB00050209000CA1202319000CDE0FFE92FF9D8
:100CC000E43AFA12001AFF120CDB9000CDE004F0B7
:100CD00080D51204E57F80120D11229000F8EFF00C
:100CE0001204E59000F8E0FFEFC4540FFF9000F904
:100CF000EFF09000F9E0FF120B219000F8E0FFEF19
:100D0000540FFF9000F9EFF09000F9E0FF120B2173
:100D1000229000FAEFF01204E59000FAE0FFEFC431
:100D2000540FFF9000FBEFF09000FBE0FF120C4B24
:100D30009000FAE0FFEF540FFF9000FBEFF09000FF
:100D4000FBE0FF120C4B227B0C7A0179CF120F7D56
:100D500090013EEFF090013EE0FFEF5407FF905806
:100D60006EEFF090013EE0FFEFC4540FFFEF540F21
:100D7000FF90586FEFF09058767444F0227586001B
:100D8000EF4E6027EF60010E75930090008CE0F548
:100D900095A3E0F585A3E0F5848B938A838982E0AF
:100DA000A30586F0A31586DFF6DEF4E4F593F5954A
:100DB0002241012A004100FF004100FE004400558D
:100DC000016E360044005000005DC04100541844DC
:100DD000005A2EE000004300C0000000410147001F
:010DE0000012
:100DE400EEFA900054E0F88FF0A4FFAEF0E88AF039
:100DF400A42EFEE5F03400FDEF24C9FF78FFEE38A1
:100E0400FEED38FDE438FC5003020C002290012F63
:100E1400EFF090012FE0FFEFC4540FFFEF90117B30
:100E240093FF120F4A90012FE0FFEF540FFFEF9052
:100E3400117B93FF120F4A22900100EEF0A3EFF012
:100E4400120FA7900100E0FEA3E0FF120E5B7F07E4
:100E5400120E91120FA022900102EEF0A3EFF07B8C
:100E6400027A447900900102E0FEA3E0FFAD07ACF2
:100E740006120F3D22EF54016004D2AF8002C2AFCC
:100E8400EF5402FF9044F4E054FD4FF022900130FF
:100E9400EFF0900130E0FFEFC43354E0FF90448062
:100EA400EFF022434F554E5445522044454D4F00D8
:100EB400496E74436E743A0090012AE0FFEF7009A2
:100EC4001209FA90012A7401F0120F65229000FEB3
:100ED400E0FFEF70091209049000FE7401F0120F94
:100EE40071229044F4E0F84402F0E85402FF10AF99
:100EF400012274014FFF22900125EFF0900125E0BB
:100F0400FF906485EFF022900127EFF0900127E035
:100F1400FF906405EFF022900128EFF0900128E0A3
:100F2400FF906425EFF022900129EFF0900129E071
:100F3400FF906435EFF0228B938A838982EDF0A3CE
:100F4400ECF07593002290012BEFF090012BE0FF61
:100F5400120CDB22120FAEEF30E605120FB480F450
:100F640022906475E0FFEF4480FFEFF0227F0C12C3
:100F74000D119000FF7401F0228B938A838982E023
:100F8400759300FF228B938A838982EDF075930019
:100F940022906405E0FF906445E0FF229044C07411
:100FA40001F0229044C87401F022906465E0FF22AD
:100FB400906445E0FF22906425E0FF22906435E0D0
:100FC400FF220100000000000000010000000000FA
:100FD40001000100000008000000010000000800FA
:100FE40001000100000001000823020FC67608007A
:100FF4000823030FCE7610000823040FD6762800AA
:101004000823050FDE7630000523060FE670200066
:101014000523070FE67030000523080FE670600013
:101024000523FE0FE670700010220A00D251100052
:1010340040220B00D251300010220C00D251C000CB
:101044001022FE00D251F00400220E00D200000152
:1010540080220F00D206000800221000D2080001EE
:1010640080221100D214000180221200D216000442
:1010740000221300D218000080221400D24200057E
:1010840000221500D243000080221600D24900023B
:1010940000221700D24C00001022FE00D250100093
:1010A40007231900005200002023FE011064700081
:1010B40008231B000851000080231C0010040000BA
:1010C40080231D009004800080231E0130158000C1
:1010D40080231F01B0178000802320023007800086
:1010E40080232102B0050000802322033005800004
:1010F40080232303B0498000802324043048000067
:1011040080232504B04880008023260530428000D7
:1011140080232705B0410000802328063041800049
:1011240080232906B040000080232A073040800035
:101134001023FE07B05000000E0808080E0000003F
:101144000A0A0404040000000E0A0E080800000045
:101154000E0A0C0A0A0000000E080C080E0000001B
:101164000E080E020E0000000E080E020E00000013
:101174000404040004000030313233343536373887
:071184003941424344454696
:00000001FF
