:4000000000800020B9200000B1200000B120000080B51448144B21E05C689968DD688C420CD0002205E0A6180832D6E9008941E902898C460831AA42F5D101E004EB050C66
:400040001C696146002204E008320026002741E902670831A242F7D1143301380028DBD103F0ECFA010000002437000048F2F813C1F6FF731A780AB901201870704700BFE4
:4000800048F20810C1F6FF7008B503682BB140F20003C0F2000303B1984708BD80B584B000AF78607B689B78FF2B03D16FF00903FB7328E07B68DB780A2B03D96FF00A030A
:4000C000FB7320E07B681B79002B03D16FF00B03FB7318E07B68DB78A3F102027B6813445B79002B03D16FF00C03FB730BE07A687B68DB7803F10403DBB21046194600F062
:400100003BF90346FB73FB7B184607F11007BD4680BD00BF80B400AF4FF000031846BD4680BC704780B584B000AF00F039F80346002B0AD03B46184600F03EF80346FB7336
:40014000FB7B002B01D13B79002BBB7B184607F11007BD4680BD00BF80B500AF48F2FC10C1F6FF704FF4807101F0E4F803461A4648F2FC33C1F6FF731A7048F2FC20C1F668
:40018000FF704FF4807101F0D5F803461A4648F2FD33C1F6FF731A704FF00003184680BD80B400AF48F2FE33C1F6FF731B781846BD4680BC704700BF80B588B000AF78602A
:4001C00048F2FC33C1F6FF731B78184601F04CFD0346FB76FB7E002B02D0FB7E052B02D84FF0FC03C3E048F2FC33C1F6FF731A7807F108031046194601F0B4FA03463B7639
:4002000048F2FC33C1F6FF731A7807F1080303F101031046194601F0A5FA03463B7648F2FC33C1F6FF731A7807F1080303F102031046194601F096FA03463B7648F2FC33A7
:40024000C1F6FF731A7807F1080303F103031046194601F087FA03463B7648F2FC33C1F6FF731A7807F1080303F104031046194601F078FA03463B764FF00003FB6114E0DF
:4002800048F2FC33C1F6FF731A78F96907F1080303F105030B441046194601F063FA03463B76FB6903F10103FB61FB7AA3F10202FB699A42E4DC48F2FC33C1F6FF731A7884
:4002C00007F1080303F10D031046194601F04AFA03463B7607F10803184600F02BFD0346BB763B7E002B1ED048F2FC33C1F6FF731B78184600F082FF03463B7648F2FE33F5
:40030000C1F6FF731B7803F1FF33DAB248F2FE33C1F6FF731A704FF0FD0000F0F9F84FF001037B7622E048F2FE33C1F6FF731B7803F1FF33DAB248F2FE33C1F6FF731A70E7
:400340007B68194607F108024FF00E03084611461A4602F017FF7B7DBA7E9A4203D14FF000037B7602E06FF003037B767B7E184607F12007BD4680BD80B584B000AF7860EB
:400380000B46FB7048F2FD33C1F6FF731A78FB78104679681A4601F007FB0346FB73FB7B184607F11007BD4680BD00BF80B58AB000AF12E000F064FA034687F8273048F20F
:4003C000FC33C1F6FF731A7897F827301046194601F076F8034687F8253000F045FA0346002BE7D148F2FC33C1F6FF731B78184601F03AFC0346052B5ED948F2FC33C1F627
:40040000FF731A7807F12303104619464FF0000201F076FA034687F8253048F2FC33C1F6FF731A7807F12203104619464FF0010201F066FA03461A4697F8253042EA0303DE
:4004400087F8253048F2FC33C1F6FF731A7807F12403104619464FF0030201F051FA03461A4697F8253042EA030387F8253097F82330FF2B20D197F82230FF2B1CD148F26E
:40048000FC33C1F6FF731B78184601F0EDFB03461A4697F8243003F104039A420CDB48F2FE33C1F6FF731B7803F10103DAB248F2FE33C1F6FF731A7048F2FD33C1F6FF7374
:4004C0001B78184601F0B4FB0346002B19D048F2FD33C1F6FF7319783A4607F12403084611461A4601F016FB034687F8253097F824303A461046194600F0DCF9034687F882
:40050000263097F82630184607F12807BD4680BD80B483B000AF0346FB71FB79A3F1FC03032B0CD801A252F823F000BF3F0500003F0500003F0500003D050000FEE707F12D
:400540000C07BD4680BC704780B500AF48F20040C1F6FF704FF000014FF0500202F0DAFE48F25040C1F6FF704FF000014FF0500202F0D0FE4FF00003184680BD80B586B08A
:4005800000AFF860B960FA71BB714FF00003FB7503E0FB7D03F10103FB75FA7D48F20043C1F6FF734FEA021213441B68002B02D0FB7D042BEDD9FB7D042B36D8FA7D48F2FB
:4005C0000043C1F6FF734FEA02121344FA681A60FB7D4FEA031248F20043C1F6FF73134403F104031846B9684FF0080202F0EAFFFB7D48F20042C1F6FF724FEA430303F11F
:4006000001034FEAC3031344FA795A71FB7D48F20042C1F6FF724FEA430303F101034FEAC3031344BA791A7102E04FF00103FB75FB7D184607F11807BD4680BD80B582B052
:4006400000AF4FF000033B7132E03A7948F20043C1F6FF734FEA021213441B681B787B713B7948F20042C1F6FF724FEA430303F101034FEAC30313445B797A799A420FD322
:400680003B7948F20042C1F6FF724FEA430303F101034FEAC30313441B797A799A4203D94FF0FE00FFF734FF3B7903F101033B713A7948F20043C1F6FF734FEA021213441B
:4006C0001B68002B37D03B79042BBED934E03A7948F25043C1F6FF734FEA021213441B681B88FB803B7948F25042C1F6FF724FEA430303F101034FEAC3031344DB88FA886F
:400700009A420FD33B7948F25042C1F6FF724FEA430303F101034FEAC30313449B88FA889A4203D94FF0FE00FFF7F2FE3B7903F101033B7100E000BF3A7948F25043C1F6D8
:40074000FF734FEA021213441B68002B02D03B79042BBCD94FF00003184607F10807BD4680BD00BF80B500AF48F2A143C1F6FF731B7803F10103DAB248F2A143C1F6FF733C
:400780001A704FF0010002F079F94FF0000002F075F980BD80B500AF48F2A243C1F6FF734FF000021A7048F2A043C1F6FF734FF000021A7001F08EFD80BD00BF80B582B048
:4007C00000AF48F2A140C1F6FF7043F2C061C0F200014FF000024FF02003FFF7CFFE0346BB7148F2A240C1F6FF7043F2C861C0F200014FF000024FF02003FFF7BFFE034633
:40080000FB7148F2A143C1F6FF734FF000021A7001F0BEFC02F03EF801F0E4FF40F26570C0F2000002F04EF840F29570C0F2000001F0F0FF02F06EF802F014F802F0FCF89D
:400840004FF0010002F01AF94FF0000002F016F901F040FD01F0AAFD4FF00003184607F10807BD4680BD00BF80B400AF48F2A143C1F6FF731B781846BD4680BC704700BFB7
:4008800080B582B000AF01F03DFD0346FB7148F2A143C1F6FF731B7803F1FF33DAB248F2A143C1F6FF731A70FB79184607F10807BD4680BD80B582B000AF78600B46FB7022
:4008C00001F014FD48F2A043C1F6FF734FF001021A7048F2A243C1F6FF731A78FB781344DAB248F2A243C1F6FF731A70FB787868194601F0C3FD48F2A043C1F6FF734FF0FA
:4009000000021A704FF00003184607F10807BD4680BD00BF80B584B000AF4FF00003BB604FF00103FB7362B602E000BF00E000BF00F07EF8FB7B012BF7D1BB6803F101031C
:40094000BB60BB680A2BF2DD4FF00003FB73EFE780B584B000AF0346FB714FF001004FF0030100F019FAFB7B184607F11007BD4680BD00BF80B582B000AF4FF00100FFF72E
:40098000E7FF0346FB714FF00003184607F10807BD4680BD80B483B000AFFB79184607F10C07BD4680BC704780B582B000AF48F20C13C1F6FF731B78002B03D04FF0010063
:4009C00000F0F6F907F10807BD4680BD80B584B000AF78604FF0FF33FB734FF00003BB601DE048F2A443C1F6FF731A6813464FEAC303C2EB03034FEA830248F21013C1F6FF
:400A0000FF7313441846796802F0EEFC0346002B01D1BB68FB73BB6803F10103BB60BB68072BDED9FB7B184607F11007BD4680BD80B582B000AF4FF00003FB7148F2A443B1
:400A4000C1F6FF73196848F21012C1F6FF720B464FEAC303C1EB03034FEA8303134403F108031B78A3F102030E2B00F2458101A252F823F0B10A0000F90C00000D0C00003B
:400A8000F90C0000F90C0000F90C00003B0C0000F90C0000F90C0000F90C0000F90C0000F90C0000F90C0000F90C0000C50C000048F2A443C1F6FF73196848F21012C1F60E
:400AC000FF720B464FEAC303C1EB03034FEA8303134403F110031B79002B2FD048F2A443C1F6FF731A6813464FEAC303C2EB03034FEA830303F1100248F21013C1F6FF7386
:400B0000134403F104031846FFF760FF0346BB71B97948F21012C1F6FF720B464FEAC303C1EB03034FEA8303134403F108031B78022B07D04FF00103FB7104E04FF0010301
:400B4000FB7100E000BFFB79012B40F0D28048F2A443C1F6FF73196848F21012C1F6FF720B464FEAC303C1EB03034FEA8303134403F10C031B68002B31D048F2A443C1F657
:400B8000FF73196848F21012C1F6FF720B464FEAC303C1EB03034FEA8303134403F10C031B68984703467B717B79002B40F0A38048F2A443C1F6FF73196848F21012C1F6BC
:400BC000FF720B464FEAC303C1EB03034FEA8303134403F108034FF004021A708CE048F2A443C1F6FF73196848F21012C1F6FF720B464FEAC303C1EB03034FEA83031344CB
:400C000003F108034FF004021A7075E048F2A443C1F6FF73196848F21012C1F6FF720B464FEAC303C1EB03034FEA8303134403F108034FF008021A705EE048F2A443C1F642
:400C4000FF73196848F21012C1F6FF720B464FEAC303C1EB03034FEA8303134403F110031B68002B17D048F2A443C1F6FF73196848F21012C1F6FF720B464FEAC303C1EBFE
:400C800003034FEA8303134403F110031B68984703467B7130E048F2A443C1F6FF73196848F21012C1F6FF720B464FEAC303C1EB03034FEA8303134403F108034FF02002A3
:400CC0001A7019E048F2A443C1F6FF73196848F21012C1F6FF720B464FEAC303C1EB03034FEA8303134403F108034FF008021A7002E000BF00E000BF48F2A443C1F6FF73AE
:400D00001B6803F1010248F2A443C1F6FF731A6048F2A443C1F6FF731B68082B06D948F2A443C1F6FF734FF000021A6007F10807BD4680BD80B485B000AF78604FF0000318
:400D4000BB737B689A787B68DB781344DAB27B681B791344BB734FF00003FB730AE0FA7B7B6813445A79BB7B1344BB73FB7B03F10103FB73FA7B7B68DB78A3F102039A4268
:400D8000EDDBBB7B6FEA0303BB73BB7B184607F11407BD4680BC704780B483B000AF02460B46FA71BB7107F10C07BD4680BC704790B587B000AF0346FB7107F108034FF0A2
:400DC00000021A6003F104034FF000021A6003F104034FF000021A6003F104034FF000021A8003F102034FF0FF333B724FF0FF337B72FB79BB724FF00203FB724FF001032B
:400E00003B73FB7AA3F1020407F108031846FFF791FF03461A4607F1180101EB040303F80B2C07F108031846FFF738F90346FB7507F11C07BD4690BD80B500AF48F6AC03B2
:400E4000C1F6FF731B7883F00103DAB248F6AC03C1F6FF731A7048F6AC03C1F6FF731B78184601F09DFC80BD80B582B002AF4FF0010300934FF0000044F24021C0F20F01BF
:400E800040F63962C0F200024FF0020300F066F84FF0010300934FF005004CF2C061C0F22D0140F6A912C0F200024FF0020300F055F84FF000031846BD4680BD80B483B055
:400EC00000AF4FF00003FB71FB79184607F10C07BD4680BC704700BF80B400AF48F6B003C1F6FF734FF001021A70BD4680BC704780B500AF48F61813C1F6FF734FF000028D
:400F00001A6048F61813C1F6FF731A6848F61413C1F6FF731A6048F6B400C1F6FF704FF000014FF0600202F0F5F901F08DFB40F6D960C0F2000001F03FFD01F025FD4CF626
:400F40000020C3F69A3001F0E1FB01F0ADFB01F0F9FC4FF00003184680BD00BF80B485B000AFB9607A600246FA73FB70FA7B48F6B403C1F6FF734FEA021213444FF0000243
:400F80001A60FA7B48F6B403C1F6FF734FEA0212134403F10403BA681A60FA7B48F6B403C1F6FF734FEA420202F10102796843F83210FB7B48F6B402C1F6FF724FEA430374
:400FC00003F101034FEAC3031344FA781A71FB7B48F6B402C1F6FF724FEA430303F101034FEAC30313443A7E5A7107F11407BD4680BC704780B582B000AF01F0B3FB0346BD
:401000006FEA030248F61413C1F6FF731A6048F2F013C1F6FF731B78002B13D048F61413C1F6FF731A6848F61813C1F6FF731A6048F2F013C1F6FF734FF000021A704FF0B7
:401040000003C5E048F6B003C1F6FF731B78012B19D148F61413C1F6FF731A6848F61813C1F6FF731B68C3EB02024CF60023C3F69A3313447B6048F6B003C1F6FF734FF0B8
:4010800000021A700CE048F61413C1F6FF731A6848F61813C1F6FF731B68C3EB02037B6048F61413C1F6FF731A6848F61813C1F6FF731A604FF00003FB7083E0FB7848F628
:4010C000B402C1F6FF724FEA430303F101034FEAC30313445B79012B70D1F978FA7848F6B403C1F6FF734FEA021213441A687B681A4448F6B403C1F6FF734FEA01110B44E4
:401100001A60FA7848F6B403C1F6FF734FEA021213441A68F97848F6B403C1F6FF734FEA01110B4403F104031B689A4246D3FA7848F6B403C1F6FF734FEA420202F10102E0
:4011400053F83230002B0CD0FA7848F6B403C1F6FF734FEA420202F1010253F83230984703E04FF0FD00FFF7D3F9FB7848F6B402C1F6FF724FEA430303F101034FEAC30346
:4011800013441B79022B0ED0FB7848F6B402C1F6FF724FEA430303F101034FEAC30313444FF000025A71FA7848F6B403C1F6FF734FEA021213444FF000021A60FB7803F17B
:4011C0000103FB70FB78052B7FF678AF4FF00003184607F10807BD4680BD00BF80B500AF48F61C10C1F6FF704FF000014FF0280202F090F84FF00003184680BD80B584B0BE
:4012000000AF0346FB71F97948F61C12C1F6FF720B464FEA83030B444FEA8303134403F104031B68002B7BD0F97948F61C12C1F6FF720B464FEA83030B444FEA8303134460
:4012400003F108031B88012B6AD9F97948F61C12C1F6FF720B464FEA83030B444FEA8303134403F104031868F97948F61C12C1F6FF720B464FEA83030B444FEA83031344EC
:4012800003F108031B884FF000011A4602F042F8F97948F61C12C1F6FF720B464FEA83030B444FEA8303134403F108034FF000025A80F97948F61C12C1F6FF720B464FEA9B
:4012C00083030B444FEA8303134403F108034FF000029A80F97948F61C12C1F6FF720B464FEA83030B444FEA8303134403F108034FF000029A71F97948F61C12C1F6FF72DD
:401300000B464FEA83030B444FEA8303134403F110034FF000021A804FF00003FB7302E06FF00103FB73FB7B184607F11007BD4680BD00BF80B584B000AF78600B467B80D5
:401340004FF00003FB737B68002B00F0AE807B88012B40F2AA809DE0F97B48F61C12C1F6FF720B464FEA83030B444FEA8303134403F104031B68002B40F08880F97B48F679
:401380001C12C1F6FF720B464FEA83030B444FEA8303134403F104037A681A60F97B48F61C12C1F6FF720B464FEA83030B444FEA8303134403F108037A881A80F97B48F641
:4013C0001C12C1F6FF720B464FEA83030B444FEA8303134403F108034FF000025A80F97B48F61C12C1F6FF720B464FEA83030B444FEA8303134403F108034FF000029A8031
:40140000F97B48F61C12C1F6FF720B464FEA83030B444FEA8303134403F108034FF000029A71F97B48F61C12C1F6FF720B464FEA83030B444FEA8303134403F110034FF021
:4014400000021A80F97B48F61C12C1F6FF720B464FEA83030B444FEA8303134403F104031868F97B48F61C12C1F6FF720B464FEA83030B444FEA8303134403F108031B88B9
:401480004FF000011A4601F045FF07E0FB7B03F10103FB73FB7B012B7FF65EAFFB7B022B07D16FF00203FB7304E06FF00103FB7300E000BFFB7B184607F11007BD4680BDAC
:4014C00080B584B000AF02460B46FA71BB71F97948F61C12C1F6FF720B464FEA83030B444FEA8303134403F108035888F97948F61C12C1F6FF720B464FEA83030B444FEAAC
:401500008303134403F108039B8898422CD1F97948F61C12C1F6FF720B464FEA83030B444FEA8303134403F108039B79002B14D1F97948F61C12C1F6FF720B464FEA830321
:401540000B444FEA8303134403F108034FF001029A714FF00003FB730CE0FB79184600F043FC0346FB7305E0FB79184600F03CFC0346FB73FB7B002B20D1F97948F61C1260
:40158000C1F6FF720B464FEA83030B444FEA8303134403F104031868F97948F61C12C1F6FF720B464FEA83030B444FEA8303134403F108035B880344BA791A70FB7B1846DE
:4015C00007F11007BD4680BD80B584B000AF03463960FB71F97948F61C12C1F6FF720B464FEA83030B444FEA8303134403F108039888F97948F61C12C1F6FF720B464FEA0C
:4016000083030B444FEA8303134403F108035B88984229D1F97948F61C12C1F6FF720B464FEA83030B444FEA8303134403F108039B79012B14D1F97948F61C12C1F6FF7264
:401640000B464FEA83030B444FEA8303134403F108034FF000029A714FF00003FB7306E04FF00103FB7302E04FF00003FB73FB7B002B71D1F97948F61C12C1F6FF720B4697
:401680004FEA83030B444FEA8303134403F104031868F97948F61C12C1F6FF720B464FEA83030B444FEA8303134403F108035B8803441A783B681A70F97948F61C12C1F693
:4016C000FF720B464FEA83030B444FEA8303134403F104031868F97948F61C12C1F6FF720B464FEA83030B444FEA8303134403F108035B8803444FF000021A70F97948F66A
:401700001C12C1F6FF720B464FEA83030B444FEA8303134403F108039888F97948F61C12C1F6FF720B464FEA83030B444FEA8303134403F108035B8898420DD0FB791846D9
:4017400000F0C2FB0346002B03D14FF00003FB7302E04FF0FF33FB73FB7B184607F11007BD4680BD80B584B000AF03463960FB71F97948F61C12C1F6FF720B464FEA830364
:401780000B444FEA8303134403F108039888F97948F61C12C1F6FF720B464FEA83030B444FEA8303134403F108035B88984229D1F97948F61C12C1F6FF720B464FEA83035E
:4017C0000B444FEA8303134403F108039B79012B14D1F97948F61C12C1F6FF720B464FEA83030B444FEA8303134403F108034FF000029A714FF00003FB7306E04FF00103C1
:40180000FB7302E04FF00003FB73FB7B002B71D1F97948F61C12C1F6FF720B464FEA83030B444FEA8303134403F104031868F97948F61C12C1F6FF720B464FEA83030B446A
:401840004FEA8303134403F108039B8803441A783B681A70F97948F61C12C1F6FF720B464FEA83030B444FEA8303134403F104031868F97948F61C12C1F6FF720B464FEAA4
:4018800083030B444FEA8303134403F108039B8803444FF000021A70F97948F61C12C1F6FF720B464FEA83030B444FEA8303134403F108039888F97948F61C12C1F6FF7269
:4018C0000B464FEA83030B444FEA8303134403F108035B8898420DD0FB79184600F07CFB0346002B03D14FF00003FB7302E04FF0FF33FB73FB7B184607F11007BD4680BDC5
:4019000080B584B000AFB96013460246FA73FB71F97B48F61C12C1F6FF720B464FEA83030B444FEA8303134403F104031B68002B02D14FF0FD0331E0FB7B184600F094F962
:401940000346FA799A4202D94FF0FE0326E0F97B48F61C12C1F6FF720B464FEA83030B444FEA8303134403F104031868F97B48F61C12C1F6FF720B464FEA83030B444FEA16
:401980008303134403F108039B881A46FB79134403441A78BB681A704FF00003184607F11007BD4680BD00BF80B588B000AFB96013460246FA73FB714FF00003BB61FB7B46
:4019C000184600F051F90346FB83F97B48F61C12C1F6FF720B464FEA83030B444FEA8303134403F108031B881A46FB8BC3EB0202FB7903F102039A4202DA4FF0010383E006
:401A0000FA7BFB7910461946FFF75AFD0346002B76D10FE0BA69BB6813441B78FA7B10461946FFF74DFD0346002B08D1BB6903F10103BB61FA79BB699A42EBDC00E000BF19
:401A4000FA79BB699A4257D1FA7BFB7910461946FFF736FD0346002B37D1FA7B48F61C11C1F6FF7113464FEA830313444FEA83030B4403F110031B8803F1010398B248F6DA
:401A80001C11C1F6FF7113464FEA830313444FEA83030B4403F1100302461A804FF00003FB7530E0FA7B07F1160310461946FFF78BFD0346012B04D14FF0FF33FB7500BF07
:401AC00021E0BB6903F1FF33BB61BB69002BE9DA19E0FA7B07F1160310461946FFF774FD0346012B04D14FF0FF33FB7500BF0AE0BB6903F1FF33BB61BB69002BE9DA02E0A4
:401B00004FF00103FB75FB7D184607F12007BD4680BD00BF80B586B000AF0346B9607A60FB734FF000037B61FB7B18467968FFF719FE0346002B75D17B681B78002B68D0C7
:401B400017E07A69BB681344FA7B10461946FFF709FE0346002B04D17B6903F101037B6107E07B684FF000021A704FF0FF33FB7405E07B681B781A467B699A42E1DC7B6859
:401B80001B781A467B699A423BD1FA7B07F1120310461946FFF7E6FD0346002B41D17B681A78BB7C9A4224D1FA7B48F61C11C1F6FF7113464FEA830313444FEA83030B44CF
:401BC00003F110031B8803F1FF3398B248F61C11C1F6FF7113464FEA830313444FEA83030B4403F1100302461A804FF00003FB7418E07B684FF000021A704FF0FF33FB749C
:401C000010E07B684FF000021A704FF0FF33FB7408E07B684FF000021A706FF00303FB7400E000BFFB7C184607F11807BD4680BD80B483B000AF0346FB71F97948F61C1248
:401C4000C1F6FF720B464FEA83030B444FEA8303134403F110031B88DBB2184607F10C07BD4680BC704700BF80B485B000AF0346FB71F97948F61C12C1F6FF720B464FEA15
:401C800083030B444FEA8303134403F108035888F97948F61C12C1F6FF720B464FEA83030B444FEA8303134403F108039B88984203D14FF00003FB7379E0F97948F61C1228
:401CC000C1F6FF720B464FEA83030B444FEA8303134403F108035888F97948F61C12C1F6FF720B464FEA83030B444FEA8303134403F108039B88984223D9F97948F61C1217
:401D0000C1F6FF720B464FEA83030B444FEA8303134403F108035B88D8B2F97948F61C12C1F6FF720B464FEA83030B444FEA8303134403F108039B88DBB2C3EB0003FB7351
:401D400035E0F97948F61C12C1F6FF720B464FEA83030B444FEA8303134403F108035B88D8B2F97948F61C12C1F6FF720B464FEA83030B444FEA8303134403F108031B884A
:401D80005FFA83FCF97948F61C12C1F6FF720B464FEA83030B444FEA8303134403F108039B88DBB2C3EB0C03DBB20344FB73F97948F61C12C1F6FF720B464FEA83030B44BD
:401DC0004FEA8303134403F108039B79012B03D1FB7B03F10103FB73FB7B184607F11407BD4680BC704700BF80B485B000AF0346FB71F97948F61C12C1F6FF720B464FEAE5
:401E000083030B444FEA8303134403F108035B8803F10103FB81F889F97948F61C12C1F6FF720B464FEA83030B444FEA8303134403F108031B8803F1FF33984202DD4FF0A5
:401E40000003FB81F97948F61C12C1F6FF720B464FEA83030B444FEA8303134403F108039B88FA899A4214D1F97948F61C12C1F6FF720B464FEA83030B444FEA8303134487
:401E800003F108039B88012B03D14FF001037B7312E0F97948F61C12C1F6FF720B464FEA83030B444FEA8303134403F10803FA895A804FF000037B737B7B184607F114076F
:401EC000BD4680BC704700BF80B485B000AF0346FB71F97948F61C12C1F6FF720B464FEA83030B444FEA8303134403F108035888F97948F61C12C1F6FF720B464FEA8303F0
:401F00000B444FEA8303134403F108039B88984203D14FF00103FB7357E0F97948F61C12C1F6FF720B464FEA83030B444FEA8303134403F108035B88002B22D1F979F87926
:401F400048F61C12C1F6FF7203464FEA830303444FEA8303134403F108031B8803F1FF3398B248F61C12C1F6FF720B464FEA83030B444FEA8303134403F1080302465A802C
:401F800020E0FA7948F61C11C1F6FF7113464FEA830313444FEA83030B4403F108035B8803F1FF3398B248F61C11C1F6FF7113464FEA830313444FEA83030B4403F108033F
:401FC00002465A804FF00003FB73FB7B184607F11407BD4680BC704780B485B000AF0346FB714FF001037B73F97948F61C12C1F6FF720B464FEA83030B444FEA83031344B9
:4020000003F108039B8803F10103FB81F97948F61C12C1F6FF720B464FEA83030B444FEA8303134403F108039888F97948F61C12C1F6FF720B464FEA83030B444FEA83034C
:40204000134403F108035B88984229D0F889F97948F61C12C1F6FF720B464FEA83030B444FEA8303134403F108031B8803F1FF33984202DD4FF00003FB81F97948F61C123B
:40208000C1F6FF720B464FEA83030B444FEA8303134403F10803FA899A804FF000037B737B7B184607F11407BD4680BC704700BF80B400AFFEE700BF054B1C7844F00104F7
:4020C0001C70044B1A78D2B2034B1A70FDF7A0FFE8460040F8460040BC76004080B582B000AF4EF60C53CEF2000340F20042C0F2FA521A604EF61453CEF200034EF61452A6
:40210000CEF20002126842F400721A604FF000037B6019E079687B68032B07D87A6840F20003C0F2000353F8223003E042F2B103C0F2000348F20002C1F6FF7242F8213082
:402140007B6803F101037B607B682F2BE2D947F2BC63C4F200031B78DAB248F68C13C1F6FF731A704EF60853CEF2000348F20002C1F6FF721A6000F0CFFE48F20013C1F6F0
:40218000FF734FF000021A6007F10807BD4680BD80B500AF48F64413C1F6FF731B78002B08D100F00BF848F64413C1F6FF734FF001021A7000F044F880BD00BF80B500AFE9
:4021C0004FF0030042F2C541C0F2000100F0B8FC4FF003004FF0070100F0E2FC46F28A43C4F200034FF072021A7046F28E43C4F200034FF020021A704FF0040042F2B15194
:40220000C0F2000100F09CFC4FF004004FF0070100F0C6FC46F22F43C4F200034FF007021A7046F23F43C4F200034FF048021A7046F28B43C4F200034FF002021A7080BDA3
:4022400080B582B000AF00F067FC0346FB7146F29A43C4F2000346F29A42C4F200021278D2B242F02002D2B21A7046F29E43C4F2000346F29E42C4F200021278D2B242F054
:402280001002D2B21A704EF20013CEF200034FF008021A6046F29B43C4F2000346F29B42C4F200021278D2B242F01002D2B21A704EF20013CEF200034FF010021A6000F058
:4022C000FFFBFB79184600F02BFC07F10807BD4680BD00BF80B400AF4EF20013CEF200034FF008021A60BD4680BC704780B400AF4EF28013CEF200034FF008021A60BD4604
:4023000080BC704780B582B000AFFFF7EFFF48F64713C1F6FF731B78BB7148F64813C1F6FF731B78FB7148F64913C1F6FF731B78DBB2002B03D1BA79FB799A4226D0BA79E1
:4023400048F64C13C1F6FF739B5C7B71BB7903F10103BB71BB791F2B02D94FF00003BB7148F64713C1F6FF73BA791A7048F64913C1F6FF731B78DBB2002B0ED048F6491391
:40238000C1F6FF734FF000021A7007E046F24E43C4F200031B787B7100E000BFFFF79AFF7B79184607F10807BD4680BD80B400AF4EF20013CEF200034FF010021A60BD46B3
:4023C00080BC704780B485B000AF0346FB7148F64613C1F6FF731B78BB7348F64513C1F6FF731B78FB73BA7BFB7B9A4209D2BA7BFB7B03F1FF339A4214BF00230123DBB226
:4024000008E0BA7BFB7BC3EB02031F2B14BF00230123DBB2002BDAD1FA7BBB7B9A4210D146F26B43C4F200031B78DBB203F00403002B06D146F24C43C4F20003FA791A70EF
:4024400016E0BB7B1F2B02D94FF00003BB73BA7B48F66C13C1F6FF73F9799954BB7B03F10103BB7348F64613C1F6FF73BA7B1A7007F11407BD4680BC704700BF80B584B015
:4024800000AF78600B46FB704FF00003FB7348F64413C1F6FF731B78002B0ED0FA7B7B6813441B781846FFF78DFFFB7B03F10103FB73FA7BFB789A42F0D307F11007BD4638
:4024C00080BD00BF80B483B000AF4FF00003FB7146F26E43C4F200031B78BB715EE048F64813C1F6FF731B78DBB21A4646F24E43C4F200031B78D9B248F64C13C1F6FF73D5
:4025000099544FF00103FB71FB79002B40D048F64913C1F6FF731B78DBB2002B06D048F64A13C1F6FF734FF001021A7048F64813C1F6FF731B78DBB203F10103DAB248F638
:402540004813C1F6FF731A7048F64813C1F6FF731B78DBB21F2B06D948F64813C1F6FF734FF000021A7048F64813C1F6FF731B78DAB248F64713C1F6FF731B78DBB29A4217
:4025800006D148F64913C1F6FF734FF001021A7046F26E43C4F200031B78BB71BB7903F02003002B9BD107F10C07BD4680BC704780B400AF2EE048F64513C1F6FF731B782F
:4025C000DBB21F2B06D948F64513C1F6FF734FF000021A7046F24C43C4F2000348F64512C1F6FF721278D2B2114648F66C12C1F6FF72525CD2B21A7048F64513C1F6FF739A
:402600001B78DBB203F10103DAB248F64513C1F6FF731A7048F64513C1F6FF731B78DAB248F64613C1F6FF731B789A4209D046F26B43C4F200031B78DBB203F00403002BE3
:40264000B9D0BD4680BC704780B582B000AF4CF6FF10C3F69A3000F059F84CF6FF10C3F69A3000F06FF800F057FA0346FB7146F29753C4F2000346F29752C4F20002127851
:40268000D2B242F01002D2B21A70FB79184600F047FA00F077F84FF0010000F01BF807F10807BD4680BD00BF80B400AF46F27453C4F2000346F27452C4F200021278D2B23A
:4026C0006FEA42626FEA5262D2B21A70BD4680BC704700BF80B483B000AF0346FB7146F28753C4F20003FA791A7007F10C07BD4680BC704780B400AF46F26753C4F20003EB
:402700001B78DBB21846BD4680BC704780B483B000AF786046F22453C4F200037A681A6007F10C07BD4680BC704700BF80B400AF46F24453C4F200031B681846BD4680BC28
:40274000704700BF80B483B000AF786046F20453C4F200037A681A6007F10C07BD4680BC704700BF80B400AF46F20453C4F200031B6846F24453C4F200031B681846BD4677
:4027800080BC704780B500AF01E0FFF7CFFFFFF7B1FF034603F00803002BF6D180BD00BF80B485B000AF0346FB7145F20013C4F200031B78DBB223F00803FB7345F20013FC
:4027C000C4F20003FA794FEAC202D2B202F00802F97B42EA0102D2B21A7007F11407BD4680BC704780B500AF00F048F842F60900C0F2000000F00EF84FF0070000F01EF82D
:4028000000F030F880BD00BF80B400AFBD4680BC704700BF80B485B000AF78604EF60853CEF200031B68FB60FB6803F148037A681A6007F11407BD4680BC704780B483B04E
:4028400000AF0346FB714EF20243CEF20003FA794FEA4212D2B21A7007F10C07BD4680BC704700BF80B400AF4EF20013CEF200034FF004021A60BD4680BC704780B400AF4D
:402880004EF28013CEF200034FF004021A60BD4680BC704780B500AF00F048F842F6B900C0F2000000F00EF84FF0070000F01EF800F030F880BD00BF80B400AFBD4680BC9E
:4028C000704700BF80B485B000AF78604EF60853CEF200031B68FB60FB6803F140037A681A6007F11407BD4680BC704780B483B000AF0346FB714EF20043CEF20003FA79AF
:402900004FEA4212D2B21A7007F10C07BD4680BC704700BF80B400AF4EF20013CEF200034FF001021A60BD4680BC704780B400AF4EF28013CEF200034FF001021A60BD4659
:4029400080BC704780B400AF44F2A233C4F2000344F2A232C4F200021278D2B242F00202D2B21A7044F2B233C4F2000344F2B232C4F200021278D2B242F00202D2B21A70B1
:40298000BD4680BC704700BF80B500AF00F048F842F6AD10C0F2000000F00EF84FF0070000F01EF800F030F880BD00BF80B400AFBD4680BC704700BF80B485B000AF7860C9
:4029C0004EF60853CEF200031B68FB60FB6803F144037A681A6007F11407BD4680BC704780B483B000AF0346FB714EF20143CEF20003FA794FEA4212D2B21A7007F10C0769
:402A0000BD4680BC704700BF80B400AF4EF20013CEF200034FF002021A60BD4680BC704780B400AF4EF28013CEF200034FF002021A60BD4680BC704780B400AF44F2A2331B
:402A4000C4F2000344F2A232C4F200021278D2B242F00102D2B21A7044F2B233C4F2000344F2B232C4F200021278D2B242F00102D2B21A70BD4680BC704700BF80B485B075
:402A800000AF0346FB7145F20013C4F200031B78DBB223F00203FB7345F20013C4F20003FA794FEA4202D2B202F00202F97B42EA0102D2B21A7007F11407BD4680BC7047E2
:402AC00080B400AF44F2A233C4F2000344F2A232C4F200021278D2B242F00402D2B21A7044F2B233C4F2000344F2B232C4F200021278D2B242F00402D2B21A70BD4680BCE0
:402B0000704700BF000000000230800803D000BF01380046FCD17047EFF3108072B6704780F31088704700BF80B483B000AF0346FB7101BE07F10C07BD4680BC704700BFB4
:402B400080B584B000AF03463960FB714EF60853CEF200031B68FB60FB791F2B03D94FF00000FFF7E1FFFB7903F01F0303F110034FEA8302FB6813441B68BB60FB7903F0F3
:402B80001F0303F110034FEA8302FB6813443A681A60BB68184607F11007BD4680BD00BF80B582B000AF02460B46FA71BB71BB79072B03D94FF00000FFF7B6FFFB791F2B99
:402BC00003D94FF00000FFF7AFFFFB7903F01F0303F1604303F56443BA794FEA4212D2B21A7007F10807BD4680BD00BF80B485B000AF786039607B68BB604FF00003FB605F
:402C000009E0BA68FB6813444FF000021A70FB6803F10103FB60FA683B689A42F1D307F11407BD4680BC704780B489B000AFF860B9607A60FB687B61BB68BB614FF0000379
:402C4000FB610BE07A69FB691344B969FA690A4412781A70FB6903F10103FB61FA697B689A42EFD307F12407BD4680BC704700BF80B582B000AF7860396078684FF000016D
:402C80003A6800F047FB07F10807BD4680BD00BF80B584B000AFF860B9607A60F868B9687A6800F06FFA07F11007BD4680BD00BF80B487B000AF786039604FF00003FB60E5
:402CC0004FF00003BB602CE0BB684FEA83027B6813441B683B613B69FB753B6923F0FF033B6117E0FB684FEA43023B6813441B781A463B691344FA684FEA42013A680A443A
:402D000052781A70FB6803F10103FB60FB7D03F1FF33FB75FB7D002BE4D1BB6803F10103BB60BB68172BCFD907F11C07BD4680BC704700BF80B500AF44F28003C4F20003BA
:402D40004FF017021A8044F28203C4F200034FF018021A7044F28403C4F200034FF017021A8044F28603C4F200034FF018021A7044F28803C4F200034FF49C721A8044F2AC
:402D80008A03C4F200034FF018021A7044F20033C4F200034FF002021A7044F20003C4F200034FF008021A7044F20023C4F200034FF003021A7044F2A163C4F2000340F231
:402DC0000812C4F600121278D2B21A7044F22223C4F200034FF008021A8044F22023C4F2000341F251021A8040F6B830FFF78CFE44F20403C4F200034FF003021A7044F254
:402E00000503C4F200034FF001021A7044F20403C4F200034FF000021A7044F20403C4F200034FF007021A7044F20603C4F200034FF000021A7044F20803C4F200034FF080
:402E400048021A7044F20403C4F200034FF000021A7044F20103C4F200034FF002021A7044F2A233C4F2000344F2A232C4F200021278D2B242F00702D2B21A7080BD00BF24
:402E800080B400AF44F2AA33C4F200034FF444721A8045F62003C4F200034FF01E021A7045F62403C4F200034FF01E021A7045F62803C4F200034FF01E021A7045F62C035A
:402EC000C4F200034FF01E021A7045F60013C4F200036FF03F021A7045F60313C4F200034FF00C021A7045F60813C4F200036FF03F021A7045F60B13C4F200034FF00C0286
:402F00001A7045F67603C4F200034FF044021A70BD4680BC704700BF80B582B000AF72B644F60003C4F200034FF000021A70FFF701FF44F60003C4F200036FF07F021A7081
:402F400047F21003C4F200034FF000021A7047F22003C4F200034FF000021A7045F67C03C4F200034FF001021A7044F2E863C4F2000344F2E862C4F200021278D2B242F0B0
:402F80000102D2B21A704FF00003FB702FE0FA7813464FEA430313444FEA43031A4643F2D063C0F2000313447B607B681A7859784FEA012141EA020299784FEA014141EAEE
:402FC0000202DB784FEA036343EA02031A467B6819795B794FEA032343EA01039BB210461946FFF745FEFB7803F10103FB70FB78072BCCD94FF0904040F26001C4F60001B8
:40300000FFF756FE45F20020C4F2000040F2F441C4F600014FF00702FFF706FE45F20820C4F200004FF00701FFF7E0FD45F21020C4F200004FF00701FFF7D8FD45F2182008
:40304000C4F200004FF00701FFF7D0FD45F22020C4F2000040F2FC41C4F600014FF00702FFF7E2FD45F22820C4F200004FF00701FFF7BCFD45F23020C4F200004FF007016D
:40308000FFF7B4FD45F26020C4F200004FF00601FFF7ACFD45F27820C4F200004FF00701FFF7A4FD45F20303C4F2010345F20302C4F201021278D2B242F00202D2B21A7076
:4030C00045F21303C4F2010345F21302C4F201021278D2B242F00202D2B21A7044F2A033C4F2000344F2A032C4F200021278D2B242F04002D2B21A7044F2C233C4F200037C
:4031000044F2C232C4F200021278D2B242F01002D2B21A7045F20210C4F2000040F2E041C4F600014FF00802FFF7B2FD45F24010C4F2000040F2E841C4F600014FF00A02B4
:40314000FFF7A6FDFFF79CFE44F2B030C4F2000044F2A031C4F200014FF00C02FFF798FD44F2B033C4F2000344F2B032C4F200021278D2B202F0FD021A7007F10807BD468F
:4031800080BD00BF032A2DE9F0070BD83AB1002311F803C000F803C001339342F8D1BDE8F007704782180C46034603E014F8011C03F8011C03F003061946A4460133013435
:4031C000002EF3D11CF00304634608BFC1EB020C68D06542C4F1040A0CEB050733464FEACA0A5CF805604FEAC408551A08E057F8044F264604FA0AF449EA0404CC500433C8
:403200005C18032D26FA08F9A5F104050CEB0306EDDC002302E0F15CE154013319199142F9D3BCE753F8404C41F8404C53F83C4C41F83C4C53F8384C41F8384C53F8344CAB
:4032400041F8344C53F8304C41F8304C53F82C4C41F82C4C53F8284C41F8284C53F8244C41F8244C53F8204C41F8204C53F81C4C41F81C4C53F8184C41F8184C53F8144C2E
:4032800041F8144C53F8104C41F8104C53F80C4C41F80C4C53F8084C41F8084C53F8044C41F8044C1C460D4640334031BCF13F0FACF1400CB6DC21462B46541B0FE051F827
:4032C000105C43F8105C51F80C5C43F80C5C51F8085C43F8085C51F8045C43F8045C0F2C0D469C4601F1100103F11003A4F11004E5DCCCEB0201002303E0EC584CF8034068
:4033000004335E19032903EB0C04A1F10401F4DC7FE700BF032AC9B230B407D822B10023C15401339342FBD130BC704700EB020C034601E003F8011C03F003041A46013372
:40334000002CF7D14FF00133C2EB0C0403FB01F31FE042F8403C42F83C3C42F8383C42F8343C42F8303C42F82C3C42F8283C42F8243C42F8203C42F81C3C42F8183C42F808
:40338000143C42F8103C42F80C3C42F8083C42F8043C154640323F2CA4F14004D9DC2A46C5EB0C0407E042F8103C42F80C3C42F8083C42F8043C154610320F2CA4F110045F
:4033C000F1DC2A46C5EB0C0501E042F8043C14460432032DA5F10405F7DC01E004F8011B6445FBD3A0E700BF80EA010212F0030F3AD110F0030220F0030021F0030150F88B
:4034000004CB08BF51F8043B0DD082F003024FEAC2026FF07F4323FA02F251F8043B4CEA020C43EA020300BFACF101329C4501BF22EA0C0212F0803F50F804CB51F8043B43
:40344000F2D04FEA0C604FEA1C2C012828BFB0EB036F08BF1B0AF4D003F0FF034FEA1060A0EB0300704700BF10F0030F0AD010F8012B11F8013B012A28BF9A42F4D0A2EB51
:40348000030070474DF8045D4DF8044D4FF0010242EA022242EA024201F0030C21F0030150F8044B51F8045BBCF1020F26D04BD824F07F4CBCEB152FA4EB020323EA040377
:4034C0000DD113EAC21308BF51F8045B0AD18CEA040CBCEB056F0CD150F8044BE8E74FEA15255CE033F07F4352D10D784FEA146C55E04FEA146C05F0FF0550E04FEA044C59
:40350000A4EB02034FEA1C4C23EA0403BCEB154F17D113EAC21308BF51F8045B07D18CEA040CBCEB054F08D150F8044BE6E71B042ED10D884FEA144C31E04FEA05454FEA5F
:40354000144C4FEA15452AE004F0FF0CBCEB156FA4EB020323EA04030DD113EAC21308BF51F8045B0AD18CEA040CBCEB052F0AD150F8044BE8E74FEA156510E014F0FF0F2B
:4035800006D051F8045B4FEA142C25F07F4506E04FF000005DF8044B5DF8045B70470CF0FF0205F0FF00012828BF904204BF4FEA1C2C2D0AF3D0A2EB00005DF8044B5DF870
:4035C000045B704741EA000313F0030F14BF00230123032A94BF002303F0010330B4002B2AD004460B68A3F1013C2CEA030C1CF0803F05D1043A0431032A44F8043BF1D87D
:403600002346BAB10D781C46013A04F8015B55B102337AB111F8015F1C46013A03F8015C0133002DF5D12AB100231946E15401339342FBD130BC70470346E2E708B500F088
:4036400017F8074800B10068064901B109680022FDF760F9044B0BB1AFF30080FEE700BF000000000000000000000000FEE7000070B543F20C7643F20C75C0F20006C0F240
:403680000005761BB61006D0002455F8243001349847A642F9D843F20C7543F21476C0F20005C0F20006761B00F02AF8B61006D0002455F8243001349847A642F9D870BD64
:4036C0005278436F756E74005478436F756E7400105100403000505100402000C05100401000F0510040100000000140001000140140000800400140000A004C0140000296
:40370000F8B500BFF8BC08BC9E46704781000000DD200000F8B500BFF8BC08BC9E4670476D00000000000000383700000881FF1FF0000000980700000000000001000000FA
:40374000455252000000000002000000490500003D0600000000000000000000524246000000000002010000DD11000000000000000000000000000048414C00000000002D
:4037800002010000BD070000000000000000000000000000544D52000000000002010000F10E0000F50F0000000000000000000042504C000000000002020000590100000D
:4037C000AD03000048414C000000000042414C000000000002020000150100002501000042504C00000000004D4F5600000000000202000075090000950900004D4F560053
:4038000000000000545354000000000002020000690E0000BD0E0000544D520000000000010000000000000000000000000000000000000000000000000000000000000053
:403840000000000000000000000000000000000000000000000000000000000000000000000000000000000000000000000000000000000000000000000000000000000048
:403880000000000000000000000000000000000000000000000000000000000000000000000000000000000000000000000000000000000000000000000000000000000008
:4038C00000000000000000000000000000000000000000000000000000000000000000000000000000000000000000000000000000000000000000000000000000000000C8
:403900000000000000000000000000000000000000000000000000000000000000000000000000000000000000000000000000000000000000000000000000000000000087
:020000040003F7
:0200000480007A
:4000000003640040016500400103014001050140350A0140400B01404E0C0140430D0140650E0140340F01402514014009150140311601401217014006400140064101409D
:4000400006420140014301400544014004450140014601400348014007500140025101408A728B0F8E38870DEE04E20800060107021803180401080109080C1A0E040F04A5
:40008000101A111C1204130216041703181E1D10201021042320240825182818291F2C012D1C2F01301C311F3201360237203A223B023E4056025713580459045B045C222B
:4000C0005D2081019102B502B701BF50D401D604D904DB04DD200002011503020A140B4010821324188019201A151B0A214022022340270929242A022B0230803202330837
:400100003702382039813F025A015C405E205F0B6780680269146A2870907124732487409040930194809501963C97409A029D249F01A001A210A301A480A520A602AD1008
:40014000B404B702C00FC20EC40FCA0FCC8BCE8DD6F1D880E802002C010102D1089C0A220C141702188019021A101D021E03240926F0270228302A4C2B02310232E03501FF
:40018000361F3A083F014024410145E046C047B0482A49FF4AFF4BFF4EF04F44500C580459045A045C225D0266C06A406B028163830C856388078B638D0F8F609006910C5F
:4001C000920193639406950C980299049C019D089E06A004A121A542A96FAA01AC07AD10B160B510B607B70FBB80BF10D804D904DC220120041006010740088409200B80C1
:400200000E010F04108012021310171419801C101D401E011F042002215022012440270429602A022B102F2430843124320236803754388439013A203B803E303F124751DE
:400240004F0156015720788079807A107B209304963E97C89A029B109C809D809F04A280A313A720A840B001B202C0D2C2CFC46BCA6FCC7FCE8FD0B000040101022203028F
:40028000040E0A400B040C020E1C1201140815031622180E19031C0122402502270128012E012F04300E3201330334403504363038083E503F10404341024205440146CE44
:4002C000480C49FF4AFF4BFF4C624DA04EF04F41500C54185604580459045A045B045C225D226640670269106A306B106D106E106F128580913393C497EE99339B4CA503B8
:40030000A704A999B30FB530B7C8B802B920BB88BC02BF10C002C505C710C821C9FFCA07CBFFCC40CD20CEF0CF05D008D824D904DA04DB04DC20DD02DE03E040E1A8E24018
:40034000E32000020220030A08800A080B900F301084134018051B0A1E802120231025102680273129802B102F243234372538203A023F0440814214451049804F0450902F
:40038000570158045A065E80604462407C0289208A408C02C00FC20FC40BCA6ACCE6CE45D02FD208D611D80DDE80404649FF4AFF4BFF4F0150185A045B045D0160406240A5
:4003C00064406540668068806A806C806E80C046C9FFCAFFCBFFCD83CE03CF01D018DA04DD01E040E240E440E540E680E880EA80EC80EE804102450248084C087102A00846
:40040000A502D081D224404649FF4AFF4BFF4D834E034F0150185A045D016040624064406540668068806A806C806E8093019701B701BF40C046C5ECC702C813C9FFCAFFEC
:40044000CBFFCD83CE03CF01D018D401D604D904DA04DB04DD11E040E240E440E540E680E880EA80EC80EE8022403008310241024502480849054C08500859055A80634089
:400480008740CC03D081D224D60BD8013002332036443B80CCF0CE109780A402A640AA04AB20EE20840287409780A402A640E210A640010204088C04C00CE2086202B102F3
:4004C000D802EA01AE028640A640E640000502100C040E05100212101A0200FF010300000308080000000000400000404000400000000000000000000300000000400000D2
:4005000000000000000000000000000000000000000000000000000000000000000000000000000000000000000000000000000000000000000000000000000000000000BB
:40054000000000000000000000000000000000000000000000000000000000000000000000000000000000000000000000000000000000000000000000000000000000007B
:40058000000000000000000000000000000000000000000000000000000000000000000000000000000000000000000000000000000000000000000000000000000000003B
:4005C00000000000000000000000000000000000000000000000000000000000000000000000000000000000000000000000000000000000000000000000000000000000FB
:0200000490006A
:0400000000000006F6
:0200000490105A
:04000000BC90ACAF55
:0200000490303A
:020000009E213F
:0200000490501A
:0C00000000010E13C06901010E2D5E8A84
:0200000490402A
:4000000000000000000000000000000000000000000000000000000000000000000000000000000000000000000000000000000000000000000000000000000000000000C0
:400040000000000000000000000000000000000000000000000000000000000000000000000000000000000000000000000000000000000000000000000000000000000080
:400080000000000000000000000000000000000000000000000000000000000000000000000000000000000000000000000000000000000000000000000000000000000040
:4000C0000000000000000000000000000000000000000000000000000000000000000000000000000000000000000000000000000000000000000000000000000000000000
:00000001FF
