:4000000000800020E50A0000DD0A0000DD0A000080B51448144B21E05C689968DD688C420CD0002205E0A6180832D6E9008941E902898C460831AA42F5D101E004EB050C24
:400040001C696146002204E008320026002741E902670831A242F7D1143301380028DBD102F032F801000000A021000048F22013C1F6FF731A780AB901201870704700BF13
:4000800048F20810C1F6FF7008B503682BB140F20003C0F2000303B1984708BD2DE9F04387B000AF786069460E467968C97801F1040C0CF1FF31F960614608464FF0000199
:4000C0004FF0FF384FF00F0900EA080001EA09014FEA507E4FEAC1054EEA05054FEAC0044FF0FF304FF00F0104EA000405EA0105614608464FF000014FF0FF344FF00F0569
:4001000000EA040001EA05014FEA507E4FEAC1034EEA03034FEAC0024FF0FF304FF00F0102EA000203EA0103634603F1070303F107034FEAD3034FEAC303ADEB030D6B46FB
:4001400003F107034FEAD3034FEAC3033B617B681A783B691A707B685A783B695A707B689A783B699A707B68DA783B69DA703B6903F104017B6803F104027B68DB7808464D
:4001800011461A4601F06EFE7B68DB7803F104037A68117B3A69D1543A697B68DB7803F10403DBB21046194600F012F80346FB754FF00003B546184607F11C07BD46BDE89D
:4001C000F08300BF80B400AFBD4680BC704700BF80B582B000AF78600B46FB7048F22733C1F6FF731B781A46FB78134403F10103B3F5807F02DD4FF0FE0340E048F21413D2
:40020000C1F6FF731B68FA781A7048F21413C1F6FF731B6803F10102FB78104679681A4601F020FE48F21413C1F6FF731A68FB7803F101031A4448F21413C1F6FF731A6020
:4002400048F22733C1F6FF731A78FB781344DBB203F10103DAB248F22733C1F6FF731A7048F22533C1F6FF731B7803F10103DAB248F22533C1F6FF731A704FF00003184656
:4002800007F10807BD4680BD90B583B000AF48E048F20C13C1F6FF731B6803F1010248F21013C1F6FF731B689A4207D148F22833C1F6FF734FF0FF321A703EE048F20C13C0
:4002C000C1F6FF731B6803F1010248F20C13C1F6FF731A6048F20C13C1F6FF731A685C4B9A4208D148F20C13C1F6FF7348F22412C1F6FF721A6048F20C13C1F6FF731C6865
:4003000000F00EF90346237048F22433C1F6FF731B7803F10103DAB248F22433C1F6FF731A7000F0F1F80346002B06D048F22833C1F6FF731B78002BAAD048F22533C1F673
:40034000FF731B78002B40D048F22833C1F6FF731B78002B39D148F21813C1F6FF731B681B78FB7148F21813C1F6FF731A68FB791A4448F21413C1F6FF731B689A4207D9FC
:4003800048F22833C1F6FF736FF002021A701CE048F21813C1F6FF731A68FB791046194600F0DCF803461A4648F22833C1F6FF731A7048F21813C1F6FF731A68FB791A44C6
:4003C00048F21813C1F6FF731A6048F22833C1F6FF731B78FD2B1CD0FF2B34D148F21013C1F6FF7348F22412C1F6FF721A6048F21013C1F6FF731A6848F20C13C1F6FF733F
:400400001A6048F22433C1F6FF734FF000021A7019E048F21813C1F6FF7348F22422C1F6FF721A6048F21813C1F6FF731A6848F21413C1F6FF731A6048F22533C1F6FF7345
:400440004FF000021A7007F10C07BD4690BD00BF2482FF1F80B400AF48F22D33C1F6FF731B7803F10103DAB248F22D33C1F6FF731A70BD4680BC704780B500AF48F22E3354
:40048000C1F6FF731B7803F1FF33DAB248F22E33C1F6FF731A7048F22E33C1F6FF731B78002B08D148F22C33C1F6FF731B78002B01D100F0EFFE80BD80B500AF48F22D333B
:4004C000C1F6FF734FF000021A7000F041FE01F09BF801F0F1F840F25540C0F2000001F0ABF840F27940C0F2000001F0FDF801F0CBF801F021F900F0CDFE00F037FF4FF00C
:400500000003184680BD00BF80B400AF48F22D33C1F6FF731B781846BD4680BC704700BF80B582B000AF00F0C1FE00F0CBFE0346FB7148F22D33C1F6FF731B7803F1FF3363
:40054000DAB248F22D33C1F6FF731A7000F0A2FEFB79184607F10807BD4680BD80B582B000AF78600B46FB7000F0A0FE48F22C33C1F6FF734FF001021A7048F22E33C1F6E1
:40058000FF731A78FB781344DAB248F22E33C1F6FF731A70FB787868194600F04FFF48F22C33C1F6FF734FF000021A704FF00003184607F10807BD4680BD00BF80B485B007
:4005C00000AF78604FF00003BB737B689A787B68DB781344BB734FF00003FB730AE0FA7B7B6813441A79BB7B1344BB73FB7B03F10103FB73FA7B7B68DB7803F1FF339A4234
:40060000EDDBBB7B6FEA0303BB73BB7B184607F11407BD4680BC704780B586B000AF0346FB7107F108034FF000021A6003F104034FF000021A6003F104034FF000021A6099
:4006400003F104034FF000021A7003F101034FF0FF333B724FF0FF337B72FB79BB724FF00203FB724FF001033B7307F108031846FFF7A4FF03463B7507F108031846FFF7B3
:400680000DFD0346FB7507F11807BD4680BD00BF90B585B000AF4FF000037B604FF00003BB604FF00003FB737C6800F071FC03461A4648F23033C1F6FF731A557A6848F2D3
:4006C0003033C1F6FF739B5C002B04D1BB6803F10103BB6017E07A6848F23033C1F6FF739B5CFF2B0FD17B68002B0CDD7B6803F1FF3248F23033C1F6FF739B5CFF2B02D1E8
:400700004FF00103FB737B6803F101037B607B68042BC9DD07F11407BD4690BD80B500AF48F22F43C1F6FF731B7883F00103DAB248F22F43C1F6FF731A7048F22F43C1F626
:40074000FF731B78184600F091FA80BD80B582B000AF4FF00100FFF75FFF07F10807BD4680BD00BF80B582B002AF48F23030C1F6FF704FF000014FF0FF0201F03BFC4FF0EF
:40078000010300934FF0000044F24021C0F20F0140F21D72C0F200024FF0020300F05EF800F052FB4FF0010300934FF0020044F24021C0F20F0140F24D72C0F200024FF07A
:4007C000020300F04BF8BD4680BD00BF80B500AFFFF75EFF80BD00BF80B400AF48F23043C1F6FF734FF001021A70BD4680BC704780B500AF48F2D843C1F6FF734FF0000271
:400800001A6048F2D843C1F6FF731A6848F2D443C1F6FF731A6048F23440C1F6FF704FF000014FF0A00201F0E5FB00F03FFA40F2D970C0F2000000F0D9F900F0BFF94CF682
:400840000020C3F69A3000F093FA00F05FFA00F0D9FA4FF00003184680BD00BF80B485B000AFB9607A600246FA73FB70FA7B48F23443C1F6FF734FEA021213444FF0000251
:400880001A60FA7B48F23443C1F6FF734FEA0212134403F10403BA681A60FA7B48F23443C1F6FF734FEA420202F10102796843F83210FB7B48F23442C1F6FF724FEA430347
:4008C00003F101034FEAC3031344FA781A71FB7B48F23442C1F6FF724FEA430303F101034FEAC30313443A7E5A7107F11407BD4680BC704780B582B000AF00F065FA034658
:400900006FEA030248F2D443C1F6FF731A6048F21C13C1F6FF731B78002B11D048F2D443C1F6FF731A6848F2D843C1F6FF731A6048F21C13C1F6FF734FF000021A70B0E053
:4009400048F23043C1F6FF731B78012B19D148F2D443C1F6FF731A6848F2D843C1F6FF731B68C3EB02024CF60023C3F69A3313447B6048F23043C1F6FF734FF000021A708B
:400980000CE048F2D443C1F6FF731A6848F2D843C1F6FF731B68C3EB02037B6048F2D443C1F6FF731A6848F2D843C1F6FF731A604FF00003FB7071E0FB7848F23442C1F6F4
:4009C000FF724FEA430303F101034FEAC30313445B79012B5ED1F978FA7848F23443C1F6FF734FEA021213441A687B681A4448F23443C1F6FF734FEA01110B441A60FA7806
:400A000048F23443C1F6FF734FEA021213441A68F97848F23443C1F6FF734FEA01110B4403F104031B689A4234D3FA7848F23443C1F6FF734FEA420202F1010253F8323004
:400A40009847FB7848F23442C1F6FF724FEA430303F101034FEAC30313441B79022B0ED0FB7848F23442C1F6FF724FEA430303F101034FEAC30313444FF000025A71FA784A
:400A800048F23443C1F6FF734FEA021213444FF000021A60FB7803F10103FB70FB78092B8AD907F10807BD4680BD00BF80B582B000AF62B6FFF700FD0346FB71FFF798FEB5
:400AC0000346FB71FFF74EFEFFF7DEFBFFF77AFBFFF710FFFFF77AFEF6E700BF80B400AFFEE700BF054B1C7844F001041C70044B1A78D2B2034B1A70FFF78AFAE846004061
:400B0000F8460040BC76004080B582B000AF4EF60C53CEF2000340F20042C0F2FA521A604EF61453CEF200034EF61452CEF20002126842F400721A604FF000037B6019E0D1
:400B400079687B68032B07D87A6840F20003C0F2000353F8223003E040F6DD23C0F2000348F20002C1F6FF7242F821307B6803F101037B607B682F2BE2D947F2BC63C4F2C2
:400B800000031B78DAB248F23853C1F6FF731A704EF60853CEF2000348F20002C1F6FF721A6001F02DF848F20013C1F6FF734FF000021A6007F10807BD4680BD80B500AFE9
:400BC00000F048F840F6E130C0F2000000F00EF84FF0070000F01EF800F030F880BD00BF80B400AFBD4680BC704700BF80B485B000AF78604EF60853CEF200031B68FB60AE
:400C0000FB6803F144037A681A6007F11407BD4680BC704780B483B000AF0346FB714EF20143CEF20003FA794FEA4212D2B21A7007F10C07BD4680BC704700BF80B400AFEE
:400C40004EF20013CEF200034FF002021A60BD4680BC704780B400AF4EF28013CEF200034FF002021A60BD4680BC704780B485B000AF0346FB7145F22013C4F200031B78FC
:400C8000DBB223F00103FB7345F22013C4F20003FA7902F00102F97B42EA0102D2B21A7007F11407BD4680BC704700BF80B582B000AF4CF6FF10C3F69A3000F059F84CF6B1
:400CC000FF10C3F69A3000F06FF800F099FD0346FB7146F29453C4F2000346F29452C4F200021278D2B242F01002D2B21A70FB79184600F089FD00F077F84FF0010000F0EB
:400D00001BF807F10807BD4680BD00BF80B400AF46F27553C4F2000346F27552C4F200021278D2B26FEA42626FEA5262D2B21A70BD4680BC704700BF80B483B000AF03460D
:400D4000FB7146F28453C4F20003FA791A7007F10C07BD4680BC704780B400AF46F26453C4F200031B78DBB21846BD4680BC704780B483B000AF786046F22453C4F20003EC
:400D80007A681A6007F10C07BD4680BC704700BF80B400AF46F24453C4F200031B681846BD4680BC704700BF80B483B000AF786046F20453C4F200037A681A6007F10C0779
:400DC000BD4680BC704700BF80B400AF46F20453C4F200031B6846F24453C4F200031B681846BD4680BC704780B500AF01E0FFF7CFFFFFF7B1FF034603F00803002BF6D1C9
:400E000080BD00BF80B400AF44F2A233C4F2000344F2A232C4F200021278D2B242F00102D2B21A7044F2B233C4F2000344F2B232C4F200021278D2B242F00102D2B21A7005
:400E4000BD4680BC704700BF80B500AF48F2DC43C1F6FF731B78002B08D100F00BF848F2DC43C1F6FF734FF001021A7000F036F880BD00BF80B500AF4FF0050041F26501A4
:400E8000C0F2000100F0D0FC4FF005004FF0070100F0FAFC46F28A53C4F200034FF072021A7046F28953C4F200034FF020021A7046F22A43C4F200034FF007021A7046F227
:400EC0003A43C4F200034FF048021A7046F28B43C4F200034FF001021A7080BD80B582B000AF00F08DFC0346FB7146F29A53C4F2000346F29A52C4F200021278D2B242F0A3
:400F00002002D2B21A7046F29953C4F2000346F29952C4F200021278D2B242F01002D2B21A704EF20013CEF200034FF020021A6046F29B43C4F2000346F29B42C4F20002DC
:400F40001278D2B242F01002D2B21A7000F00CFCFB79184600F058FC07F10807BD4680BD80B400AF4EF20013CEF200034FF020021A60BD4680BC704780B400AF4EF280133C
:400F8000CEF200034FF020021A60BD4680BC704780B582B000AF4FF000033B71FFF7ECFF48F2DD43C1F6FF731B78BB7148F2DE43C1F6FF731B78FB7148F2DF43C1F6FF736E
:400FC0001B78DBB2002B03D1BA79FB799A4226D0BA7948F2EC43C1F6FF739B5C3B71BB7903F10103BB71BB790B2B02D94FF00003BB7148F2DD43C1F6FF73BA791A7048F26C
:40100000DF43C1F6FF731B78DBB2002B21D048F2DF43C1F6FF734FF000021A701AE046F26953C4F200031B787B717B7903F02003002B0FD046F24953C4F200031B783B71D3
:401040007B7903F01E03002B04D04FF000033B7100E000BFFFF784FF3B79184607F10807BD4680BD80B483B000AF4FF00003FB7146F26953C4F200031B78BB715EE048F262
:40108000DE43C1F6FF731B78DBB21A4646F24953C4F200031B78D9B248F2EC43C1F6FF7399544FF00103FB71FB79002B40D048F2DF43C1F6FF731B78DBB2002B06D048F2FE
:4010C000E043C1F6FF734FF001021A7048F2DE43C1F6FF731B78DBB203F10103DAB248F2DE43C1F6FF731A7048F2DE43C1F6FF731B78DBB20B2B06D948F2DE43C1F6FF7365
:401100004FF000021A7048F2DE43C1F6FF731B78DAB248F2DD43C1F6FF731B78DBB29A4206D148F2DF43C1F6FF734FF001021A7046F26953C4F200031B78BB71BB7903F007
:401140002003002B9BD107F10C07BD4680BC704780B500AF48F2E243C1F6FF731B78002B08D100F00BF848F2E243C1F6FF734FF001021A7000F044F880BD00BF80B500AF5E
:401180004FF0030041F28541C0F2000100F04CFB4FF003004FF0070100F076FB46F28853C4F200034FF072021A7046F28753C4F200034FF020021A704FF0040041F2715129
:4011C000C0F2000100F030FB4FF004004FF0070100F05AFB46F22843C4F200034FF007021A7046F23843C4F200034FF048021A7046F28943C4F200034FF002021A7080BDDE
:4012000080B582B000AF00F0FBFA0346FB7146F29853C4F2000346F29852C4F200021278D2B242F02002D2B21A7046F29753C4F2000346F29752C4F200021278D2B242F0E4
:401240001002D2B21A704EF20013CEF200034FF008021A6046F29943C4F2000346F29942C4F200021278D2B242F01002D2B21A704EF20013CEF200034FF010021A6000F0AC
:4012800095FAFB79184600F0BFFA07F10807BD4680BD00BF80B400AF4EF20013CEF200034FF008021A60BD4680BC704780B400AF4EF28013CEF200034FF008021A60BD462D
:4012C00080BC704780B582B000AFFFF7EFFF48F2E543C1F6FF731B78BB7148F2E643C1F6FF731B78FB7148F2E743C1F6FF731B78DBB2002B03D1BA79FB799A4226D0BA79D4
:4013000048F2F843C1F6FF739B5C7B71BB7903F10103BB71BB791F2B02D94FF00003BB7148F2E543C1F6FF73BA791A7048F2E743C1F6FF731B78DBB2002B0ED048F2E743AB
:40134000C1F6FF734FF000021A7007E046F24B53C4F200031B787B7100E000BFFFF79AFF7B79184607F10807BD4680BD80B400AF4EF20013CEF200034FF010021A60BD46F6
:4013800080BC704780B485B000AF0346FB7148F2E443C1F6FF731B78BB7348F2E343C1F6FF731B78FB73BA7BFB7B9A4209D2BA7BFB7B03F1FF339A4214BF00230123DBB2E2
:4013C00008E0BA7BFB7BC3EB02031F2B14BF00230123DBB2002BDAD1FA7BBB7B9A4210D146F26943C4F200031B78DBB203F00403002B06D146F24943C4F20003FA791A7045
:4014000016E0BB7B1F2B02D94FF00003BB73BA7B48F21853C1F6FF73F9799954BB7B03F10103BB7348F2E443C1F6FF73BA7B1A7007F11407BD4680BC704700BF80B584B0B3
:4014400000AF78600B46FB704FF00003FB7348F2E243C1F6FF731B78002B0ED0FA7B7B6813441B781846FFF78DFFFB7B03F10103FB73FA7BFB789A42F0D307F11007BD46BE
:4014800080BD00BF80B483B000AF4FF00003FB7146F26753C4F200031B78BB715EE048F2E643C1F6FF731B78DBB21A4646F24B53C4F200031B78D9B248F2F843C1F6FF736D
:4014C00099544FF00103FB71FB79002B40D048F2E743C1F6FF731B78DBB2002B06D048F2E843C1F6FF734FF001021A7048F2E643C1F6FF731B78DBB203F10103DAB248F22F
:40150000E643C1F6FF731A7048F2E643C1F6FF731B78DBB21F2B06D948F2E643C1F6FF734FF000021A7048F2E643C1F6FF731B78DAB248F2E543C1F6FF731B78DBB29A4271
:4015400006D148F2E743C1F6FF734FF001021A7046F26753C4F200031B78BB71BB7903F02003002B9BD107F10C07BD4680BC704780B400AF2EE048F2E343C1F6FF731B78E2
:40158000DBB21F2B06D948F2E343C1F6FF734FF000021A7046F24943C4F2000348F2E342C1F6FF721278D2B2114648F21852C1F6FF72525CD2B21A7048F2E343C1F6FF73A7
:4015C0001B78DBB203F10103DAB248F2E343C1F6FF731A7048F2E343C1F6FF731B78DAB248F2E443C1F6FF731B789A4209D046F26943C4F200031B78DBB203F00403002BD8
:40160000B9D0BD4680BC704780B500AF00F048F841F22D60C0F2000000F00EF84FF0070000F01EF800F030F880BD00BF80B400AFBD4680BC704700BF80B485B000AF7860C7
:401640004EF60853CEF200031B68FB60FB6803F140037A681A6007F11407BD4680BC704780B483B000AF0346FB714EF20043CEF20003FA794FEA4212D2B21A7007F10C0701
:40168000BD4680BC704700BF80B400AF4EF20013CEF200034FF001021A60BD4680BC704780B400AF4EF28013CEF200034FF001021A60BD4680BC704780B500AF00F048F88B
:4016C00041F2DD60C0F2000000F00EF84FF0070000F01EF800F030F880BD00BF80B400AFBD4680BC704700BF80B485B000AF78604EF60853CEF200031B68FB60FB6803F153
:4017000048037A681A6007F11407BD4680BC704780B483B000AF0346FB714EF20243CEF20003FA794FEA4212D2B21A7007F10C07BD4680BC704700BF80B400AF4EF20013E2
:40174000CEF200034FF004021A60BD4680BC704780B400AF4EF28013CEF200034FF004021A60BD4680BC704780B400AF44F2A233C4F2000344F2A232C4F200021278D2B24C
:4017800042F00202D2B21A7044F2B233C4F2000344F2B232C4F200021278D2B242F00202D2B21A70BD4680BC704700BF80B400AF44F2A233C4F2000344F2A232C4F20002CF
:4017C0001278D2B242F00402D2B21A7044F2B233C4F2000344F2B232C4F200021278D2B242F00402D2B21A70BD4680BC704700BF0230800803D000BF01380046FCD1704797
:40180000EFF3108072B6704780F31088704700BF80B483B000AF0346FB7101BE07F10C07BD4680BC704700BF80B584B000AF03463960FB714EF60853CEF200031B68FB60E6
:40184000FB791F2B03D94FF00000FFF7E1FFFB7903F01F0303F110034FEA8302FB6813441B68BB60FB7903F01F0303F110034FEA8302FB6813443A681A60BB68184607F176
:401880001007BD4680BD00BF80B582B000AF02460B46FA71BB71BB79072B03D94FF00000FFF7B6FFFB791F2B03D94FF00000FFF7AFFFFB7903F01F0303F1604303F5644364
:4018C000BA794FEA4212D2B21A7007F10807BD4680BD00BF80B485B000AF786039607B68BB604FF00003FB6009E0BA68FB6813444FF000021A70FB6803F10103FB60FA6848
:401900003B689A42F1D307F11407BD4680BC704780B489B000AFF860B9607A60FB687B61BB68BB614FF00003FB610BE07A69FB691344B969FA690A4412781A70FB6903F110
:401940000103FB61FA697B689A42EFD307F12407BD4680BC704700BF80B582B000AF7860396078684FF000013A6800F043FB07F10807BD4680BD00BF80B584B000AFF8605E
:40198000B9607A60F868B9687A6800F06BFA07F11007BD4680BD00BF80B487B000AF786039604FF00003FB604FF00003BB602CE0BB684FEA83027B6813441B683B613B69FF
:4019C000FB753B6923F0FF033B6117E0FB684FEA43023B6813441B781A463B691344FA684FEA42013A680A4452781A70FB6803F10103FB60FB7D03F1FF33FB75FB7D002BD9
:401A0000E4D1BB6803F10103BB60BB681D2BCFD907F11C07BD4680BC704700BF80B500AF44F28003C4F200034FF017021A8044F28203C4F200034FF018021A7044F284037C
:401A4000C4F200034FF019021A8044F28603C4F200034FF018021A7044F28803C4F200034FF019021A8044F28A03C4F200034FF018021A7044F20033C4F200034FF002022C
:401A80001A7044F20003C4F200034FF008021A7044F20023C4F200034FF003021A7044F2A163C4F2000340F20812C4F600121278D2B21A7044F22223C4F200034FF00802D7
:401AC0001A8044F22023C4F2000341F251021A8040F6B830FFF78CFE44F20403C4F200034FF003021A7044F20503C4F200034FF001021A7044F20403C4F200034FF000029E
:401B00001A7044F20403C4F200034FF007021A7044F20603C4F200034FF000021A7044F20803C4F200034FF048021A7044F20403C4F200034FF000021A7044F20103C4F2D2
:401B400000034FF002021A7044F2A233C4F2000344F2A232C4F200021278D2B242F00702D2B21A7080BD00BF80B400AF44F2AA33C4F200034FF444721A8045F62003C4F266
:401B800000034FF01E021A7045F62403C4F200034FF01E021A7045F62803C4F200034FF01E021A7045F62C03C4F200034FF01E021A7045F60013C4F200036FF03F021A70F0
:401BC00045F60313C4F200034FF00C021A7045F60813C4F200036FF03F021A7045F60B13C4F200034FF00C021A7045F67603C4F200034FF044021A70BD4680BC704700BFB1
:401C000080B582B000AF72B644F60003C4F200034FF000021A70FFF701FF44F60003C4F200036FF07F021A7047F21003C4F200034FF000021A7047F22003C4F200034FF02B
:401C400000021A7045F67C03C4F200034FF001021A7044F2E863C4F2000344F2E862C4F200021278D2B242F00102D2B21A704FF00003FB702FE0FA7813464FEA4303134479
:401C80004FEA43031A4642F24C13C0F2000313447B607B681A7859784FEA012141EA020299784FEA014141EA0202DB784FEA036343EA02031A467B6819795B794FEA032314
:401CC00043EA01039BB210461946FFF745FEFB7803F10103FB70FB78072BCCD94FF0904040F27801C4F60001FFF756FE45F20020C4F2000040F63401C4F600014FF007021E
:401D0000FFF706FE45F20820C4F200004FF00701FFF7E0FD45F21020C4F200004FF00701FFF7D8FD45F21820C4F200004FF00701FFF7D0FD45F22020C4F200004FF00701A8
:401D4000FFF7C8FD45F22820C4F200004FF00701FFF7C0FD45F23020C4F200004FF00701FFF7B8FD45F26020C4F200004FF00601FFF7B0FD45F27820C4F200004FF0070128
:401D8000FFF7A8FD45F20303C4F2010345F20302C4F201021278D2B242F00202D2B21A7045F21303C4F2010345F21302C4F201021278D2B242F00202D2B21A7044F2A033E3
:401DC000C4F2000344F2A032C4F200021278D2B242F04002D2B21A7044F2C233C4F2000344F2C232C4F200021278D2B242F01002D2B21A7045F20010C4F2000040F6200160
:401E0000C4F600014FF00A02FFF7B6FD45F22210C4F2000040F62C01C4F600014FF00802FFF7AAFDFFF7A0FE44F2B030C4F2000044F2A031C4F200014FF00C02FFF79CFDD6
:401E400044F2B033C4F2000344F2B032C4F200021278D2B202F0FD021A7007F10807BD4680BD00BF032A2DE9F0070BD83AB1002311F803C000F803C001339342F8D1BDE808
:401E8000F007704782180C46034603E014F8011C03F8011C03F003061946A44601330134002EF3D11CF00304634608BFC1EB020C68D06542C4F1040A0CEB050733464FEAE7
:401EC000CA0A5CF805604FEAC408551A08E057F8044F264604FA0AF449EA0404CC5004335C18032D26FA08F9A5F104050CEB0306EDDC002302E0F15CE15401331919914274
:401F0000F9D3BCE753F8404C41F8404C53F83C4C41F83C4C53F8384C41F8384C53F8344C41F8344C53F8304C41F8304C53F82C4C41F82C4C53F8284C41F8284C53F8244CDB
:401F400041F8244C53F8204C41F8204C53F81C4C41F81C4C53F8184C41F8184C53F8144C41F8144C53F8104C41F8104C53F80C4C41F80C4C53F8084C41F8084C53F8044C41
:401F800041F8044C1C460D4640334031BCF13F0FACF1400CB6DC21462B46541B0FE051F8105C43F8105C51F80C5C43F80C5C51F8085C43F8085C51F8045C43F8045C0F2CD8
:401FC0000D469C4601F1100103F11003A4F11004E5DCCCEB0201002303E0EC584CF8034004335E19032903EB0C04A1F10401F4DC7FE700BF032AC9B230B407D822B10023E8
:40200000C15401339342FBD130BC704700EB020C034601E003F8011C03F003041A460133002CF7D14FF00133C2EB0C0403FB01F31FE042F8403C42F83C3C42F8383C42F8E5
:40204000343C42F8303C42F82C3C42F8283C42F8243C42F8203C42F81C3C42F8183C42F8143C42F8103C42F80C3C42F8083C42F8043C154640323F2CA4F14004D9DC2A46FA
:40208000C5EB0C0407E042F8103C42F80C3C42F8083C42F8043C154610320F2CA4F11004F1DC2A46C5EB0C0501E042F8043C14460432032DA5F10405F7DC01E004F8011B74
:4020C0006445FBD3A0E700BF08B500F017F8074800B10068064901B109680022FEF7E6FC044B0BB1AFF30080FEE700BF000000000000000000000000FEE7000070B542F285
:40210000881642F28815C0F20006C0F20005761BB61006D0002455F8243001349847A642F9D842F2881542F29016C0F20005C0F20006761B00F022F8B61006D0002455F840
:40214000243001349847A642F9D870BD105100401000305100404000C05100401000F0510040100000000140001000140140000800400140000A004C01400002F8B500BF39
:40218000F8BC08BC9E46704781000000090B0000F8B500BFF8BC08BC9E4670476D00000000000000B82100000881FF1F180000002004000000000000000000002481FF1F0C
:4021C0002481FF1F2482FF1F2482FF1F0100000000000000000000000000000000000000000000000000000000000000000000000000000000000000000000000000000093
:40220000000000000000000000000000000000000000000000000000000000000000000000000000000000000000000000000000000000000000000000000000000000009E
:40224000000000000000000000000000000000000000000000000000000000000000000000000000000000000000000000000000000000000000000000000000000000005E
:40228000000000000000000000000000000000000000000000000000000000000000000000000000000000000000000000000000000000000000000000000000000000001E
:4022C00000000000000000000000000000000000000000000000000000000000000000000000000000000000000000000000000000000000000000000000000000000000DE
:020000040003F7
:0200000480007A
:40000000026400400565004001050140010701405E08014042090140600A0140380B01405C1401404D1501405C1601403C1701404C18014031190140521A01404B1B01405F
:4000400007400140064101400742014006430140044401400245014002460140024701400248014003490140034C0140034D01400750014002510140890F8B0F840D873851
:40008000887289388A72E601E602001404090610070F080C09010A110B0615011603170A1A10202024102504260C281C290C2A022B01321F330E342035073B2840064510E9
:4000C0004650480A49FF4A074BFF4C404D204EF04F055008580459045A045C225D02604061A862406320840387398801890C8B1191029404950D9710990D9A029B30A00866
:40010000A803A924AB01B008B101B302B403B53CB604B820BB20BE11BF05C064C103C5E0C6CBC80EC9FFCAFFCBFFCEF0CF44D00CD401D604D804D904DA04DB04DC21DD22B7
:40014000E6C0EA40EB020008013003040414064009080A040C200D0810801208151117081A401B901C041D081E041F0420082214238824102608270429202D102F203101A9
:400180003218370838243C103E0440104240480449014C804D014F2050105240531054205720581059015A085B8063406410672087409C80A140C076C266C47ACA64CC475D
:4001C000CE66D003D224D60FD8010404060109100E070F3C14011506160617181D01200121062202232824042532310132073338350639203A083B083F1040024651480C82
:4002000049FF4A074BFF4C404D204EF04F055008580459045A045C115D01604061A862406320800682188412892C8B118E1C8F039130930C9406951C96089722A001A109B8
:40024000A330A406A608A720AB10AC20AD14B01EB120B220B401B71FBA02BE14BF01C042C106C5E0C6C0C7B0C82AC9FFCAFFCBFFCEF0CF44D00CD401D804D904DA04DB044A
:40028000DC11DD11E6C0EA40EB02004001080440050909080F10106014201581161019081D011E081F0420442108231025402780284029092D102F62308031083509384020
:4002C00039103A083BA83D803F104004444046084D014F1050A051405310561057225C205D015E085F808080C0B5C224C4BCCAF3CCCACE3CD0A4D220D6F0000C0301040F58
:4003000007100803090E0A0C0D0C0E01100C110E120314021504180F1B101C081F022108220324032502270C290C2B022C042F013101330E340F37103A203F41405449FFEC
:400340004AFF4BFF4F01501854015604580459045A045B045C226040624064406540668068806A806C806E808006840788068A01900692019401960698089E01A004AC025D
:40038000B008B407BA20BE01C041C9FFCAFFCBFFCD83CE03CF01D018D804DA04DB04DC02E040E240E440E540E680E880EA80EC80EE80008001200240031005100640071080
:4003C00008480A440C820D100F2010801144144015C019201B301D101E041F11210423A1284029102A802B203092310833403820390A3A4041014681480159065B80634043
:400400007401768081208540872088108C488D48902091A6924094409763984099069A419B509D609E80A042A880B108B340B744C07FC2FFC49DCA0FCC0FCE0FD091D20846
:40044000D60BD801E002E401E608EA200206041F08070A180D010E0110191204181919021A021C102018250229022A012C082D02301F350237013A023B083F10404149FF4A
:400480004AFF4BFF4D834E034F015018580459045A045C226040624064406540668068806A806C806E808304850388018B018D0292019303940195039B039F04A601A90381
:4004C000AF03B103B504B601B880BF10C041C5ECC720C823C9FFCAFFCBFFCD83CE03CF01D018D418D604D804D904DA04DB04DC22DD20E040E240E440E540E680E880EA806D
:40050000EC80EE8001200521075209080A400C600E40102015801640172018021E402201230424202508271629A02C222DA02E402F10302031493710384239243A043C80F7
:4005400040024280440246814906510152015A02608063058140830184408640884089108B208E04C0F2C2DCC4D4CA7CCC2FCE1FD099D601D80DE209E404E608053F093FDD
:400580000D090F1215011706190C1B112D203120331835075602571359045B045C205D2082018308878089878B508DF18E018F069308950699029D04A380A5F7A986AB3106
:4005C000AF61B001B110B3E6B508B707B902BA20BB08BE01BF10C043C102C205C406C5C0C7E0C822C9FFCAFFCBFFCC62CDA0CEF0CF41D00CD418D604D804D904DA04DB0436
:40060000DC11DD11E640E702E910EA30EB10ED10EE10EF12008218041B212012210A230425052602271429802BA82F0230A83102371438503B0A3D803E14404441044841AA
:40064000491053015A025F01608063066E146F0276268204862289408F0493089C80A140A380C009CA1FCC6FCE7FD007D20CD681D80DE404E630043F05FC081F09FC0A2031
:400680000C330D030E0C11801223141C152416231752188019031A021C031D071E401F1820082129234424042703280C2B032C012E802F03300F3103322C338034C03560B1
:4006C0003610371C3A0A3E5056025713580459045B045C115D1087018D0197029801B303B601BE40BF04C015C104C203C402C7ECC830C9FFCAFFCBFFCC62CDA0CEF0CF41D1
:40070000D00CD804D904DA04DD02E640E702E910EA30EB10ED10EE10EF12004402200308080409880A0C0B880E0410A81201184019141A011B081C022184220123082710AF
:40074000280429842A013002318032243704384039143D883F08469047504E02560857015A016802691470A8834086108701880189848A088B408E018F0C90049308944062
:40078000950896029A809B049D90A14CA202A4A8A708B280B501B701C007C24FC40FCA0FCC4FCE5ED0F0D210D601E260EA10EC30334836413B406E026F40CCF0CE103240BE
:4007C00097409F40A640A708CC108240968097409F40A640A708E680874897409F40A640A708E64058405C40D401D60494409C4094409C4094409C409F40A640AB40B24074
:40080000EE80804094409C4088409C40E001000602100C06100712101A051C0600FF010F010000030300030000000000000101000000000002030000000000000000000091
:400840000000000000000000000000000000000000000000000000000000000000000000000000000000000000000000000000000000000000000000000000000000000078
:400880000000000000000000000000000000000000000000000000000000000000000000000000000000000000000000000000000000000000000000000000000000000038
:4008C00000000000000000000000000000000000000000000000000000000000000000000000000000000000000000000000000000000000000000000000000000000000F8
:4009000000000000000000000000000000000000000000000000000000000000000000000000000000000000000000000000000000000000000000000000000000000000B7
:0200000490006A
:0400000000000006F6
:0200000490105A
:04000000BC90ACAF55
:0200000490303A
:02000000C8F640
:0200000490501A
:0C00000000010E13C06901010E25895F8C
:0200000490402A
:4000000000000000000000000000000000000000000000000000000000000000000000000000000000000000000000000000000000000000000000000000000000000000C0
:400040000000000000000000000000000000000000000000000000000000000000000000000000000000000000000000000000000000000000000000000000000000000080
:400080000000000000000000000000000000000000000000000000000000000000000000000000000000000000000000000000000000000000000000000000000000000040
:4000C0000000000000000000000000000000000000000000000000000000000000000000000000000000000000000000000000000000000000000000000000000000000000
:00000001FF
