:4000000000800020350A00002D0A00002D0A000080B51448144B21E05C689968DD688C420CD0002205E0A6180832D6E9008941E902898C460831AA42F5D101E004EB050C34
:400040001C696146002204E008320026002741E902670831A242F7D1143301380028DBD101F0F0FE01000000301F000048F22013C1F6FF731A780AB901201870704700BFC2
:4000800048F20810C1F6FF7008B503682BB140F20003C0F2000303B1984708BD2DE9F04387B000AF786069460E467968C97801F1040C0CF1FF31F960614608464FF0000199
:4000C0004FF0FF384FF00F0900EA080001EA09014FEA507E4FEAC1054EEA05054FEAC0044FF0FF304FF00F0104EA000405EA0105614608464FF000014FF0FF344FF00F0569
:4001000000EA040001EA05014FEA507E4FEAC1034EEA03034FEAC0024FF0FF304FF00F0102EA000203EA0103634603F1070303F107034FEAD3034FEAC303ADEB030D6B46FB
:4001400003F107034FEAD3034FEAC3033B617B681A783B691A707B685A783B695A707B689A783B699A707B68DA783B69DA703B6903F104017B6803F104027B68DB7808464D
:4001800011461A4601F02CFD7B68DB7803F104037A68117B3A69D1543A697B68DB7803F10403DBB21046194600F012F80346FB754FF00003B546184607F11C07BD46BDE8E0
:4001C000F08300BF80B400AFBD4680BC704700BF80B582B000AF78600B46FB7048F22733C1F6FF731B781A46FB78134403F10103B3F5807F02DD4FF0FE0340E048F20C13DA
:40020000C1F6FF731B68FA781A7048F20C13C1F6FF731B6803F10102FB78104679681A4601F0DEFC48F20C13C1F6FF731A68FB7803F101031A4448F20C13C1F6FF731A607C
:4002400048F22733C1F6FF731A78FB781344DBB203F10103DAB248F22733C1F6FF731A7048F22533C1F6FF731B7803F10103DAB248F22533C1F6FF731A704FF00003184656
:4002800007F10807BD4680BD90B583B000AF48E048F20C13C1F6FF731B6803F1010248F21013C1F6FF731B689A4207D148F22833C1F6FF734FF0FF321A703EE048F20C13C0
:4002C000C1F6FF731B6803F1010248F20C13C1F6FF731A6048F20C13C1F6FF731A685C4B9A4208D148F20C13C1F6FF7348F22412C1F6FF721A6048F20C13C1F6FF731C6865
:4003000000F00EF90346237048F22433C1F6FF731B7803F10103DAB248F22433C1F6FF731A7000F0F1F80346002B06D048F22833C1F6FF731B78002BAAD048F22533C1F673
:40034000FF731B78002B40D048F22833C1F6FF731B78002B39D148F21813C1F6FF731B681B78FB7148F21813C1F6FF731A68FB791A4448F21413C1F6FF731B689A4207D9FC
:4003800048F22833C1F6FF736FF002021A701CE048F21813C1F6FF731A68FB791046194600F0DCF803461A4648F22833C1F6FF731A7048F21813C1F6FF731A68FB791A44C6
:4003C00048F21813C1F6FF731A6048F22833C1F6FF731B78FD2B1CD0FF2B34D148F21013C1F6FF7348F22412C1F6FF721A6048F21013C1F6FF731A6848F20C13C1F6FF733F
:400400001A6048F22433C1F6FF734FF000021A7019E048F21813C1F6FF7348F22422C1F6FF721A6048F21813C1F6FF731A6848F21413C1F6FF731A6048F22533C1F6FF7345
:400440004FF000021A7007F10C07BD4690BD00BF2482FF1F80B400AF48F22D33C1F6FF731B7803F10103DAB248F22D33C1F6FF731A70BD4680BC704780B500AF48F22E3354
:40048000C1F6FF731B7803F1FF33DAB248F22E33C1F6FF731A7048F22E33C1F6FF731B78002B08D148F22C33C1F6FF731B78002B01D100F063FD80BD80B500AF48F22D33C8
:4004C000C1F6FF734FF000021A7000F0B5FC00F00FFF00F065FF40F25540C0F2000000F01FFF40F27940C0F2000000F071FF00F03FFF00F095FF00F041FD00F0ABFD4FF0DA
:400500000003184680BD00BF80B400AF48F22D33C1F6FF731B781846BD4680BC704700BF80B582B000AF00F035FD00F03FFD0346FB7148F22D33C1F6FF731B7803F1FF337D
:40054000DAB248F22D33C1F6FF731A7000F016FDFB79184607F10807BD4680BD80B582B000AF78600B46FB7000F014FD48F22C33C1F6FF734FF001021A7048F22E33C1F6FB
:40058000FF731A78FB781344DAB248F22E33C1F6FF731A70FB787868194600F0C3FD48F22C33C1F6FF734FF000021A704FF00003184607F10807BD4680BD00BF80B485B095
:4005C00000AF78604FF00003BB737B689A787B68DB781344BB734FF00003FB730AE0FA7B7B6813441A79BB7B1344BB73FB7B03F10103FB73FA7B7B68DB7803F1FF339A4234
:40060000EDDBBB7B6FEA0303BB73BB7B184607F11407BD4680BC704780B586B000AF0346FB7107F108034FF000021A6003F104034FF000021A6003F104034FF000021A6099
:4006400003F104034FF000021A7003F101034FF0FF333B724FF0FF337B72FB79BB724FF00203FB724FF001033B7307F108031846FFF7A4FF03463B7507F108031846FFF7B3
:400680000DFD0346FB7507F11807BD4680BD00BF80B500AF48F22F33C1F6FF731B7883F00103DAB248F22F33C1F6FF731A7048F22F33C1F6FF731B78184600F07FFA80BD77
:4006C00080B582B000AF4FF00100FFF7A5FF07F10807BD4680BD00BF80B582B002AF4FF0010300934FF0000044F24021C0F20F0140F29162C0F200024FF0020300F058F821
:4007000000F04AFB4FF0010300934FF0020044F24021C0F20F0140F2C162C0F200024FF0020300F045F8BD4680BD00BF80B400AF48F23033C1F6FF734FF001021A70BD4623
:4007400080BC704780B500AF48F2D833C1F6FF734FF000021A6048F2D833C1F6FF731A6848F2D433C1F6FF731A6048F23430C1F6FF704FF000014FF0A00201F0F9FA00F0EC
:400780003DFA40F22D70C0F2000000F0D7F900F0BDF94CF60020C3F69A3000F091FA00F05DFA00F0D7FA4FF00003184680BD00BF80B485B000AFB9607A600246FA73FB70EC
:4007C000FA7B48F23433C1F6FF734FEA021213444FF000021A60FA7B48F23433C1F6FF734FEA0212134403F10403BA681A60FA7B48F23433C1F6FF734FEA420202F101022F
:40080000796843F83210FB7B48F23432C1F6FF724FEA430303F101034FEAC3031344FA781A71FB7B48F23432C1F6FF724FEA430303F101034FEAC30313443A7E5A7107F1CC
:400840001407BD4680BC704780B582B000AF00F063FA03466FEA030248F2D433C1F6FF731A6048F21C13C1F6FF731B78002B11D048F2D433C1F6FF731A6848F2D833C1F660
:40088000FF731A6048F21C13C1F6FF734FF000021A70B0E048F23033C1F6FF731B78012B19D148F2D433C1F6FF731A6848F2D833C1F6FF731B68C3EB02024CF60023C3F643
:4008C0009A3313447B6048F23033C1F6FF734FF000021A700CE048F2D433C1F6FF731A6848F2D833C1F6FF731B68C3EB02037B6048F2D433C1F6FF731A6848F2D833C1F629
:40090000FF731A604FF00003FB7071E0FB7848F23432C1F6FF724FEA430303F101034FEAC30313445B79012B5ED1F978FA7848F23433C1F6FF734FEA021213441A687B68E0
:400940001A4448F23433C1F6FF734FEA01110B441A60FA7848F23433C1F6FF734FEA021213441A68F97848F23433C1F6FF734FEA01110B4403F104031B689A4234D3FA7831
:4009800048F23433C1F6FF734FEA420202F1010253F832309847FB7848F23432C1F6FF724FEA430303F101034FEAC30313441B79022B0ED0FB7848F23432C1F6FF724FEA53
:4009C000430303F101034FEAC30313444FF000025A71FA7848F23433C1F6FF734FEA021213444FF000021A60FB7803F10103FB70FB78092B8AD907F10807BD4680BD00BFD6
:400A000080B582B000AF62B6FFF756FD0346FB71FFF798FE0346FB71FFF75EFEFFF734FCFFF7D0FBFFF710FFF8E700BF80B400AFFEE700BF054B1C7844F001041C70044BEE
:400A40001A78D2B2034B1A70FFF7E2FAE8460040F8460040BC76004080B582B000AF4EF60C53CEF2000340F20042C0F2FA521A604EF61453CEF200034EF61452CEF2000216
:400A8000126842F400721A604FF000037B6019E079687B68032B07D87A6840F20003C0F2000353F8223003E040F62D23C0F2000348F20002C1F6FF7242F821307B6803F166
:400AC00001037B607B682F2BE2D947F2BC63C4F200031B78DAB248F22843C1F6FF731A704EF60853CEF2000348F20002C1F6FF721A6000F0F9FE48F20013C1F6FF734FF0BB
:400B000000021A6007F10807BD4680BD80B500AF00F048F840F63130C0F2000000F00EF84FF0070000F01EF800F030F880BD00BF80B400AFBD4680BC704700BF80B485B03E
:400B400000AF78604EF60853CEF200031B68FB60FB6803F144037A681A6007F11407BD4680BC704780B483B000AF0346FB714EF20143CEF20003FA794FEA4212D2B21A708B
:400B800007F10C07BD4680BC704700BF80B400AF4EF20013CEF200034FF002021A60BD4680BC704780B400AF4EF28013CEF200034FF002021A60BD4680BC704780B485B034
:400BC00000AF0346FB7145F22013C4F200031B78DBB223F00103FB7345F22013C4F20003FA7902F00102F97B42EA0102D2B21A7007F11407BD4680BC704700BF80B582B05E
:400C000000AF4CF6FF10C3F69A3000F059F84CF6FF10C3F69A3000F06FF800F065FC0346FB7146F29753C4F2000346F29752C4F200021278D2B242F01002D2B21A70FB7937
:400C4000184600F055FC00F077F84FF0010000F01BF807F10807BD4680BD00BF80B400AF46F27453C4F2000346F27452C4F200021278D2B26FEA42626FEA5262D2B21A70B6
:400C8000BD4680BC704700BF80B483B000AF0346FB7146F28753C4F20003FA791A7007F10C07BD4680BC704780B400AF46F26753C4F200031B78DBB21846BD4680BC7047E9
:400CC00080B483B000AF786046F22453C4F200037A681A6007F10C07BD4680BC704700BF80B400AF46F24453C4F200031B681846BD4680BC704700BF80B483B000AF786093
:400D000046F20453C4F200037A681A6007F10C07BD4680BC704700BF80B400AF46F20453C4F200031B6846F24453C4F200031B681846BD4680BC704780B500AF01E0FFF787
:400D4000CFFFFFF7B1FF034603F00803002BF6D180BD00BF80B400AF44F2A233C4F2000344F2A232C4F200021278D2B242F00102D2B21A7044F2B233C4F2000344F2B23222
:400D8000C4F200021278D2B242F00102D2B21A70BD4680BC704700BF80B500AF48F2DC33C1F6FF731B78002B08D100F00BF848F2DC33C1F6FF734FF001021A7000F01CF853
:400DC00080BD00BF80B400AF46F22853C4F200034FF007021A7046F23853C4F200034FF048021A7046F28953C4F200034FF000021A70BD4680BC704780B582B000AF00F0B3
:400E000073FB0346FB7146F29953C4F2000346F29952C4F200021278D2B242F01002D2B21A7000F015FBFB79184600F061FB07F10807BD4680BD00BF80B500AF48F2DE3324
:400E4000C1F6FF731B78002B08D100F00BF848F2DE33C1F6FF734FF001021A7000F044F880BD00BF80B500AF4FF0030041F26D11C0F2000100F04CFB4FF003004FF007010D
:400E800000F076FB46F28853C4F200034FF072021A7046F28B53C4F200034FF020021A704FF0040041F25921C0F2000100F030FB4FF004004FF0070100F05AFB46F22843DE
:400EC000C4F200034FF007021A7046F23843C4F200034FF048021A7046F28943C4F200034FF002021A7080BD80B582B000AF00F0FBFA0346FB7146F29853C4F2000346F25D
:400F00009852C4F200021278D2B242F02002D2B21A7046F29B53C4F2000346F29B52C4F200021278D2B242F01002D2B21A704EF20013CEF200034FF008021A6046F2994396
:400F4000C4F2000346F29942C4F200021278D2B242F01002D2B21A704EF20013CEF200034FF010021A6000F095FAFB79184600F0BFFA07F10807BD4680BD00BF80B400AFC9
:400F80004EF20013CEF200034FF008021A60BD4680BC704780B400AF4EF28013CEF200034FF008021A60BD4680BC704780B582B000AFFFF7EFFF48F2E133C1F6FF731B782C
:400FC000BB7148F2E233C1F6FF731B78FB7148F2E333C1F6FF731B78DBB2002B03D1BA79FB799A4226D0BA7948F2E833C1F6FF739B5C7B71BB7903F10103BB71BB791F2BD3
:4010000002D94FF00003BB7148F2E133C1F6FF73BA791A7048F2E333C1F6FF731B78DBB2002B0ED048F2E333C1F6FF734FF000021A7007E046F24B53C4F200031B787B7158
:4010400000E000BFFFF79AFF7B79184607F10807BD4680BD80B400AF4EF20013CEF200034FF010021A60BD4680BC704780B485B000AF0346FB7148F2E033C1F6FF731B7819
:40108000BB7348F2DF33C1F6FF731B78FB73BA7BFB7B9A4209D2BA7BFB7B03F1FF339A4214BF00230123DBB208E0BA7BFB7BC3EB02031F2B14BF00230123DBB2002BDAD1C9
:4010C000FA7BBB7B9A4210D146F26943C4F200031B78DBB203F00403002B06D146F24943C4F20003FA791A7016E0BB7B1F2B02D94FF00003BB73BA7B48F20843C1F6FF73B1
:40110000F9799954BB7B03F10103BB7348F2E033C1F6FF73BA7B1A7007F11407BD4680BC704700BF80B584B000AF78600B46FB704FF00003FB7348F2DE33C1F6FF731B7894
:40114000002B0ED0FA7B7B6813441B781846FFF78DFFFB7B03F10103FB73FA7BFB789A42F0D307F11007BD4680BD00BF80B483B000AF4FF00003FB7146F26B53C4F2000360
:401180001B78BB715EE048F2E233C1F6FF731B78DBB21A4646F24B53C4F200031B78D9B248F2E833C1F6FF7399544FF00103FB71FB79002B40D048F2E333C1F6FF731B78B8
:4011C000DBB2002B06D048F2E433C1F6FF734FF001021A7048F2E233C1F6FF731B78DBB203F10103DAB248F2E233C1F6FF731A7048F2E233C1F6FF731B78DBB21F2B06D93C
:4012000048F2E233C1F6FF734FF000021A7048F2E233C1F6FF731B78DAB248F2E133C1F6FF731B78DBB29A4206D148F2E333C1F6FF734FF001021A7046F26B53C4F2000396
:401240001B78BB71BB7903F02003002B9BD107F10C07BD4680BC704780B400AF2EE048F2DF33C1F6FF731B78DBB21F2B06D948F2DF33C1F6FF734FF000021A7046F249431A
:40128000C4F2000348F2DF32C1F6FF721278D2B2114648F20842C1F6FF72525CD2B21A7048F2DF33C1F6FF731B78DBB203F10103DAB248F2DF33C1F6FF731A7048F2DF33D1
:4012C000C1F6FF731B78DAB248F2E033C1F6FF731B789A4209D046F26943C4F200031B78DBB203F00403002BB9D0BD4680BC704780B500AF00F048F841F21530C0F2000049
:4013000000F00EF84FF0070000F01EF800F030F880BD00BF80B400AFBD4680BC704700BF80B485B000AF78604EF60853CEF200031B68FB60FB6803F140037A681A6007F1A1
:401340001407BD4680BC704780B483B000AF0346FB714EF20043CEF20003FA794FEA4212D2B21A7007F10C07BD4680BC704700BF80B400AF4EF20013CEF200034FF0010242
:401380001A60BD4680BC704780B400AF4EF28013CEF200034FF001021A60BD4680BC704780B500AF00F048F841F2C530C0F2000000F00EF84FF0070000F01EF800F030F84A
:4013C00080BD00BF80B400AFBD4680BC704700BF80B485B000AF78604EF60853CEF200031B68FB60FB6803F148037A681A6007F11407BD4680BC704780B483B000AF0346C3
:40140000FB714EF20243CEF20003FA794FEA4212D2B21A7007F10C07BD4680BC704700BF80B400AF4EF20013CEF200034FF004021A60BD4680BC704780B400AF4EF28013C6
:40144000CEF200034FF004021A60BD4680BC704780B400AF44F2A233C4F2000344F2A232C4F200021278D2B242F00202D2B21A7044F2B233C4F2000344F2B232C4F2000293
:401480001278D2B242F00202D2B21A70BD4680BC704700BF80B400AF44F2A233C4F2000344F2A232C4F200021278D2B242F00402D2B21A7044F2B233C4F2000344F2B2327A
:4014C000C4F200021278D2B242F00402D2B21A70BD4680BC704700BF0230800803D000BF01380046FCD17047EFF3108072B6704780F31088704700BF80B483B000AF0346AB
:40150000FB7101BE07F10C07BD4680BC704700BF80B584B000AF03463960FB714EF60853CEF200031B68FB60FB791F2B03D94FF00000FFF7E1FFFB7903F01F0303F11003DB
:401540004FEA8302FB6813441B68BB60FB7903F01F0303F110034FEA8302FB6813443A681A60BB68184607F11007BD4680BD00BF80B582B000AF02460B46FA71BB71BB7928
:40158000072B03D94FF00000FFF7B6FFFB791F2B03D94FF00000FFF7AFFFFB7903F01F0303F1604303F56443BA794FEA4212D2B21A7007F10807BD4680BD00BF80B485B0BA
:4015C00000AF786039607B68BB604FF00003FB6009E0BA68FB6813444FF000021A70FB6803F10103FB60FA683B689A42F1D307F11407BD4680BC704780B489B000AFF860C8
:40160000B9607A60FB687B61BB68BB614FF00003FB610BE07A69FB691344B969FA690A4412781A70FB6903F10103FB61FA697B689A42EFD307F12407BD4680BC704700BFB7
:4016400080B582B000AF7860396078684FF000013A6800F08DFB07F10807BD4680BD00BF80B584B000AFF860B9607A60F868B9687A6800F0B5FA07F11007BD4680BD00BF30
:4016800080B487B000AF786039604FF00003FB604FF00003BB602CE0BB684FEA83027B6813441B683B613B69FB753B6923F0FF033B6117E0FB684FEA43023B6813441B7891
:4016C0001A463B691344FA684FEA42013A680A4452781A70FB6803F10103FB60FB7D03F1FF33FB75FB7D002BE4D1BB6803F10103BB60BB681A2BCFD907F11C07BD4680BCB1
:40170000704700BF80B500AF44F28003C4F200034FF017021A8044F28203C4F200034FF018021A7044F28403C4F200034FF019021A8044F28603C4F200034FF018021A70CF
:4017400044F28803C4F200034FF019021A8044F28A03C4F200034FF018021A7044F20033C4F200034FF002021A7044F20003C4F200034FF008021A7044F20023C4F20003D6
:401780004FF003021A7044F2A163C4F2000340F20812C4F600121278D2B21A7044F22223C4F200034FF008021A8044F22023C4F2000341F251021A8040F6B830FFF78CFEB1
:4017C00044F20403C4F200034FF003021A7044F20503C4F200034FF001021A7044F20403C4F200034FF000021A7044F20403C4F200034FF007021A7044F20603C4F20003E1
:401800004FF000021A7044F20803C4F200034FF048021A7044F20403C4F200034FF000021A7044F20103C4F200034FF002021A7044F2A233C4F2000344F2A232C4F20002C9
:401840001278D2B242F00702D2B21A7080BD00BF80B400AF44F2AA33C4F200034FF444721A8045F62003C4F200034FF01E021A7045F62403C4F200034FF01E021A7045F694
:401880002803C4F200034FF01E021A7045F62C03C4F200034FF01E021A7045F60013C4F200036FF03F021A7045F60313C4F200034FF00C021A7045F60813C4F200036FF0CF
:4018C0003F021A7045F60B13C4F200034FF00C021A7045F67603C4F200034FF044021A70BD4680BC704700BF80B586B000AF72B644F60003C4F200034FF000021A70FFF70A
:4019000001FF44F60003C4F200036FF07F021A7047F21003C4F200034FF000021A7047F22003C4F200034FF000021A7045F67C03C4F200034FF001021A7044F2E863C4F221
:40194000000344F2E862C4F200021278D2B242F00102D2B21A704FF00003FB702FE0FA7813464FEA430313444FEA43031A4641F6C863C0F2000313447B607B681A78597810
:401980004FEA012141EA020299784FEA014141EA0202DB784FEA036343EA02031A467B6819795B794FEA032343EA01039BB210461946FFF745FEFB7803F10103FB70FB7801
:4019C000082BCCD94FF00003FB7043E0FA7813464FEA830313444FEA43031A4641F60073C0F200031344BB60BB681A7859784FEA012141EA020299784FEA014141EA0202E3
:401A0000DB784FEA036343EA0203FB60BB681A7959794FEA012141EA020299794FEA014141EA0202DB794FEA036343EA02033B61BB681A7A5B7A4FEA032343EA0203FB82FE
:401A4000FB8AF86839691A46FFF70AFEFB7803F10103FB70FB78002BB8D04FF0904040F26C01C4F60001FFF70BFE45F20020C4F2000040F28851C4F600014FF00702FFF70C
:401A8000BBFD45F20820C4F200004FF00701FFF795FD45F21020C4F200004FF00701FFF78DFD45F21820C4F200004FF00701FFF785FD45F22020C4F200004FF00701FFF758
:401AC0007DFD45F22820C4F200004FF00701FFF775FD45F23020C4F200004FF00701FFF76DFD45F26020C4F200004FF00601FFF765FD45F27820C4F200004FF00701FFF7D7
:401B00005DFD45F20303C4F2010345F20302C4F201021278D2B242F00202D2B21A7045F21303C4F2010345F21302C4F201021278D2B242F00202D2B21A7044F2A033C4F2F0
:401B4000000344F2A032C4F200021278D2B242F04002D2B21A7044F2C233C4F2000344F2C232C4F200021278D2B242F01002D2B21A7045F20010C4F2000040F27451C4F63E
:401B800000014FF00A02FFF76BFD45F22210C4F2000040F28051C4F600014FF00802FFF75FFDFFF755FE44F2B030C4F2000044F2A031C4F200014FF00C02FFF751FD44F269
:401BC000B033C4F2000344F2B032C4F200021278D2B202F0FD021A7007F11807BD4680BD032A2DE9F0070BD83AB1002311F803C000F803C001339342F8D1BDE8F0077047C2
:401C000082180C46034603E014F8011C03F8011C03F003061946A44601330134002EF3D11CF00304634608BFC1EB020C68D06542C4F1040A0CEB050733464FEACA0A5CF8EF
:401C400005604FEAC408551A08E057F8044F264604FA0AF449EA0404CC5004335C18032D26FA08F9A5F104050CEB0306EDDC002302E0F15CE154013319199142F9D3BCE7AF
:401C800053F8404C41F8404C53F83C4C41F83C4C53F8384C41F8384C53F8344C41F8344C53F8304C41F8304C53F82C4C41F82C4C53F8284C41F8284C53F8244C41F8244C24
:401CC00053F8204C41F8204C53F81C4C41F81C4C53F8184C41F8184C53F8144C41F8144C53F8104C41F8104C53F80C4C41F80C4C53F8084C41F8084C53F8044C41F8044CE4
:401D00001C460D4640334031BCF13F0FACF1400CB6DC21462B46541B0FE051F8105C43F8105C51F80C5C43F80C5C51F8085C43F8085C51F8045C43F8045C0F2C0D469C46AE
:401D400001F1100103F11003A4F11004E5DCCCEB0201002303E0EC584CF8034004335E19032903EB0C04A1F10401F4DC7FE700BF032AC9B230B407D822B10023C154013356
:401D80009342FBD130BC704700EB020C034601E003F8011C03F003041A460133002CF7D14FF00133C2EB0C0403FB01F31FE042F8403C42F83C3C42F8383C42F8343C42F807
:401DC000303C42F82C3C42F8283C42F8243C42F8203C42F81C3C42F8183C42F8143C42F8103C42F80C3C42F8083C42F8043C154640323F2CA4F14004D9DC2A46C5EB0C0467
:401E000007E042F8103C42F80C3C42F8083C42F8043C154610320F2CA4F11004F1DC2A46C5EB0C0501E042F8043C14460432032DA5F10405F7DC01E004F8011B6445FBD33F
:401E4000A0E700BF08B500F017F8074800B10068064901B109680022FEF7D2FD044B0BB1AFF30080FEE700BF000000000000000000000000FEE7000070B541F6187641F6C9
:401E80001875C0F20006C0F20005761BB61006D0002455F8243001349847A642F9D841F6187541F62076C0F20005C0F20006761B00F02CF8B61006D0002455F8243001342C
:401EC0009847A642F9D870BD105100401000305100404000C05100401000F05100401000000001400010001401408006001B0140000100400140000A004C014000020000D6
:401F0000801A0140F404004880000000F8B500BFF8BC08BC9E46704781000000590A0000F8B500BFF8BC08BC9E4670476D00000000000000481F00000881FF1F1800000091
:401F40001003000000000000000000002481FF1F2481FF1F2482FF1F2482FF1F0100000000000000000000000000000000000000000000000000000000000000000000003F
:401F80000000000000000000000000000000000000000000000000000000000000000000000000000000000000000000000000000000000000000000000000000000000021
:401FC00000000000000000000000000000000000000000000000000000000000000000000000000000000000000000000000000000000000000000000000000000000000E1
:4020000000000000000000000000000000000000000000000000000000000000000000000000000000000000000000000000000000000000000000000000000000000000A0
:402040000000000000000000000000000000000000000000000000000000000000000000000000000000000000000000000000000000000000000000000000000000000060
:020000040003F7
:0200000480007A
:4000000001640040046500400107014068080140390901402B140140151501402F160140131701405F1801403F1901400B1A01403B1B014007400140044101400442014036
:4000400006430140034401400245014002460140024701400448014005490140034C0140034D01400750014002510140890F870D8872890F8B38E6020120060308140908AA
:400080000C090EF01374149C150616221730182C19061AD11B502080221024302562264C29013106321F337034E03501370839023A203B083F11400145504610480A49FFB8
:4000C0004A074BFF4C404D204EF04F055008580459045A045C225D02604061A86240632084028503871489208C109008920395139704980699139A089B0C9C089E05A20FD7
:40010000A31EA509A710B007B120B210B40BB50FB710BA22BB20BE04BF41C024C103C5E0C6B0C70CC81AC9FFCAFFCBFFCEF0CF44D00CD401D604D804D904DA04DB04DC21EA
:40014000DD22E6C0EA40EB02008804200504070208400A480E080F20128015011708188019081A481D041E101F30211222602308240425082604274229022B302E102F10DB
:400180003108322035023624370238083A103D013E20411A4740484049014D015014563059295A8063408740C0E5C26BC438CA63CCE6CEA6D017D60FD80101012C013301E9
:4001C00036013E40405649FF4AFF4BFF4F015018580459045A045B045C206040624064406540668068806A806C806E80C046C9FFCAFFCBFFCD83CE03CF01D018DA04E040DA
:40020000E240E440E540E680E880EA80EC80EE801201180120203A014680480A4C0870027280820184108C019E80A008C401CE01D080D22CE008E204E602404649FF4AFFB1
:400240004BFF4D834E034F0150185A046040624064406540668068806A806C806E809701AF01B701BF40C046C5ECC702C813C9FFCAFFCBFFCD83CE03CF01D018D401D604A3
:40028000D904DA04DB04E040E240E440E540E680E880EA80EC80EE8022402A80300842804680480849054C08500859055A8063408740CA08CC02D081D224D60BD8010201AB
:4002C0000412050106240A0118181A221C021E0C247E287E2C403001324033013430360E37013E013F04400345014705481149FF4A074BFF4C404D204EF04F0550085602C0
:400300005710580459045A045B045C125D21604061A8624063208007821887038D6C8F1190079208953C9702981299149A019C209D099F50A170A21DA30CA406A609A71075
:40034000B01EB220B360B51FB601B908BA02BE44BF04C016C105C5ECC6B0C80BC9FFCAFFCBFFCEF0CF44D00CD401D804D904DA04DB04DC11DD11E6C0EA40EB020102040471
:40038000051006800A080B810E05103012801540171419861C011E051F19200421082684284029022A042B803120328438843B803F0443804508482049014A044B814F0435
:4003C000512054045604581059855E406D406F14760A77288A018B08908092089C40A404A680A804A920B404C078C2CBC4ECCA03CC0ECE4AD048D20CD61F020103020501DB
:4004000006010B01330334013E103F045804590403A004950D100E210F80172A19201D101E401F88210824902571261627022D012F16358036063720380539213B283DA0C7
:400440003E0B452949104A084D804E094F80568057205E0265206742800482018308874290059202932296409A0A9B289D109E80C0FCC2F0C470CAF0CCF0CEF7D0E0D2307C
:40048000D680D8B0E41032203308340236403B40CCF0CE1097409C02A660A70897409C02A660A708874897409C02A660A708E64050105420D4069420A4209420A420942057
:4004C000A42086409C02A660E640840286209C02A620E640A420B410EC028C20A420E408000602100C06100712101A051C0600FF01030000180800000004080047F3380CCF
:400500007F1F00A000FF1900791C06C3100C0000040000E3460339000202000006000011000000104000187C070F208C800000AA00000100250406000300EC000CFFFFFF6F
:4005400062A0F0410C0000001800040004040404222200000000000000004002001030100010101200000000000000000000000000000000010000030300030000000000FE
:400580000001010000000000020000000000000000000000000000000000000000000000000000000000000000000000000000000000000000000000000000000000000037
:4005C00000000000000000000000000000000000000000000000000000000000000000000000000000000000000000000000000000000000000000000000000000000000FB
:4006000000000000000000000000000000000000000000000000000000000000000000000000000000000000000000000000000000000000000000000000000000000000BA
:40064000000000000000000000000000000000000000000000000000000000000000000000000000000000000000000000000000000000000000000000000000000000007A
:40068000000000000000000000000000000000000000000000000000000000000000000000000000000000000000000000000000000000000000000000000000000000003A
:0200000490006A
:0400000000000006F6
:0200000490105A
:04000000BC90ACAF55
:0200000490303A
:02000000A06CF2
:0200000490501A
:0C00000000010E13C06901010E2360D541
:0200000490402A
:4000000000000000000000000000000000000000000000000000000000000000000000000000000000000000000000000000000000000000000000000000000000000000C0
:400040000000000000000000000000000000000000000000000000000000000000000000000000000000000000000000000000000000000000000000000000000000000080
:400080000000000000000000000000000000000000000000000000000000000000000000000000000000000000000000000000000000000000000000000000000000000040
:4000C0000000000000000000000000000000000000000000000000000000000000000000000000000000000000000000000000000000000000000000000000000000000000
:00000001FF
